{
	"ownable-resolver.sol": {
		"OwnerRecipientResolver": {
			"abi": [
				{
					"inputs": [
						{
							"internalType": "contract IEAS",
							"name": "eas",
							"type": "address"
						}
					],
					"stateMutability": "nonpayable",
					"type": "constructor"
				},
				{
					"inputs": [],
					"name": "AccessDenied",
					"type": "error"
				},
				{
					"inputs": [],
					"name": "InsufficientValue",
					"type": "error"
				},
				{
					"inputs": [],
					"name": "InvalidEAS",
					"type": "error"
				},
				{
					"inputs": [],
					"name": "InvalidLength",
					"type": "error"
				},
				{
					"inputs": [],
					"name": "NotPayable",
					"type": "error"
				},
				{
					"inputs": [
						{
							"components": [
								{
									"internalType": "bytes32",
									"name": "uid",
									"type": "bytes32"
								},
								{
									"internalType": "bytes32",
									"name": "schema",
									"type": "bytes32"
								},
								{
									"internalType": "uint64",
									"name": "time",
									"type": "uint64"
								},
								{
									"internalType": "uint64",
									"name": "expirationTime",
									"type": "uint64"
								},
								{
									"internalType": "uint64",
									"name": "revocationTime",
									"type": "uint64"
								},
								{
									"internalType": "bytes32",
									"name": "refUID",
									"type": "bytes32"
								},
								{
									"internalType": "address",
									"name": "recipient",
									"type": "address"
								},
								{
									"internalType": "address",
									"name": "attester",
									"type": "address"
								},
								{
									"internalType": "bool",
									"name": "revocable",
									"type": "bool"
								},
								{
									"internalType": "bytes",
									"name": "data",
									"type": "bytes"
								}
							],
							"internalType": "struct Attestation",
							"name": "attestation",
							"type": "tuple"
						}
					],
					"name": "attest",
					"outputs": [
						{
							"internalType": "bool",
							"name": "",
							"type": "bool"
						}
					],
					"stateMutability": "payable",
					"type": "function"
				},
				{
					"inputs": [],
					"name": "isPayable",
					"outputs": [
						{
							"internalType": "bool",
							"name": "",
							"type": "bool"
						}
					],
					"stateMutability": "pure",
					"type": "function"
				},
				{
					"inputs": [
						{
							"components": [
								{
									"internalType": "bytes32",
									"name": "uid",
									"type": "bytes32"
								},
								{
									"internalType": "bytes32",
									"name": "schema",
									"type": "bytes32"
								},
								{
									"internalType": "uint64",
									"name": "time",
									"type": "uint64"
								},
								{
									"internalType": "uint64",
									"name": "expirationTime",
									"type": "uint64"
								},
								{
									"internalType": "uint64",
									"name": "revocationTime",
									"type": "uint64"
								},
								{
									"internalType": "bytes32",
									"name": "refUID",
									"type": "bytes32"
								},
								{
									"internalType": "address",
									"name": "recipient",
									"type": "address"
								},
								{
									"internalType": "address",
									"name": "attester",
									"type": "address"
								},
								{
									"internalType": "bool",
									"name": "revocable",
									"type": "bool"
								},
								{
									"internalType": "bytes",
									"name": "data",
									"type": "bytes"
								}
							],
							"internalType": "struct Attestation[]",
							"name": "attestations",
							"type": "tuple[]"
						},
						{
							"internalType": "uint256[]",
							"name": "values",
							"type": "uint256[]"
						}
					],
					"name": "multiAttest",
					"outputs": [
						{
							"internalType": "bool",
							"name": "",
							"type": "bool"
						}
					],
					"stateMutability": "payable",
					"type": "function"
				},
				{
					"inputs": [
						{
							"components": [
								{
									"internalType": "bytes32",
									"name": "uid",
									"type": "bytes32"
								},
								{
									"internalType": "bytes32",
									"name": "schema",
									"type": "bytes32"
								},
								{
									"internalType": "uint64",
									"name": "time",
									"type": "uint64"
								},
								{
									"internalType": "uint64",
									"name": "expirationTime",
									"type": "uint64"
								},
								{
									"internalType": "uint64",
									"name": "revocationTime",
									"type": "uint64"
								},
								{
									"internalType": "bytes32",
									"name": "refUID",
									"type": "bytes32"
								},
								{
									"internalType": "address",
									"name": "recipient",
									"type": "address"
								},
								{
									"internalType": "address",
									"name": "attester",
									"type": "address"
								},
								{
									"internalType": "bool",
									"name": "revocable",
									"type": "bool"
								},
								{
									"internalType": "bytes",
									"name": "data",
									"type": "bytes"
								}
							],
							"internalType": "struct Attestation[]",
							"name": "attestations",
							"type": "tuple[]"
						},
						{
							"internalType": "uint256[]",
							"name": "values",
							"type": "uint256[]"
						}
					],
					"name": "multiRevoke",
					"outputs": [
						{
							"internalType": "bool",
							"name": "",
							"type": "bool"
						}
					],
					"stateMutability": "payable",
					"type": "function"
				},
				{
					"inputs": [
						{
							"components": [
								{
									"internalType": "bytes32",
									"name": "uid",
									"type": "bytes32"
								},
								{
									"internalType": "bytes32",
									"name": "schema",
									"type": "bytes32"
								},
								{
									"internalType": "uint64",
									"name": "time",
									"type": "uint64"
								},
								{
									"internalType": "uint64",
									"name": "expirationTime",
									"type": "uint64"
								},
								{
									"internalType": "uint64",
									"name": "revocationTime",
									"type": "uint64"
								},
								{
									"internalType": "bytes32",
									"name": "refUID",
									"type": "bytes32"
								},
								{
									"internalType": "address",
									"name": "recipient",
									"type": "address"
								},
								{
									"internalType": "address",
									"name": "attester",
									"type": "address"
								},
								{
									"internalType": "bool",
									"name": "revocable",
									"type": "bool"
								},
								{
									"internalType": "bytes",
									"name": "data",
									"type": "bytes"
								}
							],
							"internalType": "struct Attestation",
							"name": "attestation",
							"type": "tuple"
						}
					],
					"name": "revoke",
					"outputs": [
						{
							"internalType": "bool",
							"name": "",
							"type": "bool"
						}
					],
					"stateMutability": "payable",
					"type": "function"
				},
				{
					"inputs": [],
					"name": "version",
					"outputs": [
						{
							"internalType": "string",
							"name": "",
							"type": "string"
						}
					],
					"stateMutability": "view",
					"type": "function"
				},
				{
					"stateMutability": "payable",
					"type": "receive"
				}
			],
			"devdoc": {
				"kind": "dev",
				"methods": {
					"attest((bytes32,bytes32,uint64,uint64,uint64,bytes32,address,address,bool,bytes))": {
						"params": {
							"attestation": "The new attestation."
						},
						"returns": {
							"_0": "Whether the attestation is valid."
						}
					},
					"isPayable()": {
						"returns": {
							"_0": "Whether the resolver supports ETH transfers."
						}
					},
					"multiAttest((bytes32,bytes32,uint64,uint64,uint64,bytes32,address,address,bool,bytes)[],uint256[])": {
						"params": {
							"attestations": "The new attestations.",
							"values": "Explicit ETH amounts which were sent with each attestation."
						},
						"returns": {
							"_0": "Whether all the attestations are valid."
						}
					},
					"multiRevoke((bytes32,bytes32,uint64,uint64,uint64,bytes32,address,address,bool,bytes)[],uint256[])": {
						"params": {
							"attestations": "The existing attestations to be revoked.",
							"values": "Explicit ETH amounts which were sent with each revocation."
						},
						"returns": {
							"_0": "Whether the attestations can be revoked."
						}
					},
					"revoke((bytes32,bytes32,uint64,uint64,uint64,bytes32,address,address,bool,bytes))": {
						"params": {
							"attestation": "The existing attestation to be revoked."
						},
						"returns": {
							"_0": "Whether the attestation can be revoked."
						}
					},
					"version()": {
						"returns": {
							"_0": "Semver contract version as a string."
						}
					}
				},
				"title": "A schema resolver that checks whether the sender is the owner of the contract behind attestation.recipient.",
				"version": 1
			},
			"evm": {
				"assembly": "    /* \"ownable-resolver.sol\":344:2411  contract OwnerRecipientResolver is SchemaResolver {... */\n  mstore(0x40, 0x0100)\n    /* \"ownable-resolver.sol\":400:444  constructor(IEAS eas) SchemaResolver(eas) {} */\n  callvalue\n  dup1\n  iszero\n  tag_1\n  jumpi\n  0x00\n  dup1\n  revert\ntag_1:\n  pop\n  mload(0x40)\n  sub(codesize, bytecodeSize)\n  dup1\n  bytecodeSize\n  dup4\n  codecopy\n  dup2\n  dup2\n  add\n  0x40\n  mstore\n  dup2\n  add\n  swap1\n  tag_2\n  swap2\n  swap1\n  tag_3\n  jump\t// in\ntag_2:\n    /* \"ownable-resolver.sol\":437:440  eas */\n  dup1\n    /* \"EAS/SchemaResolver.sol\":676:677  1 */\n  0x01\n    /* \"EAS/SchemaResolver.sol\":679:680  3 */\n  0x03\n    /* \"EAS/SchemaResolver.sol\":682:683  0 */\n  0x00\n    /* \"EAS/Semver.sol\":768:773  major */\n  dup3\n    /* \"EAS/Semver.sol\":759:773  _major = major */\n  0x80\n  dup2\n  dup2\n  mstore\n  pop\n  pop\n    /* \"EAS/Semver.sol\":792:797  minor */\n  dup2\n    /* \"EAS/Semver.sol\":783:797  _minor = minor */\n  0xa0\n  dup2\n  dup2\n  mstore\n  pop\n  pop\n    /* \"EAS/Semver.sol\":816:821  patch */\n  dup1\n    /* \"EAS/Semver.sol\":807:821  _patch = patch */\n  0xc0\n  dup2\n  dup2\n  mstore\n  pop\n  pop\n    /* \"EAS/Semver.sol\":692:828  constructor(uint256 major, uint256 minor, uint256 patch) {... */\n  pop\n  pop\n  pop\n    /* \"EAS/SchemaResolver.sol\":723:724  0 */\n  0x00\n    /* \"EAS/SchemaResolver.sol\":699:725  address(eas) == address(0) */\n  0xffffffffffffffffffffffffffffffffffffffff\n  and\n    /* \"EAS/SchemaResolver.sol\":707:710  eas */\n  dup2\n    /* \"EAS/SchemaResolver.sol\":699:725  address(eas) == address(0) */\n  0xffffffffffffffffffffffffffffffffffffffff\n  and\n  sub\n    /* \"EAS/SchemaResolver.sol\":695:771  if (address(eas) == address(0)) {... */\n  tag_9\n  jumpi\n    /* \"EAS/SchemaResolver.sol\":748:760  InvalidEAS() */\n  mload(0x40)\n  0x83780ffe00000000000000000000000000000000000000000000000000000000\n  dup2\n  mstore\n  0x04\n  add\n  mload(0x40)\n  dup1\n  swap2\n  sub\n  swap1\n  revert\n    /* \"EAS/SchemaResolver.sol\":695:771  if (address(eas) == address(0)) {... */\ntag_9:\n    /* \"EAS/SchemaResolver.sol\":788:791  eas */\n  dup1\n    /* \"EAS/SchemaResolver.sol\":781:791  _eas = eas */\n  0xffffffffffffffffffffffffffffffffffffffff\n  and\n  0xe0\n  dup2\n  0xffffffffffffffffffffffffffffffffffffffff\n  and\n  dup2\n  mstore\n  pop\n  pop\n    /* \"EAS/SchemaResolver.sol\":647:798  constructor(IEAS eas) Semver(1, 3, 0) {... */\n  pop\n    /* \"ownable-resolver.sol\":400:444  constructor(IEAS eas) SchemaResolver(eas) {} */\n  pop\n    /* \"ownable-resolver.sol\":344:2411  contract OwnerRecipientResolver is SchemaResolver {... */\n  jump(tag_11)\n    /* \"#utility.yul\":88:205   */\ntag_13:\n    /* \"#utility.yul\":197:198   */\n  0x00\n    /* \"#utility.yul\":194:195   */\n  dup1\n    /* \"#utility.yul\":187:199   */\n  revert\n    /* \"#utility.yul\":334:460   */\ntag_15:\n    /* \"#utility.yul\":371:378   */\n  0x00\n    /* \"#utility.yul\":411:453   */\n  0xffffffffffffffffffffffffffffffffffffffff\n    /* \"#utility.yul\":404:409   */\n  dup3\n    /* \"#utility.yul\":400:454   */\n  and\n    /* \"#utility.yul\":389:454   */\n  swap1\n  pop\n    /* \"#utility.yul\":334:460   */\n  swap2\n  swap1\n  pop\n  jump\t// out\n    /* \"#utility.yul\":466:562   */\ntag_16:\n    /* \"#utility.yul\":503:510   */\n  0x00\n    /* \"#utility.yul\":532:556   */\n  tag_26\n    /* \"#utility.yul\":550:555   */\n  dup3\n    /* \"#utility.yul\":532:556   */\n  tag_15\n  jump\t// in\ntag_26:\n    /* \"#utility.yul\":521:556   */\n  swap1\n  pop\n    /* \"#utility.yul\":466:562   */\n  swap2\n  swap1\n  pop\n  jump\t// out\n    /* \"#utility.yul\":568:677   */\ntag_17:\n    /* \"#utility.yul\":618:625   */\n  0x00\n    /* \"#utility.yul\":647:671   */\n  tag_28\n    /* \"#utility.yul\":665:670   */\n  dup3\n    /* \"#utility.yul\":647:671   */\n  tag_16\n  jump\t// in\ntag_28:\n    /* \"#utility.yul\":636:671   */\n  swap1\n  pop\n    /* \"#utility.yul\":568:677   */\n  swap2\n  swap1\n  pop\n  jump\t// out\n    /* \"#utility.yul\":683:831   */\ntag_18:\n    /* \"#utility.yul\":769:806   */\n  tag_30\n    /* \"#utility.yul\":800:805   */\n  dup2\n    /* \"#utility.yul\":769:806   */\n  tag_17\n  jump\t// in\ntag_30:\n    /* \"#utility.yul\":762:767   */\n  dup2\n    /* \"#utility.yul\":759:807   */\n  eq\n    /* \"#utility.yul\":749:825   */\n  tag_31\n  jumpi\n    /* \"#utility.yul\":821:822   */\n  0x00\n    /* \"#utility.yul\":818:819   */\n  dup1\n    /* \"#utility.yul\":811:823   */\n  revert\n    /* \"#utility.yul\":749:825   */\ntag_31:\n    /* \"#utility.yul\":683:831   */\n  pop\n  jump\t// out\n    /* \"#utility.yul\":837:1006   */\ntag_19:\n    /* \"#utility.yul\":907:912   */\n  0x00\n    /* \"#utility.yul\":938:944   */\n  dup2\n    /* \"#utility.yul\":932:945   */\n  mload\n    /* \"#utility.yul\":923:945   */\n  swap1\n  pop\n    /* \"#utility.yul\":954:1000   */\n  tag_33\n    /* \"#utility.yul\":994:999   */\n  dup2\n    /* \"#utility.yul\":954:1000   */\n  tag_18\n  jump\t// in\ntag_33:\n    /* \"#utility.yul\":837:1006   */\n  swap3\n  swap2\n  pop\n  pop\n  jump\t// out\n    /* \"#utility.yul\":1012:1389   */\ntag_3:\n    /* \"#utility.yul\":1095:1101   */\n  0x00\n    /* \"#utility.yul\":1144:1146   */\n  0x20\n    /* \"#utility.yul\":1132:1141   */\n  dup3\n    /* \"#utility.yul\":1123:1130   */\n  dup5\n    /* \"#utility.yul\":1119:1142   */\n  sub\n    /* \"#utility.yul\":1115:1147   */\n  slt\n    /* \"#utility.yul\":1112:1231   */\n  iszero\n  tag_35\n  jumpi\n    /* \"#utility.yul\":1150:1229   */\n  tag_36\n  tag_13\n  jump\t// in\ntag_36:\n    /* \"#utility.yul\":1112:1231   */\ntag_35:\n    /* \"#utility.yul\":1270:1271   */\n  0x00\n    /* \"#utility.yul\":1295:1372   */\n  tag_37\n    /* \"#utility.yul\":1364:1371   */\n  dup5\n    /* \"#utility.yul\":1355:1361   */\n  dup3\n    /* \"#utility.yul\":1344:1353   */\n  dup6\n    /* \"#utility.yul\":1340:1362   */\n  add\n    /* \"#utility.yul\":1295:1372   */\n  tag_19\n  jump\t// in\ntag_37:\n    /* \"#utility.yul\":1285:1372   */\n  swap2\n  pop\n    /* \"#utility.yul\":1241:1382   */\n  pop\n    /* \"#utility.yul\":1012:1389   */\n  swap3\n  swap2\n  pop\n  pop\n  jump\t// out\n    /* \"ownable-resolver.sol\":344:2411  contract OwnerRecipientResolver is SchemaResolver {... */\ntag_11:\n  mload(0x80)\n  mload(0xa0)\n  mload(0xc0)\n  mload(0xe0)\n  codecopy(0x00, dataOffset(sub_0), dataSize(sub_0))\n  0x00\n  assignImmutable(\"0xc775df1a7e57e4ddca9708a57c092ca399c892894e875f640af011da3d066949\")\n  0x00\n  assignImmutable(\"0xb264290b39caa425e41c2393e10056c6bf6aefcb7750f619dd0d6dd4d035e225\")\n  0x00\n  assignImmutable(\"0x4898df15ec6590495dc6c0fedf951ade3e64001d47f9caf44a64e86fc11959df\")\n  0x00\n  assignImmutable(\"0x08b2c4590c6811ffb7cb8659cd18fb3368dba395a633f764dbf449be06307fe1\")\n  return(0x00, dataSize(sub_0))\nstop\n\nsub_0: assembly {\n        /* \"ownable-resolver.sol\":344:2411  contract OwnerRecipientResolver is SchemaResolver {... */\n      mstore(0x40, 0x80)\n      jumpi(tag_1, lt(calldatasize, 0x04))\n      shr(0xe0, calldataload(0x00))\n      dup1\n      0x54fd4d50\n      eq\n      tag_3\n      jumpi\n      dup1\n      0x88e5b2d9\n      eq\n      tag_4\n      jumpi\n      dup1\n      0x91db0b7e\n      eq\n      tag_5\n      jumpi\n      dup1\n      0xce46e046\n      eq\n      tag_6\n      jumpi\n      dup1\n      0xe49617e1\n      eq\n      tag_7\n      jumpi\n      dup1\n      0xe60c3505\n      eq\n      tag_8\n      jumpi\n      jump(tag_2)\n    tag_1:\n      jumpi(tag_2, calldatasize)\n        /* \"EAS/SchemaResolver.sol\":1140:1151  isPayable() */\n      tag_11\n        /* \"EAS/SchemaResolver.sol\":1140:1149  isPayable */\n      tag_12\n        /* \"EAS/SchemaResolver.sol\":1140:1151  isPayable() */\n      jump\t// in\n    tag_11:\n        /* \"EAS/SchemaResolver.sol\":1135:1197  if (!isPayable()) {... */\n      tag_13\n      jumpi\n        /* \"EAS/SchemaResolver.sol\":1174:1186  NotPayable() */\n      mload(0x40)\n      0x1574f9f300000000000000000000000000000000000000000000000000000000\n      dup2\n      mstore\n      0x04\n      add\n      mload(0x40)\n      dup1\n      swap2\n      sub\n      swap1\n      revert\n        /* \"EAS/SchemaResolver.sol\":1135:1197  if (!isPayable()) {... */\n    tag_13:\n        /* \"ownable-resolver.sol\":344:2411  contract OwnerRecipientResolver is SchemaResolver {... */\n      stop\n    tag_2:\n      0x00\n      dup1\n      revert\n        /* \"EAS/Semver.sol\":945:1180  function version() external view returns (string memory) {... */\n    tag_3:\n      callvalue\n      dup1\n      iszero\n      tag_14\n      jumpi\n      0x00\n      dup1\n      revert\n    tag_14:\n      pop\n      tag_15\n      tag_16\n      jump\t// in\n    tag_15:\n      mload(0x40)\n      tag_17\n      swap2\n      swap1\n      tag_18\n      jump\t// in\n    tag_17:\n      mload(0x40)\n      dup1\n      swap2\n      sub\n      swap1\n      return\n        /* \"EAS/SchemaResolver.sol\":3124:4584  function multiRevoke(... */\n    tag_4:\n      tag_19\n      0x04\n      dup1\n      calldatasize\n      sub\n      dup2\n      add\n      swap1\n      tag_20\n      swap2\n      swap1\n      tag_21\n      jump\t// in\n    tag_20:\n      tag_22\n      jump\t// in\n    tag_19:\n      mload(0x40)\n      tag_23\n      swap2\n      swap1\n      tag_24\n      jump\t// in\n    tag_23:\n      mload(0x40)\n      dup1\n      swap2\n      sub\n      swap1\n      return\n        /* \"EAS/SchemaResolver.sol\":1433:2894  function multiAttest(... */\n    tag_5:\n      tag_25\n      0x04\n      dup1\n      calldatasize\n      sub\n      dup2\n      add\n      swap1\n      tag_26\n      swap2\n      swap1\n      tag_21\n      jump\t// in\n    tag_26:\n      tag_27\n      jump\t// in\n    tag_25:\n      mload(0x40)\n      tag_28\n      swap2\n      swap1\n      tag_24\n      jump\t// in\n    tag_28:\n      mload(0x40)\n      dup1\n      swap2\n      sub\n      swap1\n      return\n        /* \"EAS/SchemaResolver.sol\":972:1057  function isPayable() public pure virtual returns (bool) {... */\n    tag_6:\n      callvalue\n      dup1\n      iszero\n      tag_29\n      jumpi\n      0x00\n      dup1\n      revert\n    tag_29:\n      pop\n      tag_30\n      tag_12\n      jump\t// in\n    tag_30:\n      mload(0x40)\n      tag_31\n      swap2\n      swap1\n      tag_24\n      jump\t// in\n    tag_31:\n      mload(0x40)\n      dup1\n      swap2\n      sub\n      swap1\n      return\n        /* \"EAS/SchemaResolver.sol\":2936:3082  function revoke(Attestation calldata attestation) external payable onlyEAS returns (bool) {... */\n    tag_7:\n      tag_32\n      0x04\n      dup1\n      calldatasize\n      sub\n      dup2\n      add\n      swap1\n      tag_33\n      swap2\n      swap1\n      tag_34\n      jump\t// in\n    tag_33:\n      tag_35\n      jump\t// in\n    tag_32:\n      mload(0x40)\n      tag_36\n      swap2\n      swap1\n      tag_24\n      jump\t// in\n    tag_36:\n      mload(0x40)\n      dup1\n      swap2\n      sub\n      swap1\n      return\n        /* \"EAS/SchemaResolver.sol\":1245:1391  function attest(Attestation calldata attestation) external payable onlyEAS returns (bool) {... */\n    tag_8:\n      tag_37\n      0x04\n      dup1\n      calldatasize\n      sub\n      dup2\n      add\n      swap1\n      tag_38\n      swap2\n      swap1\n      tag_34\n      jump\t// in\n    tag_38:\n      tag_39\n      jump\t// in\n    tag_37:\n      mload(0x40)\n      tag_40\n      swap2\n      swap1\n      tag_24\n      jump\t// in\n    tag_40:\n      mload(0x40)\n      dup1\n      swap2\n      sub\n      swap1\n      return\n        /* \"EAS/SchemaResolver.sol\":972:1057  function isPayable() public pure virtual returns (bool) {... */\n    tag_12:\n        /* \"EAS/SchemaResolver.sol\":1022:1026  bool */\n      0x00\n        /* \"EAS/SchemaResolver.sol\":972:1057  function isPayable() public pure virtual returns (bool) {... */\n      swap1\n      jump\t// out\n        /* \"EAS/Semver.sol\":945:1180  function version() external view returns (string memory) {... */\n    tag_16:\n        /* \"EAS/Semver.sol\":987:1000  string memory */\n      0x60\n        /* \"EAS/Semver.sol\":1072:1096  Strings.toString(_major) */\n      tag_43\n        /* \"EAS/Semver.sol\":1089:1095  _major */\n      immutable(\"0x08b2c4590c6811ffb7cb8659cd18fb3368dba395a633f764dbf449be06307fe1\")\n        /* \"EAS/Semver.sol\":1072:1088  Strings.toString */\n      tag_44\n        /* \"EAS/Semver.sol\":1072:1096  Strings.toString(_major) */\n      jump\t// in\n    tag_43:\n        /* \"EAS/Semver.sol\":1103:1127  Strings.toString(_minor) */\n      tag_45\n        /* \"EAS/Semver.sol\":1120:1126  _minor */\n      immutable(\"0x4898df15ec6590495dc6c0fedf951ade3e64001d47f9caf44a64e86fc11959df\")\n        /* \"EAS/Semver.sol\":1103:1119  Strings.toString */\n      tag_44\n        /* \"EAS/Semver.sol\":1103:1127  Strings.toString(_minor) */\n      jump\t// in\n    tag_45:\n        /* \"EAS/Semver.sol\":1134:1158  Strings.toString(_patch) */\n      tag_46\n        /* \"EAS/Semver.sol\":1151:1157  _patch */\n      immutable(\"0xb264290b39caa425e41c2393e10056c6bf6aefcb7750f619dd0d6dd4d035e225\")\n        /* \"EAS/Semver.sol\":1134:1150  Strings.toString */\n      tag_44\n        /* \"EAS/Semver.sol\":1134:1158  Strings.toString(_patch) */\n      jump\t// in\n    tag_46:\n        /* \"EAS/Semver.sol\":1055:1159  abi.encodePacked(Strings.toString(_major), \".\", Strings.toString(_minor), \".\", Strings.toString(_patch)) */\n      add(0x20, mload(0x40))\n      tag_47\n      swap4\n      swap3\n      swap2\n      swap1\n      tag_48\n      jump\t// in\n    tag_47:\n      mload(0x40)\n      0x20\n      dup2\n      dup4\n      sub\n      sub\n      dup2\n      mstore\n      swap1\n      0x40\n      mstore\n        /* \"EAS/Semver.sol\":1012:1173  return... */\n      swap1\n      pop\n        /* \"EAS/Semver.sol\":945:1180  function version() external view returns (string memory) {... */\n      swap1\n      jump\t// out\n        /* \"EAS/SchemaResolver.sol\":3124:4584  function multiRevoke(... */\n    tag_22:\n        /* \"EAS/SchemaResolver.sol\":3265:3269  bool */\n      0x00\n        /* \"EAS/SchemaResolver.sol\":901:911  _onlyEAS() */\n      tag_50\n        /* \"EAS/SchemaResolver.sol\":901:909  _onlyEAS */\n      tag_51\n        /* \"EAS/SchemaResolver.sol\":901:911  _onlyEAS() */\n      jump\t// in\n    tag_50:\n        /* \"EAS/SchemaResolver.sol\":3281:3295  uint256 length */\n      0x00\n        /* \"EAS/SchemaResolver.sol\":3298:3310  attestations */\n      dup6\n      dup6\n        /* \"EAS/SchemaResolver.sol\":3298:3317  attestations.length */\n      swap1\n      pop\n        /* \"EAS/SchemaResolver.sol\":3281:3317  uint256 length = attestations.length */\n      swap1\n      pop\n        /* \"EAS/SchemaResolver.sol\":3341:3347  values */\n      dup4\n      dup4\n        /* \"EAS/SchemaResolver.sol\":3341:3354  values.length */\n      swap1\n      pop\n        /* \"EAS/SchemaResolver.sol\":3331:3337  length */\n      dup2\n        /* \"EAS/SchemaResolver.sol\":3331:3354  length != values.length */\n      eq\n        /* \"EAS/SchemaResolver.sol\":3327:3403  if (length != values.length) {... */\n      tag_53\n      jumpi\n        /* \"EAS/SchemaResolver.sol\":3377:3392  InvalidLength() */\n      mload(0x40)\n      0x947d5a8400000000000000000000000000000000000000000000000000000000\n      dup2\n      mstore\n      0x04\n      add\n      mload(0x40)\n      dup1\n      swap2\n      sub\n      swap1\n      revert\n        /* \"EAS/SchemaResolver.sol\":3327:3403  if (length != values.length) {... */\n    tag_53:\n        /* \"EAS/SchemaResolver.sol\":3810:3832  uint256 remainingValue */\n      0x00\n        /* \"EAS/SchemaResolver.sol\":3835:3844  msg.value */\n      callvalue\n        /* \"EAS/SchemaResolver.sol\":3810:3844  uint256 remainingValue = msg.value */\n      swap1\n      pop\n        /* \"EAS/SchemaResolver.sol\":3860:3869  uint256 i */\n      0x00\n        /* \"EAS/SchemaResolver.sol\":3855:4556  for (uint256 i = 0; i < length; i = uncheckedInc(i)) {... */\n    tag_54:\n        /* \"EAS/SchemaResolver.sol\":3879:3885  length */\n      dup3\n        /* \"EAS/SchemaResolver.sol\":3875:3876  i */\n      dup2\n        /* \"EAS/SchemaResolver.sol\":3875:3885  i < length */\n      lt\n        /* \"EAS/SchemaResolver.sol\":3855:4556  for (uint256 i = 0; i < length; i = uncheckedInc(i)) {... */\n      iszero\n      tag_55\n      jumpi\n        /* \"EAS/SchemaResolver.sol\":4012:4025  uint256 value */\n      0x00\n        /* \"EAS/SchemaResolver.sol\":4028:4034  values */\n      dup7\n      dup7\n        /* \"EAS/SchemaResolver.sol\":4035:4036  i */\n      dup4\n        /* \"EAS/SchemaResolver.sol\":4028:4037  values[i] */\n      dup2\n      dup2\n      lt\n      tag_57\n      jumpi\n      tag_58\n      tag_59\n      jump\t// in\n    tag_58:\n    tag_57:\n      swap1\n      pop\n      0x20\n      mul\n      add\n      calldataload\n        /* \"EAS/SchemaResolver.sol\":4012:4037  uint256 value = values[i] */\n      swap1\n      pop\n        /* \"EAS/SchemaResolver.sol\":4063:4077  remainingValue */\n      dup3\n        /* \"EAS/SchemaResolver.sol\":4055:4060  value */\n      dup2\n        /* \"EAS/SchemaResolver.sol\":4055:4077  value > remainingValue */\n      gt\n        /* \"EAS/SchemaResolver.sol\":4051:4138  if (value > remainingValue) {... */\n      iszero\n      tag_60\n      jumpi\n        /* \"EAS/SchemaResolver.sol\":4104:4123  InsufficientValue() */\n      mload(0x40)\n      0x1101129400000000000000000000000000000000000000000000000000000000\n      dup2\n      mstore\n      0x04\n      add\n      mload(0x40)\n      dup1\n      swap2\n      sub\n      swap1\n      revert\n        /* \"EAS/SchemaResolver.sol\":4051:4138  if (value > remainingValue) {... */\n    tag_60:\n        /* \"EAS/SchemaResolver.sol\":4266:4298  onRevoke(attestations[i], value) */\n      tag_61\n        /* \"EAS/SchemaResolver.sol\":4275:4287  attestations */\n      dup10\n      dup10\n        /* \"EAS/SchemaResolver.sol\":4288:4289  i */\n      dup5\n        /* \"EAS/SchemaResolver.sol\":4275:4290  attestations[i] */\n      dup2\n      dup2\n      lt\n      tag_62\n      jumpi\n      tag_63\n      tag_59\n      jump\t// in\n    tag_63:\n    tag_62:\n      swap1\n      pop\n      0x20\n      mul\n      dup2\n      add\n      swap1\n      tag_64\n      swap2\n      swap1\n      tag_65\n      jump\t// in\n    tag_64:\n        /* \"EAS/SchemaResolver.sol\":4292:4297  value */\n      dup3\n        /* \"EAS/SchemaResolver.sol\":4266:4274  onRevoke */\n      tag_66\n        /* \"EAS/SchemaResolver.sol\":4266:4298  onRevoke(attestations[i], value) */\n      jump\t// in\n    tag_61:\n        /* \"EAS/SchemaResolver.sol\":4261:4345  if (!onRevoke(attestations[i], value)) {... */\n      tag_67\n      jumpi\n        /* \"EAS/SchemaResolver.sol\":4325:4330  false */\n      0x00\n        /* \"EAS/SchemaResolver.sol\":4318:4330  return false */\n      swap5\n      pop\n      pop\n      pop\n      pop\n      pop\n      jump(tag_52)\n        /* \"EAS/SchemaResolver.sol\":4261:4345  if (!onRevoke(attestations[i], value)) {... */\n    tag_67:\n        /* \"EAS/SchemaResolver.sol\":4526:4531  value */\n      dup1\n        /* \"EAS/SchemaResolver.sol\":4508:4531  remainingValue -= value */\n      dup4\n      sub\n      swap3\n      pop\n        /* \"EAS/SchemaResolver.sol\":3908:4556  {... */\n      pop\n        /* \"EAS/SchemaResolver.sol\":3891:3906  uncheckedInc(i) */\n      tag_68\n        /* \"EAS/SchemaResolver.sol\":3904:3905  i */\n      dup2\n        /* \"EAS/SchemaResolver.sol\":3891:3903  uncheckedInc */\n      tag_69\n        /* \"EAS/SchemaResolver.sol\":3891:3906  uncheckedInc(i) */\n      jump\t// in\n    tag_68:\n        /* \"EAS/SchemaResolver.sol\":3887:3906  i = uncheckedInc(i) */\n      swap1\n      pop\n        /* \"EAS/SchemaResolver.sol\":3855:4556  for (uint256 i = 0; i < length; i = uncheckedInc(i)) {... */\n      jump(tag_54)\n    tag_55:\n      pop\n        /* \"EAS/SchemaResolver.sol\":4573:4577  true */\n      0x01\n        /* \"EAS/SchemaResolver.sol\":4566:4577  return true */\n      swap3\n      pop\n      pop\n      pop\n        /* \"EAS/SchemaResolver.sol\":922:923  _ */\n    tag_52:\n        /* \"EAS/SchemaResolver.sol\":3124:4584  function multiRevoke(... */\n      swap5\n      swap4\n      pop\n      pop\n      pop\n      pop\n      jump\t// out\n        /* \"EAS/SchemaResolver.sol\":1433:2894  function multiAttest(... */\n    tag_27:\n        /* \"EAS/SchemaResolver.sol\":1574:1578  bool */\n      0x00\n        /* \"EAS/SchemaResolver.sol\":901:911  _onlyEAS() */\n      tag_71\n        /* \"EAS/SchemaResolver.sol\":901:909  _onlyEAS */\n      tag_51\n        /* \"EAS/SchemaResolver.sol\":901:911  _onlyEAS() */\n      jump\t// in\n    tag_71:\n        /* \"EAS/SchemaResolver.sol\":1590:1604  uint256 length */\n      0x00\n        /* \"EAS/SchemaResolver.sol\":1607:1619  attestations */\n      dup6\n      dup6\n        /* \"EAS/SchemaResolver.sol\":1607:1626  attestations.length */\n      swap1\n      pop\n        /* \"EAS/SchemaResolver.sol\":1590:1626  uint256 length = attestations.length */\n      swap1\n      pop\n        /* \"EAS/SchemaResolver.sol\":1650:1656  values */\n      dup4\n      dup4\n        /* \"EAS/SchemaResolver.sol\":1650:1663  values.length */\n      swap1\n      pop\n        /* \"EAS/SchemaResolver.sol\":1640:1646  length */\n      dup2\n        /* \"EAS/SchemaResolver.sol\":1640:1663  length != values.length */\n      eq\n        /* \"EAS/SchemaResolver.sol\":1636:1712  if (length != values.length) {... */\n      tag_73\n      jumpi\n        /* \"EAS/SchemaResolver.sol\":1686:1701  InvalidLength() */\n      mload(0x40)\n      0x947d5a8400000000000000000000000000000000000000000000000000000000\n      dup2\n      mstore\n      0x04\n      add\n      mload(0x40)\n      dup1\n      swap2\n      sub\n      swap1\n      revert\n        /* \"EAS/SchemaResolver.sol\":1636:1712  if (length != values.length) {... */\n    tag_73:\n        /* \"EAS/SchemaResolver.sol\":2119:2141  uint256 remainingValue */\n      0x00\n        /* \"EAS/SchemaResolver.sol\":2144:2153  msg.value */\n      callvalue\n        /* \"EAS/SchemaResolver.sol\":2119:2153  uint256 remainingValue = msg.value */\n      swap1\n      pop\n        /* \"EAS/SchemaResolver.sol\":2169:2178  uint256 i */\n      0x00\n        /* \"EAS/SchemaResolver.sol\":2164:2866  for (uint256 i = 0; i < length; i = uncheckedInc(i)) {... */\n    tag_74:\n        /* \"EAS/SchemaResolver.sol\":2188:2194  length */\n      dup3\n        /* \"EAS/SchemaResolver.sol\":2184:2185  i */\n      dup2\n        /* \"EAS/SchemaResolver.sol\":2184:2194  i < length */\n      lt\n        /* \"EAS/SchemaResolver.sol\":2164:2866  for (uint256 i = 0; i < length; i = uncheckedInc(i)) {... */\n      iszero\n      tag_75\n      jumpi\n        /* \"EAS/SchemaResolver.sol\":2321:2334  uint256 value */\n      0x00\n        /* \"EAS/SchemaResolver.sol\":2337:2343  values */\n      dup7\n      dup7\n        /* \"EAS/SchemaResolver.sol\":2344:2345  i */\n      dup4\n        /* \"EAS/SchemaResolver.sol\":2337:2346  values[i] */\n      dup2\n      dup2\n      lt\n      tag_77\n      jumpi\n      tag_78\n      tag_59\n      jump\t// in\n    tag_78:\n    tag_77:\n      swap1\n      pop\n      0x20\n      mul\n      add\n      calldataload\n        /* \"EAS/SchemaResolver.sol\":2321:2346  uint256 value = values[i] */\n      swap1\n      pop\n        /* \"EAS/SchemaResolver.sol\":2372:2386  remainingValue */\n      dup3\n        /* \"EAS/SchemaResolver.sol\":2364:2369  value */\n      dup2\n        /* \"EAS/SchemaResolver.sol\":2364:2386  value > remainingValue */\n      gt\n        /* \"EAS/SchemaResolver.sol\":2360:2447  if (value > remainingValue) {... */\n      iszero\n      tag_79\n      jumpi\n        /* \"EAS/SchemaResolver.sol\":2413:2432  InsufficientValue() */\n      mload(0x40)\n      0x1101129400000000000000000000000000000000000000000000000000000000\n      dup2\n      mstore\n      0x04\n      add\n      mload(0x40)\n      dup1\n      swap2\n      sub\n      swap1\n      revert\n        /* \"EAS/SchemaResolver.sol\":2360:2447  if (value > remainingValue) {... */\n    tag_79:\n        /* \"EAS/SchemaResolver.sol\":2576:2608  onAttest(attestations[i], value) */\n      tag_80\n        /* \"EAS/SchemaResolver.sol\":2585:2597  attestations */\n      dup10\n      dup10\n        /* \"EAS/SchemaResolver.sol\":2598:2599  i */\n      dup5\n        /* \"EAS/SchemaResolver.sol\":2585:2600  attestations[i] */\n      dup2\n      dup2\n      lt\n      tag_81\n      jumpi\n      tag_82\n      tag_59\n      jump\t// in\n    tag_82:\n    tag_81:\n      swap1\n      pop\n      0x20\n      mul\n      dup2\n      add\n      swap1\n      tag_83\n      swap2\n      swap1\n      tag_65\n      jump\t// in\n    tag_83:\n        /* \"EAS/SchemaResolver.sol\":2602:2607  value */\n      dup3\n        /* \"EAS/SchemaResolver.sol\":2576:2584  onAttest */\n      tag_84\n        /* \"EAS/SchemaResolver.sol\":2576:2608  onAttest(attestations[i], value) */\n      jump\t// in\n    tag_80:\n        /* \"EAS/SchemaResolver.sol\":2571:2655  if (!onAttest(attestations[i], value)) {... */\n      tag_85\n      jumpi\n        /* \"EAS/SchemaResolver.sol\":2635:2640  false */\n      0x00\n        /* \"EAS/SchemaResolver.sol\":2628:2640  return false */\n      swap5\n      pop\n      pop\n      pop\n      pop\n      pop\n      jump(tag_72)\n        /* \"EAS/SchemaResolver.sol\":2571:2655  if (!onAttest(attestations[i], value)) {... */\n    tag_85:\n        /* \"EAS/SchemaResolver.sol\":2836:2841  value */\n      dup1\n        /* \"EAS/SchemaResolver.sol\":2818:2841  remainingValue -= value */\n      dup4\n      sub\n      swap3\n      pop\n        /* \"EAS/SchemaResolver.sol\":2217:2866  {... */\n      pop\n        /* \"EAS/SchemaResolver.sol\":2200:2215  uncheckedInc(i) */\n      tag_86\n        /* \"EAS/SchemaResolver.sol\":2213:2214  i */\n      dup2\n        /* \"EAS/SchemaResolver.sol\":2200:2212  uncheckedInc */\n      tag_69\n        /* \"EAS/SchemaResolver.sol\":2200:2215  uncheckedInc(i) */\n      jump\t// in\n    tag_86:\n        /* \"EAS/SchemaResolver.sol\":2196:2215  i = uncheckedInc(i) */\n      swap1\n      pop\n        /* \"EAS/SchemaResolver.sol\":2164:2866  for (uint256 i = 0; i < length; i = uncheckedInc(i)) {... */\n      jump(tag_74)\n    tag_75:\n      pop\n        /* \"EAS/SchemaResolver.sol\":2883:2887  true */\n      0x01\n        /* \"EAS/SchemaResolver.sol\":2876:2887  return true */\n      swap3\n      pop\n      pop\n      pop\n        /* \"EAS/SchemaResolver.sol\":922:923  _ */\n    tag_72:\n        /* \"EAS/SchemaResolver.sol\":1433:2894  function multiAttest(... */\n      swap5\n      swap4\n      pop\n      pop\n      pop\n      pop\n      jump\t// out\n        /* \"EAS/SchemaResolver.sol\":2936:3082  function revoke(Attestation calldata attestation) external payable onlyEAS returns (bool) {... */\n    tag_35:\n        /* \"EAS/SchemaResolver.sol\":3020:3024  bool */\n      0x00\n        /* \"EAS/SchemaResolver.sol\":901:911  _onlyEAS() */\n      tag_88\n        /* \"EAS/SchemaResolver.sol\":901:909  _onlyEAS */\n      tag_51\n        /* \"EAS/SchemaResolver.sol\":901:911  _onlyEAS() */\n      jump\t// in\n    tag_88:\n        /* \"EAS/SchemaResolver.sol\":3043:3075  onRevoke(attestation, msg.value) */\n      tag_90\n        /* \"EAS/SchemaResolver.sol\":3052:3063  attestation */\n      dup3\n        /* \"EAS/SchemaResolver.sol\":3065:3074  msg.value */\n      callvalue\n        /* \"EAS/SchemaResolver.sol\":3043:3051  onRevoke */\n      tag_66\n        /* \"EAS/SchemaResolver.sol\":3043:3075  onRevoke(attestation, msg.value) */\n      jump\t// in\n    tag_90:\n        /* \"EAS/SchemaResolver.sol\":3036:3075  return onRevoke(attestation, msg.value) */\n      swap1\n      pop\n        /* \"EAS/SchemaResolver.sol\":2936:3082  function revoke(Attestation calldata attestation) external payable onlyEAS returns (bool) {... */\n      swap2\n      swap1\n      pop\n      jump\t// out\n        /* \"EAS/SchemaResolver.sol\":1245:1391  function attest(Attestation calldata attestation) external payable onlyEAS returns (bool) {... */\n    tag_39:\n        /* \"EAS/SchemaResolver.sol\":1329:1333  bool */\n      0x00\n        /* \"EAS/SchemaResolver.sol\":901:911  _onlyEAS() */\n      tag_92\n        /* \"EAS/SchemaResolver.sol\":901:909  _onlyEAS */\n      tag_51\n        /* \"EAS/SchemaResolver.sol\":901:911  _onlyEAS() */\n      jump\t// in\n    tag_92:\n        /* \"EAS/SchemaResolver.sol\":1352:1384  onAttest(attestation, msg.value) */\n      tag_94\n        /* \"EAS/SchemaResolver.sol\":1361:1372  attestation */\n      dup3\n        /* \"EAS/SchemaResolver.sol\":1374:1383  msg.value */\n      callvalue\n        /* \"EAS/SchemaResolver.sol\":1352:1360  onAttest */\n      tag_84\n        /* \"EAS/SchemaResolver.sol\":1352:1384  onAttest(attestation, msg.value) */\n      jump\t// in\n    tag_94:\n        /* \"EAS/SchemaResolver.sol\":1345:1384  return onAttest(attestation, msg.value) */\n      swap1\n      pop\n        /* \"EAS/SchemaResolver.sol\":1245:1391  function attest(Attestation calldata attestation) external payable onlyEAS returns (bool) {... */\n      swap2\n      swap1\n      pop\n      jump\t// out\n        /* \"@openzeppelin/contracts/utils/Strings.sol\":637:1335  function toString(uint256 value) internal pure returns (string memory) {... */\n    tag_44:\n        /* \"@openzeppelin/contracts/utils/Strings.sol\":693:706  string memory */\n      0x60\n        /* \"@openzeppelin/contracts/utils/Strings.sol\":742:756  uint256 length */\n      0x00\n        /* \"@openzeppelin/contracts/utils/Strings.sol\":779:780  1 */\n      0x01\n        /* \"@openzeppelin/contracts/utils/Strings.sol\":759:776  Math.log10(value) */\n      tag_96\n        /* \"@openzeppelin/contracts/utils/Strings.sol\":770:775  value */\n      dup5\n        /* \"@openzeppelin/contracts/utils/Strings.sol\":759:769  Math.log10 */\n      tag_97\n        /* \"@openzeppelin/contracts/utils/Strings.sol\":759:776  Math.log10(value) */\n      jump\t// in\n    tag_96:\n        /* \"@openzeppelin/contracts/utils/Strings.sol\":759:780  Math.log10(value) + 1 */\n      add\n        /* \"@openzeppelin/contracts/utils/Strings.sol\":742:780  uint256 length = Math.log10(value) + 1 */\n      swap1\n      pop\n        /* \"@openzeppelin/contracts/utils/Strings.sol\":794:814  string memory buffer */\n      0x00\n        /* \"@openzeppelin/contracts/utils/Strings.sol\":828:834  length */\n      dup2\n        /* \"@openzeppelin/contracts/utils/Strings.sol\":817:835  new string(length) */\n      0xffffffffffffffff\n      dup2\n      gt\n      iszero\n      tag_98\n      jumpi\n      tag_99\n      tag_100\n      jump\t// in\n    tag_99:\n    tag_98:\n      mload(0x40)\n      swap1\n      dup1\n      dup3\n      mstore\n      dup1\n      0x1f\n      add\n      not(0x1f)\n      and\n      0x20\n      add\n      dup3\n      add\n      0x40\n      mstore\n      dup1\n      iszero\n      tag_101\n      jumpi\n      dup2\n      0x20\n      add\n      0x01\n      dup3\n      mul\n      dup1\n      calldatasize\n      dup4\n      calldatacopy\n      dup1\n      dup3\n      add\n      swap2\n      pop\n      pop\n      swap1\n      pop\n    tag_101:\n      pop\n        /* \"@openzeppelin/contracts/utils/Strings.sol\":794:835  string memory buffer = new string(length) */\n      swap1\n      pop\n        /* \"@openzeppelin/contracts/utils/Strings.sol\":849:860  uint256 ptr */\n      0x00\n        /* \"@openzeppelin/contracts/utils/Strings.sol\":975:981  length */\n      dup3\n        /* \"@openzeppelin/contracts/utils/Strings.sol\":971:973  32 */\n      0x20\n        /* \"@openzeppelin/contracts/utils/Strings.sol\":967:982  add(32, length) */\n      add\n        /* \"@openzeppelin/contracts/utils/Strings.sol\":959:965  buffer */\n      dup3\n        /* \"@openzeppelin/contracts/utils/Strings.sol\":955:983  add(buffer, add(32, length)) */\n      add\n        /* \"@openzeppelin/contracts/utils/Strings.sol\":948:983  ptr := add(buffer, add(32, length)) */\n      swap1\n      pop\n        /* \"@openzeppelin/contracts/utils/Strings.sol\":1010:1292  while (true) {... */\n    tag_102:\n        /* \"@openzeppelin/contracts/utils/Strings.sol\":1017:1021  true */\n      0x01\n        /* \"@openzeppelin/contracts/utils/Strings.sol\":1010:1292  while (true) {... */\n      iszero\n      tag_103\n      jumpi\n        /* \"@openzeppelin/contracts/utils/Strings.sol\":1041:1046  ptr-- */\n      dup1\n      dup1\n      0x01\n      swap1\n      sub\n      swap2\n      pop\n      pop\n        /* \"@openzeppelin/contracts/utils/Strings.sol\":1180:1190  HEX_DIGITS */\n      0x3031323334353637383961626364656600000000000000000000000000000000\n        /* \"@openzeppelin/contracts/utils/Strings.sol\":1175:1177  10 */\n      0x0a\n        /* \"@openzeppelin/contracts/utils/Strings.sol\":1168:1173  value */\n      dup7\n        /* \"@openzeppelin/contracts/utils/Strings.sol\":1164:1178  mod(value, 10) */\n      mod\n        /* \"@openzeppelin/contracts/utils/Strings.sol\":1159:1191  byte(mod(value, 10), HEX_DIGITS) */\n      byte\n        /* \"@openzeppelin/contracts/utils/Strings.sol\":1154:1157  ptr */\n      dup2\n        /* \"@openzeppelin/contracts/utils/Strings.sol\":1146:1192  mstore8(ptr, byte(mod(value, 10), HEX_DIGITS)) */\n      mstore8\n        /* \"@openzeppelin/contracts/utils/Strings.sol\":1236:1238  10 */\n      0x0a\n        /* \"@openzeppelin/contracts/utils/Strings.sol\":1227:1238  value /= 10 */\n      dup6\n      dup2\n      tag_104\n      jumpi\n      tag_105\n      tag_106\n      jump\t// in\n    tag_105:\n    tag_104:\n      div\n      swap5\n      pop\n        /* \"@openzeppelin/contracts/utils/Strings.sol\":1269:1270  0 */\n      0x00\n        /* \"@openzeppelin/contracts/utils/Strings.sol\":1260:1265  value */\n      dup6\n        /* \"@openzeppelin/contracts/utils/Strings.sol\":1260:1270  value == 0 */\n      sub\n        /* \"@openzeppelin/contracts/utils/Strings.sol\":1010:1292  while (true) {... */\n      tag_102\n        /* \"@openzeppelin/contracts/utils/Strings.sol\":1256:1277  if (value == 0) break */\n      jumpi\n        /* \"@openzeppelin/contracts/utils/Strings.sol\":1010:1292  while (true) {... */\n    tag_103:\n        /* \"@openzeppelin/contracts/utils/Strings.sol\":1312:1318  buffer */\n      dup2\n        /* \"@openzeppelin/contracts/utils/Strings.sol\":1305:1318  return buffer */\n      swap4\n      pop\n      pop\n      pop\n      pop\n        /* \"@openzeppelin/contracts/utils/Strings.sol\":637:1335  function toString(uint256 value) internal pure returns (string memory) {... */\n      swap2\n      swap1\n      pop\n      jump\t// out\n        /* \"EAS/SchemaResolver.sol\":6031:6159  function _onlyEAS() private view {... */\n    tag_51:\n        /* \"EAS/SchemaResolver.sol\":6100:6104  _eas */\n      immutable(\"0xc775df1a7e57e4ddca9708a57c092ca399c892894e875f640af011da3d066949\")\n        /* \"EAS/SchemaResolver.sol\":6078:6105  msg.sender != address(_eas) */\n      0xffffffffffffffffffffffffffffffffffffffff\n      and\n        /* \"EAS/SchemaResolver.sol\":6078:6088  msg.sender */\n      caller\n        /* \"EAS/SchemaResolver.sol\":6078:6105  msg.sender != address(_eas) */\n      0xffffffffffffffffffffffffffffffffffffffff\n      and\n      eq\n        /* \"EAS/SchemaResolver.sol\":6074:6153  if (msg.sender != address(_eas)) {... */\n      tag_109\n      jumpi\n        /* \"EAS/SchemaResolver.sol\":6128:6142  AccessDenied() */\n      mload(0x40)\n      0x4ca8886700000000000000000000000000000000000000000000000000000000\n      dup2\n      mstore\n      0x04\n      add\n      mload(0x40)\n      dup1\n      swap2\n      sub\n      swap1\n      revert\n        /* \"EAS/SchemaResolver.sol\":6074:6153  if (msg.sender != address(_eas)) {... */\n    tag_109:\n        /* \"EAS/SchemaResolver.sol\":6031:6159  function _onlyEAS() private view {... */\n      jump\t// out\n        /* \"ownable-resolver.sol\":2268:2409  function onRevoke(Attestation calldata /*attestation*/, uint256 /*value*/) internal pure override returns (bool) {... */\n    tag_66:\n        /* \"ownable-resolver.sol\":2375:2379  bool */\n      0x00\n        /* \"ownable-resolver.sol\":2398:2402  true */\n      0x01\n        /* \"ownable-resolver.sol\":2391:2402  return true */\n      swap1\n      pop\n        /* \"ownable-resolver.sol\":2268:2409  function onRevoke(Attestation calldata /*attestation*/, uint256 /*value*/) internal pure override returns (bool) {... */\n      swap3\n      swap2\n      pop\n      pop\n      jump\t// out\n        /* \"EAS/Common.sol\":1397:1499  function uncheckedInc(uint256 i) pure returns (uint256 j) {... */\n    tag_69:\n        /* \"EAS/Common.sol\":1444:1453  uint256 j */\n      0x00\n        /* \"EAS/Common.sol\":1489:1490  1 */\n      0x01\n        /* \"EAS/Common.sol\":1485:1486  i */\n      dup3\n        /* \"EAS/Common.sol\":1485:1490  i + 1 */\n      add\n        /* \"EAS/Common.sol\":1481:1490  j = i + 1 */\n      swap1\n      pop\n        /* \"EAS/Common.sol\":1397:1499  function uncheckedInc(uint256 i) pure returns (uint256 j) {... */\n      swap2\n      swap1\n      pop\n      jump\t// out\n        /* \"ownable-resolver.sol\":450:1642  function onAttest(Attestation calldata attestation, uint256 /*value*/) internal view override returns (bool) {... */\n    tag_84:\n        /* \"ownable-resolver.sol\":553:557  bool */\n      0x00\n        /* \"ownable-resolver.sol\":697:698  0 */\n      dup1\n        /* \"ownable-resolver.sol\":664:699  attestation.recipient == address(0) */\n      0xffffffffffffffffffffffffffffffffffffffff\n      and\n        /* \"ownable-resolver.sol\":664:675  attestation */\n      dup4\n        /* \"ownable-resolver.sol\":664:685  attestation.recipient */\n      0xc0\n      add\n      0x20\n      dup2\n      add\n      swap1\n      tag_113\n      swap2\n      swap1\n      tag_114\n      jump\t// in\n    tag_113:\n        /* \"ownable-resolver.sol\":664:699  attestation.recipient == address(0) */\n      0xffffffffffffffffffffffffffffffffffffffff\n      and\n      sub\n        /* \"ownable-resolver.sol\":660:737  if (attestation.recipient == address(0)) {... */\n      tag_115\n      jumpi\n        /* \"ownable-resolver.sol\":722:726  true */\n      0x01\n        /* \"ownable-resolver.sol\":715:726  return true */\n      swap1\n      pop\n      jump(tag_112)\n        /* \"ownable-resolver.sol\":660:737  if (attestation.recipient == address(0)) {... */\n    tag_115:\n        /* \"ownable-resolver.sol\":848:849  0 */\n      0x00\n        /* \"ownable-resolver.sol\":811:822  attestation */\n      dup4\n        /* \"ownable-resolver.sol\":811:832  attestation.recipient */\n      0xc0\n      add\n      0x20\n      dup2\n      add\n      swap1\n      tag_116\n      swap2\n      swap1\n      tag_114\n      jump\t// in\n    tag_116:\n        /* \"ownable-resolver.sol\":811:844  attestation.recipient.code.length */\n      0xffffffffffffffffffffffffffffffffffffffff\n      and\n      extcodesize\n        /* \"ownable-resolver.sol\":811:849  attestation.recipient.code.length == 0 */\n      sub\n        /* \"ownable-resolver.sol\":807:888  if (attestation.recipient.code.length == 0) {... */\n      tag_117\n      jumpi\n        /* \"ownable-resolver.sol\":872:877  false */\n      0x00\n        /* \"ownable-resolver.sol\":865:877  return false */\n      swap1\n      pop\n      jump(tag_112)\n        /* \"ownable-resolver.sol\":807:888  if (attestation.recipient.code.length == 0) {... */\n    tag_117:\n        /* \"ownable-resolver.sol\":954:970  address _address */\n      0x00\n        /* \"ownable-resolver.sol\":973:1013  extractAddressFromData(attestation.data) */\n      tag_118\n        /* \"ownable-resolver.sol\":996:1007  attestation */\n      dup5\n        /* \"ownable-resolver.sol\":996:1012  attestation.data */\n      dup1\n      0x0120\n      add\n      swap1\n      tag_119\n      swap2\n      swap1\n      tag_120\n      jump\t// in\n    tag_119:\n        /* \"ownable-resolver.sol\":973:1013  extractAddressFromData(attestation.data) */\n      dup1\n      dup1\n      0x1f\n      add\n      0x20\n      dup1\n      swap2\n      div\n      mul\n      0x20\n      add\n      mload(0x40)\n      swap1\n      dup2\n      add\n      0x40\n      mstore\n      dup1\n      swap4\n      swap3\n      swap2\n      swap1\n      dup2\n      dup2\n      mstore\n      0x20\n      add\n      dup4\n      dup4\n      dup1\n      dup3\n      dup5\n      calldatacopy\n      0x00\n      dup2\n      dup5\n      add\n      mstore\n      not(0x1f)\n      0x1f\n      dup3\n      add\n      and\n      swap1\n      pop\n      dup1\n      dup4\n      add\n      swap3\n      pop\n      pop\n      pop\n      pop\n      pop\n      pop\n      pop\n        /* \"ownable-resolver.sol\":973:995  extractAddressFromData */\n      tag_121\n        /* \"ownable-resolver.sol\":973:1013  extractAddressFromData(attestation.data) */\n      jump\t// in\n    tag_118:\n        /* \"ownable-resolver.sol\":954:1013  address _address = extractAddressFromData(attestation.data) */\n      swap1\n      pop\n        /* \"ownable-resolver.sol\":1153:1161  _address */\n      dup1\n        /* \"ownable-resolver.sol\":1128:1161  attestation.recipient != _address */\n      0xffffffffffffffffffffffffffffffffffffffff\n      and\n        /* \"ownable-resolver.sol\":1128:1139  attestation */\n      dup5\n        /* \"ownable-resolver.sol\":1128:1149  attestation.recipient */\n      0xc0\n      add\n      0x20\n      dup2\n      add\n      swap1\n      tag_122\n      swap2\n      swap1\n      tag_114\n      jump\t// in\n    tag_122:\n        /* \"ownable-resolver.sol\":1128:1161  attestation.recipient != _address */\n      0xffffffffffffffffffffffffffffffffffffffff\n      and\n      eq\n        /* \"ownable-resolver.sol\":1124:1200  if (attestation.recipient != _address) {... */\n      tag_123\n      jumpi\n        /* \"ownable-resolver.sol\":1184:1189  false */\n      0x00\n        /* \"ownable-resolver.sol\":1177:1189  return false */\n      swap2\n      pop\n      pop\n      jump(tag_112)\n        /* \"ownable-resolver.sol\":1124:1200  if (attestation.recipient != _address) {... */\n    tag_123:\n        /* \"ownable-resolver.sol\":1266:1289  Ownable ownableContract */\n      0x00\n        /* \"ownable-resolver.sol\":1300:1311  attestation */\n      dup5\n        /* \"ownable-resolver.sol\":1300:1321  attestation.recipient */\n      0xc0\n      add\n      0x20\n      dup2\n      add\n      swap1\n      tag_124\n      swap2\n      swap1\n      tag_114\n      jump\t// in\n    tag_124:\n        /* \"ownable-resolver.sol\":1266:1322  Ownable ownableContract = Ownable(attestation.recipient) */\n      swap1\n      pop\n        /* \"ownable-resolver.sol\":1337:1352  ownableContract */\n      dup1\n        /* \"ownable-resolver.sol\":1337:1358  ownableContract.owner */\n      0xffffffffffffffffffffffffffffffffffffffff\n      and\n      0x8da5cb5b\n        /* \"ownable-resolver.sol\":1337:1360  ownableContract.owner() */\n      mload(0x40)\n      dup2\n      0xffffffff\n      and\n      0xe0\n      shl\n      dup2\n      mstore\n      0x04\n      add\n      0x20\n      mload(0x40)\n      dup1\n      dup4\n      sub\n      dup2\n      dup7\n      gas\n      staticcall\n      swap3\n      pop\n      pop\n      pop\n      dup1\n      iszero\n      tag_125\n      jumpi\n      pop\n      mload(0x40)\n      returndatasize\n      not(0x1f)\n      0x1f\n      dup3\n      add\n      and\n      dup3\n      add\n      dup1\n      0x40\n      mstore\n      pop\n      dup2\n      add\n      swap1\n      tag_126\n      swap2\n      swap1\n      tag_127\n      jump\t// in\n    tag_126:\n      0x01\n    tag_125:\n        /* \"ownable-resolver.sol\":1333:1636  try ownableContract.owner() returns (address owner) {... */\n      tag_128\n      jumpi\n        /* \"ownable-resolver.sol\":1620:1625  false */\n      0x00\n        /* \"ownable-resolver.sol\":1613:1625  return false */\n      swap3\n      pop\n      pop\n      pop\n      jump(tag_112)\n        /* \"ownable-resolver.sol\":1333:1636  try ownableContract.owner() returns (address owner) {... */\n    tag_128:\n        /* \"ownable-resolver.sol\":1494:1499  owner */\n      dup1\n        /* \"ownable-resolver.sol\":1470:1499  attestation.attester == owner */\n      0xffffffffffffffffffffffffffffffffffffffff\n      and\n        /* \"ownable-resolver.sol\":1470:1481  attestation */\n      dup7\n        /* \"ownable-resolver.sol\":1470:1490  attestation.attester */\n      0xe0\n      add\n      0x20\n      dup2\n      add\n      swap1\n      tag_133\n      swap2\n      swap1\n      tag_114\n      jump\t// in\n    tag_133:\n        /* \"ownable-resolver.sol\":1470:1499  attestation.attester == owner */\n      0xffffffffffffffffffffffffffffffffffffffff\n      and\n      eq\n        /* \"ownable-resolver.sol\":1463:1499  return attestation.attester == owner */\n      swap4\n      pop\n      pop\n      pop\n      pop\n        /* \"ownable-resolver.sol\":450:1642  function onAttest(Attestation calldata attestation, uint256 /*value*/) internal view override returns (bool) {... */\n    tag_112:\n      swap3\n      swap2\n      pop\n      pop\n      jump\t// out\n        /* \"@openzeppelin/contracts/utils/math/Math.sol\":12214:13130  function log10(uint256 value) internal pure returns (uint256) {... */\n    tag_97:\n        /* \"@openzeppelin/contracts/utils/math/Math.sol\":12267:12274  uint256 */\n      0x00\n        /* \"@openzeppelin/contracts/utils/math/Math.sol\":12286:12300  uint256 result */\n      dup1\n        /* \"@openzeppelin/contracts/utils/math/Math.sol\":12303:12304  0 */\n      0x00\n        /* \"@openzeppelin/contracts/utils/math/Math.sol\":12286:12304  uint256 result = 0 */\n      swap1\n      pop\n        /* \"@openzeppelin/contracts/utils/math/Math.sol\":12351:12359  10 ** 64 */\n      0x184f03e93ff9f4daa797ed6e38ed64bf6a1f010000000000000000\n        /* \"@openzeppelin/contracts/utils/math/Math.sol\":12342:12347  value */\n      dup4\n        /* \"@openzeppelin/contracts/utils/math/Math.sol\":12342:12359  value >= 10 ** 64 */\n      lt\n        /* \"@openzeppelin/contracts/utils/math/Math.sol\":12338:12441  if (value >= 10 ** 64) {... */\n      tag_135\n      jumpi\n        /* \"@openzeppelin/contracts/utils/math/Math.sol\":12388:12396  10 ** 64 */\n      0x184f03e93ff9f4daa797ed6e38ed64bf6a1f010000000000000000\n        /* \"@openzeppelin/contracts/utils/math/Math.sol\":12379:12396  value /= 10 ** 64 */\n      dup4\n      dup2\n      tag_136\n      jumpi\n      tag_137\n      tag_106\n      jump\t// in\n    tag_137:\n    tag_136:\n      div\n      swap3\n      pop\n        /* \"@openzeppelin/contracts/utils/math/Math.sol\":12424:12426  64 */\n      0x40\n        /* \"@openzeppelin/contracts/utils/math/Math.sol\":12414:12426  result += 64 */\n      dup2\n      add\n      swap1\n      pop\n        /* \"@openzeppelin/contracts/utils/math/Math.sol\":12338:12441  if (value >= 10 ** 64) {... */\n    tag_135:\n        /* \"@openzeppelin/contracts/utils/math/Math.sol\":12467:12475  10 ** 32 */\n      0x04ee2d6d415b85acef8100000000\n        /* \"@openzeppelin/contracts/utils/math/Math.sol\":12458:12463  value */\n      dup4\n        /* \"@openzeppelin/contracts/utils/math/Math.sol\":12458:12475  value >= 10 ** 32 */\n      lt\n        /* \"@openzeppelin/contracts/utils/math/Math.sol\":12454:12557  if (value >= 10 ** 32) {... */\n      tag_138\n      jumpi\n        /* \"@openzeppelin/contracts/utils/math/Math.sol\":12504:12512  10 ** 32 */\n      0x04ee2d6d415b85acef8100000000\n        /* \"@openzeppelin/contracts/utils/math/Math.sol\":12495:12512  value /= 10 ** 32 */\n      dup4\n      dup2\n      tag_139\n      jumpi\n      tag_140\n      tag_106\n      jump\t// in\n    tag_140:\n    tag_139:\n      div\n      swap3\n      pop\n        /* \"@openzeppelin/contracts/utils/math/Math.sol\":12540:12542  32 */\n      0x20\n        /* \"@openzeppelin/contracts/utils/math/Math.sol\":12530:12542  result += 32 */\n      dup2\n      add\n      swap1\n      pop\n        /* \"@openzeppelin/contracts/utils/math/Math.sol\":12454:12557  if (value >= 10 ** 32) {... */\n    tag_138:\n        /* \"@openzeppelin/contracts/utils/math/Math.sol\":12583:12591  10 ** 16 */\n      0x2386f26fc10000\n        /* \"@openzeppelin/contracts/utils/math/Math.sol\":12574:12579  value */\n      dup4\n        /* \"@openzeppelin/contracts/utils/math/Math.sol\":12574:12591  value >= 10 ** 16 */\n      lt\n        /* \"@openzeppelin/contracts/utils/math/Math.sol\":12570:12673  if (value >= 10 ** 16) {... */\n      tag_141\n      jumpi\n        /* \"@openzeppelin/contracts/utils/math/Math.sol\":12620:12628  10 ** 16 */\n      0x2386f26fc10000\n        /* \"@openzeppelin/contracts/utils/math/Math.sol\":12611:12628  value /= 10 ** 16 */\n      dup4\n      dup2\n      tag_142\n      jumpi\n      tag_143\n      tag_106\n      jump\t// in\n    tag_143:\n    tag_142:\n      div\n      swap3\n      pop\n        /* \"@openzeppelin/contracts/utils/math/Math.sol\":12656:12658  16 */\n      0x10\n        /* \"@openzeppelin/contracts/utils/math/Math.sol\":12646:12658  result += 16 */\n      dup2\n      add\n      swap1\n      pop\n        /* \"@openzeppelin/contracts/utils/math/Math.sol\":12570:12673  if (value >= 10 ** 16) {... */\n    tag_141:\n        /* \"@openzeppelin/contracts/utils/math/Math.sol\":12699:12706  10 ** 8 */\n      0x05f5e100\n        /* \"@openzeppelin/contracts/utils/math/Math.sol\":12690:12695  value */\n      dup4\n        /* \"@openzeppelin/contracts/utils/math/Math.sol\":12690:12706  value >= 10 ** 8 */\n      lt\n        /* \"@openzeppelin/contracts/utils/math/Math.sol\":12686:12786  if (value >= 10 ** 8) {... */\n      tag_144\n      jumpi\n        /* \"@openzeppelin/contracts/utils/math/Math.sol\":12735:12742  10 ** 8 */\n      0x05f5e100\n        /* \"@openzeppelin/contracts/utils/math/Math.sol\":12726:12742  value /= 10 ** 8 */\n      dup4\n      dup2\n      tag_145\n      jumpi\n      tag_146\n      tag_106\n      jump\t// in\n    tag_146:\n    tag_145:\n      div\n      swap3\n      pop\n        /* \"@openzeppelin/contracts/utils/math/Math.sol\":12770:12771  8 */\n      0x08\n        /* \"@openzeppelin/contracts/utils/math/Math.sol\":12760:12771  result += 8 */\n      dup2\n      add\n      swap1\n      pop\n        /* \"@openzeppelin/contracts/utils/math/Math.sol\":12686:12786  if (value >= 10 ** 8) {... */\n    tag_144:\n        /* \"@openzeppelin/contracts/utils/math/Math.sol\":12812:12819  10 ** 4 */\n      0x2710\n        /* \"@openzeppelin/contracts/utils/math/Math.sol\":12803:12808  value */\n      dup4\n        /* \"@openzeppelin/contracts/utils/math/Math.sol\":12803:12819  value >= 10 ** 4 */\n      lt\n        /* \"@openzeppelin/contracts/utils/math/Math.sol\":12799:12899  if (value >= 10 ** 4) {... */\n      tag_147\n      jumpi\n        /* \"@openzeppelin/contracts/utils/math/Math.sol\":12848:12855  10 ** 4 */\n      0x2710\n        /* \"@openzeppelin/contracts/utils/math/Math.sol\":12839:12855  value /= 10 ** 4 */\n      dup4\n      dup2\n      tag_148\n      jumpi\n      tag_149\n      tag_106\n      jump\t// in\n    tag_149:\n    tag_148:\n      div\n      swap3\n      pop\n        /* \"@openzeppelin/contracts/utils/math/Math.sol\":12883:12884  4 */\n      0x04\n        /* \"@openzeppelin/contracts/utils/math/Math.sol\":12873:12884  result += 4 */\n      dup2\n      add\n      swap1\n      pop\n        /* \"@openzeppelin/contracts/utils/math/Math.sol\":12799:12899  if (value >= 10 ** 4) {... */\n    tag_147:\n        /* \"@openzeppelin/contracts/utils/math/Math.sol\":12925:12932  10 ** 2 */\n      0x64\n        /* \"@openzeppelin/contracts/utils/math/Math.sol\":12916:12921  value */\n      dup4\n        /* \"@openzeppelin/contracts/utils/math/Math.sol\":12916:12932  value >= 10 ** 2 */\n      lt\n        /* \"@openzeppelin/contracts/utils/math/Math.sol\":12912:13012  if (value >= 10 ** 2) {... */\n      tag_150\n      jumpi\n        /* \"@openzeppelin/contracts/utils/math/Math.sol\":12961:12968  10 ** 2 */\n      0x64\n        /* \"@openzeppelin/contracts/utils/math/Math.sol\":12952:12968  value /= 10 ** 2 */\n      dup4\n      dup2\n      tag_151\n      jumpi\n      tag_152\n      tag_106\n      jump\t// in\n    tag_152:\n    tag_151:\n      div\n      swap3\n      pop\n        /* \"@openzeppelin/contracts/utils/math/Math.sol\":12996:12997  2 */\n      0x02\n        /* \"@openzeppelin/contracts/utils/math/Math.sol\":12986:12997  result += 2 */\n      dup2\n      add\n      swap1\n      pop\n        /* \"@openzeppelin/contracts/utils/math/Math.sol\":12912:13012  if (value >= 10 ** 2) {... */\n    tag_150:\n        /* \"@openzeppelin/contracts/utils/math/Math.sol\":13038:13045  10 ** 1 */\n      0x0a\n        /* \"@openzeppelin/contracts/utils/math/Math.sol\":13029:13034  value */\n      dup4\n        /* \"@openzeppelin/contracts/utils/math/Math.sol\":13029:13045  value >= 10 ** 1 */\n      lt\n        /* \"@openzeppelin/contracts/utils/math/Math.sol\":13025:13091  if (value >= 10 ** 1) {... */\n      tag_153\n      jumpi\n        /* \"@openzeppelin/contracts/utils/math/Math.sol\":13075:13076  1 */\n      0x01\n        /* \"@openzeppelin/contracts/utils/math/Math.sol\":13065:13076  result += 1 */\n      dup2\n      add\n      swap1\n      pop\n        /* \"@openzeppelin/contracts/utils/math/Math.sol\":13025:13091  if (value >= 10 ** 1) {... */\n    tag_153:\n        /* \"@openzeppelin/contracts/utils/math/Math.sol\":13117:13123  result */\n      dup1\n        /* \"@openzeppelin/contracts/utils/math/Math.sol\":13110:13123  return result */\n      swap2\n      pop\n      pop\n        /* \"@openzeppelin/contracts/utils/math/Math.sol\":12214:13130  function log10(uint256 value) internal pure returns (uint256) {... */\n      swap2\n      swap1\n      pop\n      jump\t// out\n        /* \"ownable-resolver.sol\":1648:2261  function extractAddressFromData(bytes memory data) internal pure returns (address) {... */\n    tag_121:\n        /* \"ownable-resolver.sol\":1722:1729  address */\n      0x00\n        /* \"ownable-resolver.sol\":1764:1766  32 */\n      0x20\n        /* \"ownable-resolver.sol\":1749:1753  data */\n      dup3\n        /* \"ownable-resolver.sol\":1749:1760  data.length */\n      mload\n        /* \"ownable-resolver.sol\":1749:1766  data.length >= 32 */\n      lt\n      iszero\n        /* \"ownable-resolver.sol\":1741:1785  require(data.length >= 32, \"Data too short\") */\n      tag_155\n      jumpi\n      mload(0x40)\n      0x08c379a000000000000000000000000000000000000000000000000000000000\n      dup2\n      mstore\n      0x04\n      add\n      tag_156\n      swap1\n      tag_157\n      jump\t// in\n    tag_156:\n      mload(0x40)\n      dup1\n      swap2\n      sub\n      swap1\n      revert\n    tag_155:\n        /* \"ownable-resolver.sol\":1897:1921  address extractedAddress */\n      0x00\n        /* \"ownable-resolver.sol\":1990:1992  32 */\n      0x20\n        /* \"ownable-resolver.sol\":1984:1988  data */\n      dup4\n        /* \"ownable-resolver.sol\":1980:1993  add(data, 32) */\n      add\n        /* \"ownable-resolver.sol\":1974:1994  mload(add(data, 32)) */\n      mload\n        /* \"ownable-resolver.sol\":1954:1994  extractedAddress := mload(add(data, 32)) */\n      swap1\n      pop\n        /* \"ownable-resolver.sol\":2118:2160  0xFFFFFFFFFFFFFFFFFFFFFFFFFFFFFFFFFFFFFFFF */\n      0xffffffffffffffffffffffffffffffffffffffff\n        /* \"ownable-resolver.sol\":2100:2116  extractedAddress */\n      dup2\n        /* \"ownable-resolver.sol\":2096:2161  and(extractedAddress, 0xFFFFFFFFFFFFFFFFFFFFFFFFFFFFFFFFFFFFFFFF) */\n      and\n        /* \"ownable-resolver.sol\":2076:2161  extractedAddress := and(extractedAddress, 0xFFFFFFFFFFFFFFFFFFFFFFFFFFFFFFFFFFFFFFFF) */\n      swap1\n      pop\n        /* \"ownable-resolver.sol\":2238:2254  extractedAddress */\n      dup1\n        /* \"ownable-resolver.sol\":2231:2254  return extractedAddress */\n      swap2\n      pop\n      pop\n        /* \"ownable-resolver.sol\":1648:2261  function extractAddressFromData(bytes memory data) internal pure returns (address) {... */\n      swap2\n      swap1\n      pop\n      jump\t// out\n        /* \"#utility.yul\":7:106   */\n    tag_158:\n        /* \"#utility.yul\":59:65   */\n      0x00\n        /* \"#utility.yul\":93:98   */\n      dup2\n        /* \"#utility.yul\":87:99   */\n      mload\n        /* \"#utility.yul\":77:99   */\n      swap1\n      pop\n        /* \"#utility.yul\":7:106   */\n      swap2\n      swap1\n      pop\n      jump\t// out\n        /* \"#utility.yul\":112:281   */\n    tag_159:\n        /* \"#utility.yul\":196:207   */\n      0x00\n        /* \"#utility.yul\":230:236   */\n      dup3\n        /* \"#utility.yul\":225:228   */\n      dup3\n        /* \"#utility.yul\":218:237   */\n      mstore\n        /* \"#utility.yul\":270:274   */\n      0x20\n        /* \"#utility.yul\":265:268   */\n      dup3\n        /* \"#utility.yul\":261:275   */\n      add\n        /* \"#utility.yul\":246:275   */\n      swap1\n      pop\n        /* \"#utility.yul\":112:281   */\n      swap3\n      swap2\n      pop\n      pop\n      jump\t// out\n        /* \"#utility.yul\":287:426   */\n    tag_160:\n        /* \"#utility.yul\":376:382   */\n      dup3\n        /* \"#utility.yul\":371:374   */\n      dup2\n        /* \"#utility.yul\":366:369   */\n      dup4\n        /* \"#utility.yul\":360:383   */\n      mcopy\n        /* \"#utility.yul\":417:418   */\n      0x00\n        /* \"#utility.yul\":408:414   */\n      dup4\n        /* \"#utility.yul\":403:406   */\n      dup4\n        /* \"#utility.yul\":399:415   */\n      add\n        /* \"#utility.yul\":392:419   */\n      mstore\n        /* \"#utility.yul\":287:426   */\n      pop\n      pop\n      pop\n      jump\t// out\n        /* \"#utility.yul\":432:534   */\n    tag_161:\n        /* \"#utility.yul\":473:479   */\n      0x00\n        /* \"#utility.yul\":524:526   */\n      0x1f\n        /* \"#utility.yul\":520:527   */\n      not\n        /* \"#utility.yul\":515:517   */\n      0x1f\n        /* \"#utility.yul\":508:513   */\n      dup4\n        /* \"#utility.yul\":504:518   */\n      add\n        /* \"#utility.yul\":500:528   */\n      and\n        /* \"#utility.yul\":490:528   */\n      swap1\n      pop\n        /* \"#utility.yul\":432:534   */\n      swap2\n      swap1\n      pop\n      jump\t// out\n        /* \"#utility.yul\":540:917   */\n    tag_162:\n        /* \"#utility.yul\":628:631   */\n      0x00\n        /* \"#utility.yul\":656:695   */\n      tag_195\n        /* \"#utility.yul\":689:694   */\n      dup3\n        /* \"#utility.yul\":656:695   */\n      tag_158\n      jump\t// in\n    tag_195:\n        /* \"#utility.yul\":711:782   */\n      tag_196\n        /* \"#utility.yul\":775:781   */\n      dup2\n        /* \"#utility.yul\":770:773   */\n      dup6\n        /* \"#utility.yul\":711:782   */\n      tag_159\n      jump\t// in\n    tag_196:\n        /* \"#utility.yul\":704:782   */\n      swap4\n      pop\n        /* \"#utility.yul\":791:856   */\n      tag_197\n        /* \"#utility.yul\":849:855   */\n      dup2\n        /* \"#utility.yul\":844:847   */\n      dup6\n        /* \"#utility.yul\":837:841   */\n      0x20\n        /* \"#utility.yul\":830:835   */\n      dup7\n        /* \"#utility.yul\":826:842   */\n      add\n        /* \"#utility.yul\":791:856   */\n      tag_160\n      jump\t// in\n    tag_197:\n        /* \"#utility.yul\":881:910   */\n      tag_198\n        /* \"#utility.yul\":903:909   */\n      dup2\n        /* \"#utility.yul\":881:910   */\n      tag_161\n      jump\t// in\n    tag_198:\n        /* \"#utility.yul\":876:879   */\n      dup5\n        /* \"#utility.yul\":872:911   */\n      add\n        /* \"#utility.yul\":865:911   */\n      swap2\n      pop\n        /* \"#utility.yul\":632:917   */\n      pop\n        /* \"#utility.yul\":540:917   */\n      swap3\n      swap2\n      pop\n      pop\n      jump\t// out\n        /* \"#utility.yul\":923:1236   */\n    tag_18:\n        /* \"#utility.yul\":1036:1040   */\n      0x00\n        /* \"#utility.yul\":1074:1076   */\n      0x20\n        /* \"#utility.yul\":1063:1072   */\n      dup3\n        /* \"#utility.yul\":1059:1077   */\n      add\n        /* \"#utility.yul\":1051:1077   */\n      swap1\n      pop\n        /* \"#utility.yul\":1123:1132   */\n      dup2\n        /* \"#utility.yul\":1117:1121   */\n      dup2\n        /* \"#utility.yul\":1113:1133   */\n      sub\n        /* \"#utility.yul\":1109:1110   */\n      0x00\n        /* \"#utility.yul\":1098:1107   */\n      dup4\n        /* \"#utility.yul\":1094:1111   */\n      add\n        /* \"#utility.yul\":1087:1134   */\n      mstore\n        /* \"#utility.yul\":1151:1229   */\n      tag_200\n        /* \"#utility.yul\":1224:1228   */\n      dup2\n        /* \"#utility.yul\":1215:1221   */\n      dup5\n        /* \"#utility.yul\":1151:1229   */\n      tag_162\n      jump\t// in\n    tag_200:\n        /* \"#utility.yul\":1143:1229   */\n      swap1\n      pop\n        /* \"#utility.yul\":923:1236   */\n      swap3\n      swap2\n      pop\n      pop\n      jump\t// out\n        /* \"#utility.yul\":1323:1440   */\n    tag_164:\n        /* \"#utility.yul\":1432:1433   */\n      0x00\n        /* \"#utility.yul\":1429:1430   */\n      dup1\n        /* \"#utility.yul\":1422:1434   */\n      revert\n        /* \"#utility.yul\":1446:1563   */\n    tag_165:\n        /* \"#utility.yul\":1555:1556   */\n      0x00\n        /* \"#utility.yul\":1552:1553   */\n      dup1\n        /* \"#utility.yul\":1545:1557   */\n      revert\n        /* \"#utility.yul\":1569:1686   */\n    tag_166:\n        /* \"#utility.yul\":1678:1679   */\n      0x00\n        /* \"#utility.yul\":1675:1676   */\n      dup1\n        /* \"#utility.yul\":1668:1680   */\n      revert\n        /* \"#utility.yul\":1692:1809   */\n    tag_167:\n        /* \"#utility.yul\":1801:1802   */\n      0x00\n        /* \"#utility.yul\":1798:1799   */\n      dup1\n        /* \"#utility.yul\":1791:1803   */\n      revert\n        /* \"#utility.yul\":1815:1932   */\n    tag_168:\n        /* \"#utility.yul\":1924:1925   */\n      0x00\n        /* \"#utility.yul\":1921:1922   */\n      dup1\n        /* \"#utility.yul\":1914:1926   */\n      revert\n        /* \"#utility.yul\":1966:2565   */\n    tag_169:\n        /* \"#utility.yul\":2070:2078   */\n      0x00\n        /* \"#utility.yul\":2080:2086   */\n      dup1\n        /* \"#utility.yul\":2130:2133   */\n      dup4\n        /* \"#utility.yul\":2123:2127   */\n      0x1f\n        /* \"#utility.yul\":2115:2121   */\n      dup5\n        /* \"#utility.yul\":2111:2128   */\n      add\n        /* \"#utility.yul\":2107:2134   */\n      slt\n        /* \"#utility.yul\":2097:2219   */\n      tag_208\n      jumpi\n        /* \"#utility.yul\":2138:2217   */\n      tag_209\n      tag_166\n      jump\t// in\n    tag_209:\n        /* \"#utility.yul\":2097:2219   */\n    tag_208:\n        /* \"#utility.yul\":2251:2257   */\n      dup3\n        /* \"#utility.yul\":2238:2258   */\n      calldataload\n        /* \"#utility.yul\":2228:2258   */\n      swap1\n      pop\n        /* \"#utility.yul\":2281:2299   */\n      0xffffffffffffffff\n        /* \"#utility.yul\":2273:2279   */\n      dup2\n        /* \"#utility.yul\":2270:2300   */\n      gt\n        /* \"#utility.yul\":2267:2384   */\n      iszero\n      tag_210\n      jumpi\n        /* \"#utility.yul\":2303:2382   */\n      tag_211\n      tag_167\n      jump\t// in\n    tag_211:\n        /* \"#utility.yul\":2267:2384   */\n    tag_210:\n        /* \"#utility.yul\":2417:2421   */\n      0x20\n        /* \"#utility.yul\":2409:2415   */\n      dup4\n        /* \"#utility.yul\":2405:2422   */\n      add\n        /* \"#utility.yul\":2393:2422   */\n      swap2\n      pop\n        /* \"#utility.yul\":2471:2474   */\n      dup4\n        /* \"#utility.yul\":2463:2467   */\n      0x20\n        /* \"#utility.yul\":2455:2461   */\n      dup3\n        /* \"#utility.yul\":2451:2468   */\n      mul\n        /* \"#utility.yul\":2441:2449   */\n      dup4\n        /* \"#utility.yul\":2437:2469   */\n      add\n        /* \"#utility.yul\":2434:2475   */\n      gt\n        /* \"#utility.yul\":2431:2559   */\n      iszero\n      tag_212\n      jumpi\n        /* \"#utility.yul\":2478:2557   */\n      tag_213\n      tag_168\n      jump\t// in\n    tag_213:\n        /* \"#utility.yul\":2431:2559   */\n    tag_212:\n        /* \"#utility.yul\":1966:2565   */\n      swap3\n      pop\n      swap3\n      swap1\n      pop\n      jump\t// out\n        /* \"#utility.yul\":2588:3156   */\n    tag_170:\n        /* \"#utility.yul\":2661:2669   */\n      0x00\n        /* \"#utility.yul\":2671:2677   */\n      dup1\n        /* \"#utility.yul\":2721:2724   */\n      dup4\n        /* \"#utility.yul\":2714:2718   */\n      0x1f\n        /* \"#utility.yul\":2706:2712   */\n      dup5\n        /* \"#utility.yul\":2702:2719   */\n      add\n        /* \"#utility.yul\":2698:2725   */\n      slt\n        /* \"#utility.yul\":2688:2810   */\n      tag_215\n      jumpi\n        /* \"#utility.yul\":2729:2808   */\n      tag_216\n      tag_166\n      jump\t// in\n    tag_216:\n        /* \"#utility.yul\":2688:2810   */\n    tag_215:\n        /* \"#utility.yul\":2842:2848   */\n      dup3\n        /* \"#utility.yul\":2829:2849   */\n      calldataload\n        /* \"#utility.yul\":2819:2849   */\n      swap1\n      pop\n        /* \"#utility.yul\":2872:2890   */\n      0xffffffffffffffff\n        /* \"#utility.yul\":2864:2870   */\n      dup2\n        /* \"#utility.yul\":2861:2891   */\n      gt\n        /* \"#utility.yul\":2858:2975   */\n      iszero\n      tag_217\n      jumpi\n        /* \"#utility.yul\":2894:2973   */\n      tag_218\n      tag_167\n      jump\t// in\n    tag_218:\n        /* \"#utility.yul\":2858:2975   */\n    tag_217:\n        /* \"#utility.yul\":3008:3012   */\n      0x20\n        /* \"#utility.yul\":3000:3006   */\n      dup4\n        /* \"#utility.yul\":2996:3013   */\n      add\n        /* \"#utility.yul\":2984:3013   */\n      swap2\n      pop\n        /* \"#utility.yul\":3062:3065   */\n      dup4\n        /* \"#utility.yul\":3054:3058   */\n      0x20\n        /* \"#utility.yul\":3046:3052   */\n      dup3\n        /* \"#utility.yul\":3042:3059   */\n      mul\n        /* \"#utility.yul\":3032:3040   */\n      dup4\n        /* \"#utility.yul\":3028:3060   */\n      add\n        /* \"#utility.yul\":3025:3066   */\n      gt\n        /* \"#utility.yul\":3022:3150   */\n      iszero\n      tag_219\n      jumpi\n        /* \"#utility.yul\":3069:3148   */\n      tag_220\n      tag_168\n      jump\t// in\n    tag_220:\n        /* \"#utility.yul\":3022:3150   */\n    tag_219:\n        /* \"#utility.yul\":2588:3156   */\n      swap3\n      pop\n      swap3\n      swap1\n      pop\n      jump\t// out\n        /* \"#utility.yul\":3162:4158   */\n    tag_21:\n        /* \"#utility.yul\":3315:3321   */\n      0x00\n        /* \"#utility.yul\":3323:3329   */\n      dup1\n        /* \"#utility.yul\":3331:3337   */\n      0x00\n        /* \"#utility.yul\":3339:3345   */\n      dup1\n        /* \"#utility.yul\":3388:3390   */\n      0x40\n        /* \"#utility.yul\":3376:3385   */\n      dup6\n        /* \"#utility.yul\":3367:3374   */\n      dup8\n        /* \"#utility.yul\":3363:3386   */\n      sub\n        /* \"#utility.yul\":3359:3391   */\n      slt\n        /* \"#utility.yul\":3356:3475   */\n      iszero\n      tag_222\n      jumpi\n        /* \"#utility.yul\":3394:3473   */\n      tag_223\n      tag_164\n      jump\t// in\n    tag_223:\n        /* \"#utility.yul\":3356:3475   */\n    tag_222:\n        /* \"#utility.yul\":3542:3543   */\n      0x00\n        /* \"#utility.yul\":3531:3540   */\n      dup6\n        /* \"#utility.yul\":3527:3544   */\n      add\n        /* \"#utility.yul\":3514:3545   */\n      calldataload\n        /* \"#utility.yul\":3572:3590   */\n      0xffffffffffffffff\n        /* \"#utility.yul\":3564:3570   */\n      dup2\n        /* \"#utility.yul\":3561:3591   */\n      gt\n        /* \"#utility.yul\":3558:3675   */\n      iszero\n      tag_224\n      jumpi\n        /* \"#utility.yul\":3594:3673   */\n      tag_225\n      tag_165\n      jump\t// in\n    tag_225:\n        /* \"#utility.yul\":3558:3675   */\n    tag_224:\n        /* \"#utility.yul\":3707:3818   */\n      tag_226\n        /* \"#utility.yul\":3810:3817   */\n      dup8\n        /* \"#utility.yul\":3801:3807   */\n      dup3\n        /* \"#utility.yul\":3790:3799   */\n      dup9\n        /* \"#utility.yul\":3786:3808   */\n      add\n        /* \"#utility.yul\":3707:3818   */\n      tag_169\n      jump\t// in\n    tag_226:\n        /* \"#utility.yul\":3689:3818   */\n      swap5\n      pop\n      swap5\n      pop\n        /* \"#utility.yul\":3485:3828   */\n      pop\n        /* \"#utility.yul\":3895:3897   */\n      0x20\n        /* \"#utility.yul\":3884:3893   */\n      dup6\n        /* \"#utility.yul\":3880:3898   */\n      add\n        /* \"#utility.yul\":3867:3899   */\n      calldataload\n        /* \"#utility.yul\":3926:3944   */\n      0xffffffffffffffff\n        /* \"#utility.yul\":3918:3924   */\n      dup2\n        /* \"#utility.yul\":3915:3945   */\n      gt\n        /* \"#utility.yul\":3912:4029   */\n      iszero\n      tag_227\n      jumpi\n        /* \"#utility.yul\":3948:4027   */\n      tag_228\n      tag_165\n      jump\t// in\n    tag_228:\n        /* \"#utility.yul\":3912:4029   */\n    tag_227:\n        /* \"#utility.yul\":4061:4141   */\n      tag_229\n        /* \"#utility.yul\":4133:4140   */\n      dup8\n        /* \"#utility.yul\":4124:4130   */\n      dup3\n        /* \"#utility.yul\":4113:4122   */\n      dup9\n        /* \"#utility.yul\":4109:4131   */\n      add\n        /* \"#utility.yul\":4061:4141   */\n      tag_170\n      jump\t// in\n    tag_229:\n        /* \"#utility.yul\":4043:4141   */\n      swap3\n      pop\n      swap3\n      pop\n        /* \"#utility.yul\":3838:4151   */\n      pop\n        /* \"#utility.yul\":3162:4158   */\n      swap3\n      swap6\n      swap2\n      swap5\n      pop\n      swap3\n      pop\n      jump\t// out\n        /* \"#utility.yul\":4164:4254   */\n    tag_171:\n        /* \"#utility.yul\":4198:4205   */\n      0x00\n        /* \"#utility.yul\":4241:4246   */\n      dup2\n        /* \"#utility.yul\":4234:4247   */\n      iszero\n        /* \"#utility.yul\":4227:4248   */\n      iszero\n        /* \"#utility.yul\":4216:4248   */\n      swap1\n      pop\n        /* \"#utility.yul\":4164:4254   */\n      swap2\n      swap1\n      pop\n      jump\t// out\n        /* \"#utility.yul\":4260:4369   */\n    tag_172:\n        /* \"#utility.yul\":4341:4362   */\n      tag_232\n        /* \"#utility.yul\":4356:4361   */\n      dup2\n        /* \"#utility.yul\":4341:4362   */\n      tag_171\n      jump\t// in\n    tag_232:\n        /* \"#utility.yul\":4336:4339   */\n      dup3\n        /* \"#utility.yul\":4329:4363   */\n      mstore\n        /* \"#utility.yul\":4260:4369   */\n      pop\n      pop\n      jump\t// out\n        /* \"#utility.yul\":4375:4585   */\n    tag_24:\n        /* \"#utility.yul\":4462:4466   */\n      0x00\n        /* \"#utility.yul\":4500:4502   */\n      0x20\n        /* \"#utility.yul\":4489:4498   */\n      dup3\n        /* \"#utility.yul\":4485:4503   */\n      add\n        /* \"#utility.yul\":4477:4503   */\n      swap1\n      pop\n        /* \"#utility.yul\":4513:4578   */\n      tag_234\n        /* \"#utility.yul\":4575:4576   */\n      0x00\n        /* \"#utility.yul\":4564:4573   */\n      dup4\n        /* \"#utility.yul\":4560:4577   */\n      add\n        /* \"#utility.yul\":4551:4557   */\n      dup5\n        /* \"#utility.yul\":4513:4578   */\n      tag_172\n      jump\t// in\n    tag_234:\n        /* \"#utility.yul\":4375:4585   */\n      swap3\n      swap2\n      pop\n      pop\n      jump\t// out\n        /* \"#utility.yul\":4591:4708   */\n    tag_173:\n        /* \"#utility.yul\":4700:4701   */\n      0x00\n        /* \"#utility.yul\":4697:4698   */\n      dup1\n        /* \"#utility.yul\":4690:4702   */\n      revert\n        /* \"#utility.yul\":4740:4976   */\n    tag_174:\n        /* \"#utility.yul\":4817:4822   */\n      0x00\n        /* \"#utility.yul\":4858:4861   */\n      0x0140\n        /* \"#utility.yul\":4849:4855   */\n      dup3\n        /* \"#utility.yul\":4844:4847   */\n      dup5\n        /* \"#utility.yul\":4840:4856   */\n      sub\n        /* \"#utility.yul\":4836:4862   */\n      slt\n        /* \"#utility.yul\":4833:4946   */\n      iszero\n      tag_237\n      jumpi\n        /* \"#utility.yul\":4865:4944   */\n      tag_238\n      tag_173\n      jump\t// in\n    tag_238:\n        /* \"#utility.yul\":4833:4946   */\n    tag_237:\n        /* \"#utility.yul\":4964:4970   */\n      dup2\n        /* \"#utility.yul\":4955:4970   */\n      swap1\n      pop\n        /* \"#utility.yul\":4740:4976   */\n      swap3\n      swap2\n      pop\n      pop\n      jump\t// out\n        /* \"#utility.yul\":4982:5533   */\n    tag_34:\n        /* \"#utility.yul\":5072:5078   */\n      0x00\n        /* \"#utility.yul\":5121:5123   */\n      0x20\n        /* \"#utility.yul\":5109:5118   */\n      dup3\n        /* \"#utility.yul\":5100:5107   */\n      dup5\n        /* \"#utility.yul\":5096:5119   */\n      sub\n        /* \"#utility.yul\":5092:5124   */\n      slt\n        /* \"#utility.yul\":5089:5208   */\n      iszero\n      tag_240\n      jumpi\n        /* \"#utility.yul\":5127:5206   */\n      tag_241\n      tag_164\n      jump\t// in\n    tag_241:\n        /* \"#utility.yul\":5089:5208   */\n    tag_240:\n        /* \"#utility.yul\":5275:5276   */\n      0x00\n        /* \"#utility.yul\":5264:5273   */\n      dup3\n        /* \"#utility.yul\":5260:5277   */\n      add\n        /* \"#utility.yul\":5247:5278   */\n      calldataload\n        /* \"#utility.yul\":5305:5323   */\n      0xffffffffffffffff\n        /* \"#utility.yul\":5297:5303   */\n      dup2\n        /* \"#utility.yul\":5294:5324   */\n      gt\n        /* \"#utility.yul\":5291:5408   */\n      iszero\n      tag_242\n      jumpi\n        /* \"#utility.yul\":5327:5406   */\n      tag_243\n      tag_165\n      jump\t// in\n    tag_243:\n        /* \"#utility.yul\":5291:5408   */\n    tag_242:\n        /* \"#utility.yul\":5432:5516   */\n      tag_244\n        /* \"#utility.yul\":5508:5515   */\n      dup5\n        /* \"#utility.yul\":5499:5505   */\n      dup3\n        /* \"#utility.yul\":5488:5497   */\n      dup6\n        /* \"#utility.yul\":5484:5506   */\n      add\n        /* \"#utility.yul\":5432:5516   */\n      tag_174\n      jump\t// in\n    tag_244:\n        /* \"#utility.yul\":5422:5516   */\n      swap2\n      pop\n        /* \"#utility.yul\":5218:5526   */\n      pop\n        /* \"#utility.yul\":4982:5533   */\n      swap3\n      swap2\n      pop\n      pop\n      jump\t// out\n        /* \"#utility.yul\":5539:5687   */\n    tag_175:\n        /* \"#utility.yul\":5641:5652   */\n      0x00\n        /* \"#utility.yul\":5678:5681   */\n      dup2\n        /* \"#utility.yul\":5663:5681   */\n      swap1\n      pop\n        /* \"#utility.yul\":5539:5687   */\n      swap3\n      swap2\n      pop\n      pop\n      jump\t// out\n        /* \"#utility.yul\":5693:6083   */\n    tag_176:\n        /* \"#utility.yul\":5799:5802   */\n      0x00\n        /* \"#utility.yul\":5827:5866   */\n      tag_247\n        /* \"#utility.yul\":5860:5865   */\n      dup3\n        /* \"#utility.yul\":5827:5866   */\n      tag_158\n      jump\t// in\n    tag_247:\n        /* \"#utility.yul\":5882:5971   */\n      tag_248\n        /* \"#utility.yul\":5964:5970   */\n      dup2\n        /* \"#utility.yul\":5959:5962   */\n      dup6\n        /* \"#utility.yul\":5882:5971   */\n      tag_175\n      jump\t// in\n    tag_248:\n        /* \"#utility.yul\":5875:5971   */\n      swap4\n      pop\n        /* \"#utility.yul\":5980:6045   */\n      tag_249\n        /* \"#utility.yul\":6038:6044   */\n      dup2\n        /* \"#utility.yul\":6033:6036   */\n      dup6\n        /* \"#utility.yul\":6026:6030   */\n      0x20\n        /* \"#utility.yul\":6019:6024   */\n      dup7\n        /* \"#utility.yul\":6015:6031   */\n      add\n        /* \"#utility.yul\":5980:6045   */\n      tag_160\n      jump\t// in\n    tag_249:\n        /* \"#utility.yul\":6070:6076   */\n      dup1\n        /* \"#utility.yul\":6065:6068   */\n      dup5\n        /* \"#utility.yul\":6061:6077   */\n      add\n        /* \"#utility.yul\":6054:6077   */\n      swap2\n      pop\n        /* \"#utility.yul\":5803:6083   */\n      pop\n        /* \"#utility.yul\":5693:6083   */\n      swap3\n      swap2\n      pop\n      pop\n      jump\t// out\n        /* \"#utility.yul\":6089:6240   */\n    tag_177:\n        /* \"#utility.yul\":6229:6232   */\n      0x2e00000000000000000000000000000000000000000000000000000000000000\n        /* \"#utility.yul\":6225:6226   */\n      0x00\n        /* \"#utility.yul\":6217:6223   */\n      dup3\n        /* \"#utility.yul\":6213:6227   */\n      add\n        /* \"#utility.yul\":6206:6233   */\n      mstore\n        /* \"#utility.yul\":6089:6240   */\n      pop\n      jump\t// out\n        /* \"#utility.yul\":6246:6646   */\n    tag_178:\n        /* \"#utility.yul\":6406:6409   */\n      0x00\n        /* \"#utility.yul\":6427:6511   */\n      tag_252\n        /* \"#utility.yul\":6509:6510   */\n      0x01\n        /* \"#utility.yul\":6504:6507   */\n      dup4\n        /* \"#utility.yul\":6427:6511   */\n      tag_175\n      jump\t// in\n    tag_252:\n        /* \"#utility.yul\":6420:6511   */\n      swap2\n      pop\n        /* \"#utility.yul\":6520:6613   */\n      tag_253\n        /* \"#utility.yul\":6609:6612   */\n      dup3\n        /* \"#utility.yul\":6520:6613   */\n      tag_177\n      jump\t// in\n    tag_253:\n        /* \"#utility.yul\":6638:6639   */\n      0x01\n        /* \"#utility.yul\":6633:6636   */\n      dup3\n        /* \"#utility.yul\":6629:6640   */\n      add\n        /* \"#utility.yul\":6622:6640   */\n      swap1\n      pop\n        /* \"#utility.yul\":6246:6646   */\n      swap2\n      swap1\n      pop\n      jump\t// out\n        /* \"#utility.yul\":6652:7779   */\n    tag_48:\n        /* \"#utility.yul\":7082:7085   */\n      0x00\n        /* \"#utility.yul\":7104:7199   */\n      tag_255\n        /* \"#utility.yul\":7195:7198   */\n      dup3\n        /* \"#utility.yul\":7186:7192   */\n      dup7\n        /* \"#utility.yul\":7104:7199   */\n      tag_176\n      jump\t// in\n    tag_255:\n        /* \"#utility.yul\":7097:7199   */\n      swap2\n      pop\n        /* \"#utility.yul\":7216:7364   */\n      tag_256\n        /* \"#utility.yul\":7360:7363   */\n      dup3\n        /* \"#utility.yul\":7216:7364   */\n      tag_178\n      jump\t// in\n    tag_256:\n        /* \"#utility.yul\":7209:7364   */\n      swap2\n      pop\n        /* \"#utility.yul\":7381:7476   */\n      tag_257\n        /* \"#utility.yul\":7472:7475   */\n      dup3\n        /* \"#utility.yul\":7463:7469   */\n      dup6\n        /* \"#utility.yul\":7381:7476   */\n      tag_176\n      jump\t// in\n    tag_257:\n        /* \"#utility.yul\":7374:7476   */\n      swap2\n      pop\n        /* \"#utility.yul\":7493:7641   */\n      tag_258\n        /* \"#utility.yul\":7637:7640   */\n      dup3\n        /* \"#utility.yul\":7493:7641   */\n      tag_178\n      jump\t// in\n    tag_258:\n        /* \"#utility.yul\":7486:7641   */\n      swap2\n      pop\n        /* \"#utility.yul\":7658:7753   */\n      tag_259\n        /* \"#utility.yul\":7749:7752   */\n      dup3\n        /* \"#utility.yul\":7740:7746   */\n      dup5\n        /* \"#utility.yul\":7658:7753   */\n      tag_176\n      jump\t// in\n    tag_259:\n        /* \"#utility.yul\":7651:7753   */\n      swap2\n      pop\n        /* \"#utility.yul\":7770:7773   */\n      dup2\n        /* \"#utility.yul\":7763:7773   */\n      swap1\n      pop\n        /* \"#utility.yul\":6652:7779   */\n      swap5\n      swap4\n      pop\n      pop\n      pop\n      pop\n      jump\t// out\n        /* \"#utility.yul\":7785:7965   */\n    tag_59:\n        /* \"#utility.yul\":7833:7910   */\n      0x4e487b7100000000000000000000000000000000000000000000000000000000\n        /* \"#utility.yul\":7830:7831   */\n      0x00\n        /* \"#utility.yul\":7823:7911   */\n      mstore\n        /* \"#utility.yul\":7930:7934   */\n      0x32\n        /* \"#utility.yul\":7927:7928   */\n      0x04\n        /* \"#utility.yul\":7920:7935   */\n      mstore\n        /* \"#utility.yul\":7954:7958   */\n      0x24\n        /* \"#utility.yul\":7951:7952   */\n      0x00\n        /* \"#utility.yul\":7944:7959   */\n      revert\n        /* \"#utility.yul\":7971:8088   */\n    tag_179:\n        /* \"#utility.yul\":8080:8081   */\n      0x00\n        /* \"#utility.yul\":8077:8078   */\n      dup1\n        /* \"#utility.yul\":8070:8082   */\n      revert\n        /* \"#utility.yul\":8094:8211   */\n    tag_180:\n        /* \"#utility.yul\":8203:8204   */\n      0x00\n        /* \"#utility.yul\":8200:8201   */\n      dup1\n        /* \"#utility.yul\":8193:8205   */\n      revert\n        /* \"#utility.yul\":8217:8334   */\n    tag_181:\n        /* \"#utility.yul\":8326:8327   */\n      0x00\n        /* \"#utility.yul\":8323:8324   */\n      dup1\n        /* \"#utility.yul\":8316:8328   */\n      revert\n        /* \"#utility.yul\":8340:8739   */\n    tag_65:\n        /* \"#utility.yul\":8437:8441   */\n      0x00\n        /* \"#utility.yul\":8491:8502   */\n      dup3\n        /* \"#utility.yul\":8478:8503   */\n      calldataload\n        /* \"#utility.yul\":8593:8594   */\n      0x01\n        /* \"#utility.yul\":8585:8591   */\n      0x0140\n        /* \"#utility.yul\":8581:8595   */\n      sub\n        /* \"#utility.yul\":8570:8578   */\n      dup4\n        /* \"#utility.yul\":8554:8568   */\n      calldatasize\n        /* \"#utility.yul\":8550:8579   */\n      sub\n        /* \"#utility.yul\":8546:8596   */\n      sub\n        /* \"#utility.yul\":8526:8544   */\n      dup2\n        /* \"#utility.yul\":8522:8597   */\n      slt\n        /* \"#utility.yul\":8512:8682   */\n      tag_265\n      jumpi\n        /* \"#utility.yul\":8601:8680   */\n      tag_266\n      tag_179\n      jump\t// in\n    tag_266:\n        /* \"#utility.yul\":8512:8682   */\n    tag_265:\n        /* \"#utility.yul\":8713:8731   */\n      dup1\n        /* \"#utility.yul\":8703:8711   */\n      dup4\n        /* \"#utility.yul\":8699:8732   */\n      add\n        /* \"#utility.yul\":8691:8732   */\n      swap2\n      pop\n        /* \"#utility.yul\":8442:8739   */\n      pop\n        /* \"#utility.yul\":8340:8739   */\n      swap3\n      swap2\n      pop\n      pop\n      jump\t// out\n        /* \"#utility.yul\":8745:8925   */\n    tag_100:\n        /* \"#utility.yul\":8793:8870   */\n      0x4e487b7100000000000000000000000000000000000000000000000000000000\n        /* \"#utility.yul\":8790:8791   */\n      0x00\n        /* \"#utility.yul\":8783:8871   */\n      mstore\n        /* \"#utility.yul\":8890:8894   */\n      0x41\n        /* \"#utility.yul\":8887:8888   */\n      0x04\n        /* \"#utility.yul\":8880:8895   */\n      mstore\n        /* \"#utility.yul\":8914:8918   */\n      0x24\n        /* \"#utility.yul\":8911:8912   */\n      0x00\n        /* \"#utility.yul\":8904:8919   */\n      revert\n        /* \"#utility.yul\":8931:9111   */\n    tag_106:\n        /* \"#utility.yul\":8979:9056   */\n      0x4e487b7100000000000000000000000000000000000000000000000000000000\n        /* \"#utility.yul\":8976:8977   */\n      0x00\n        /* \"#utility.yul\":8969:9057   */\n      mstore\n        /* \"#utility.yul\":9076:9080   */\n      0x12\n        /* \"#utility.yul\":9073:9074   */\n      0x04\n        /* \"#utility.yul\":9066:9081   */\n      mstore\n        /* \"#utility.yul\":9100:9104   */\n      0x24\n        /* \"#utility.yul\":9097:9098   */\n      0x00\n        /* \"#utility.yul\":9090:9105   */\n      revert\n        /* \"#utility.yul\":9117:9243   */\n    tag_182:\n        /* \"#utility.yul\":9154:9161   */\n      0x00\n        /* \"#utility.yul\":9194:9236   */\n      0xffffffffffffffffffffffffffffffffffffffff\n        /* \"#utility.yul\":9187:9192   */\n      dup3\n        /* \"#utility.yul\":9183:9237   */\n      and\n        /* \"#utility.yul\":9172:9237   */\n      swap1\n      pop\n        /* \"#utility.yul\":9117:9243   */\n      swap2\n      swap1\n      pop\n      jump\t// out\n        /* \"#utility.yul\":9249:9345   */\n    tag_183:\n        /* \"#utility.yul\":9286:9293   */\n      0x00\n        /* \"#utility.yul\":9315:9339   */\n      tag_271\n        /* \"#utility.yul\":9333:9338   */\n      dup3\n        /* \"#utility.yul\":9315:9339   */\n      tag_182\n      jump\t// in\n    tag_271:\n        /* \"#utility.yul\":9304:9339   */\n      swap1\n      pop\n        /* \"#utility.yul\":9249:9345   */\n      swap2\n      swap1\n      pop\n      jump\t// out\n        /* \"#utility.yul\":9351:9473   */\n    tag_184:\n        /* \"#utility.yul\":9424:9448   */\n      tag_273\n        /* \"#utility.yul\":9442:9447   */\n      dup2\n        /* \"#utility.yul\":9424:9448   */\n      tag_183\n      jump\t// in\n    tag_273:\n        /* \"#utility.yul\":9417:9422   */\n      dup2\n        /* \"#utility.yul\":9414:9449   */\n      eq\n        /* \"#utility.yul\":9404:9467   */\n      tag_274\n      jumpi\n        /* \"#utility.yul\":9463:9464   */\n      0x00\n        /* \"#utility.yul\":9460:9461   */\n      dup1\n        /* \"#utility.yul\":9453:9465   */\n      revert\n        /* \"#utility.yul\":9404:9467   */\n    tag_274:\n        /* \"#utility.yul\":9351:9473   */\n      pop\n      jump\t// out\n        /* \"#utility.yul\":9479:9618   */\n    tag_185:\n        /* \"#utility.yul\":9525:9530   */\n      0x00\n        /* \"#utility.yul\":9563:9569   */\n      dup2\n        /* \"#utility.yul\":9550:9570   */\n      calldataload\n        /* \"#utility.yul\":9541:9570   */\n      swap1\n      pop\n        /* \"#utility.yul\":9579:9612   */\n      tag_276\n        /* \"#utility.yul\":9606:9611   */\n      dup2\n        /* \"#utility.yul\":9579:9612   */\n      tag_184\n      jump\t// in\n    tag_276:\n        /* \"#utility.yul\":9479:9618   */\n      swap3\n      swap2\n      pop\n      pop\n      jump\t// out\n        /* \"#utility.yul\":9624:9953   */\n    tag_114:\n        /* \"#utility.yul\":9683:9689   */\n      0x00\n        /* \"#utility.yul\":9732:9734   */\n      0x20\n        /* \"#utility.yul\":9720:9729   */\n      dup3\n        /* \"#utility.yul\":9711:9718   */\n      dup5\n        /* \"#utility.yul\":9707:9730   */\n      sub\n        /* \"#utility.yul\":9703:9735   */\n      slt\n        /* \"#utility.yul\":9700:9819   */\n      iszero\n      tag_278\n      jumpi\n        /* \"#utility.yul\":9738:9817   */\n      tag_279\n      tag_164\n      jump\t// in\n    tag_279:\n        /* \"#utility.yul\":9700:9819   */\n    tag_278:\n        /* \"#utility.yul\":9858:9859   */\n      0x00\n        /* \"#utility.yul\":9883:9936   */\n      tag_280\n        /* \"#utility.yul\":9928:9935   */\n      dup5\n        /* \"#utility.yul\":9919:9925   */\n      dup3\n        /* \"#utility.yul\":9908:9917   */\n      dup6\n        /* \"#utility.yul\":9904:9926   */\n      add\n        /* \"#utility.yul\":9883:9936   */\n      tag_185\n      jump\t// in\n    tag_280:\n        /* \"#utility.yul\":9873:9936   */\n      swap2\n      pop\n        /* \"#utility.yul\":9829:9946   */\n      pop\n        /* \"#utility.yul\":9624:9953   */\n      swap3\n      swap2\n      pop\n      pop\n      jump\t// out\n        /* \"#utility.yul\":9959:10683   */\n    tag_120:\n        /* \"#utility.yul\":10036:10040   */\n      0x00\n        /* \"#utility.yul\":10042:10048   */\n      dup1\n        /* \"#utility.yul\":10098:10109   */\n      dup4\n        /* \"#utility.yul\":10085:10110   */\n      calldataload\n        /* \"#utility.yul\":10198:10199   */\n      0x01\n        /* \"#utility.yul\":10192:10196   */\n      0x20\n        /* \"#utility.yul\":10188:10200   */\n      sub\n        /* \"#utility.yul\":10177:10185   */\n      dup5\n        /* \"#utility.yul\":10161:10175   */\n      calldatasize\n        /* \"#utility.yul\":10157:10186   */\n      sub\n        /* \"#utility.yul\":10153:10201   */\n      sub\n        /* \"#utility.yul\":10133:10151   */\n      dup2\n        /* \"#utility.yul\":10129:10202   */\n      slt\n        /* \"#utility.yul\":10119:10287   */\n      tag_282\n      jumpi\n        /* \"#utility.yul\":10206:10285   */\n      tag_283\n      tag_179\n      jump\t// in\n    tag_283:\n        /* \"#utility.yul\":10119:10287   */\n    tag_282:\n        /* \"#utility.yul\":10318:10336   */\n      dup1\n        /* \"#utility.yul\":10308:10316   */\n      dup5\n        /* \"#utility.yul\":10304:10337   */\n      add\n        /* \"#utility.yul\":10296:10337   */\n      swap3\n      pop\n        /* \"#utility.yul\":10370:10374   */\n      dup3\n        /* \"#utility.yul\":10357:10375   */\n      calldataload\n        /* \"#utility.yul\":10347:10375   */\n      swap2\n      pop\n        /* \"#utility.yul\":10398:10416   */\n      0xffffffffffffffff\n        /* \"#utility.yul\":10390:10396   */\n      dup3\n        /* \"#utility.yul\":10387:10417   */\n      gt\n        /* \"#utility.yul\":10384:10501   */\n      iszero\n      tag_284\n      jumpi\n        /* \"#utility.yul\":10420:10499   */\n      tag_285\n      tag_180\n      jump\t// in\n    tag_285:\n        /* \"#utility.yul\":10384:10501   */\n    tag_284:\n        /* \"#utility.yul\":10528:10530   */\n      0x20\n        /* \"#utility.yul\":10522:10526   */\n      dup4\n        /* \"#utility.yul\":10518:10531   */\n      add\n        /* \"#utility.yul\":10510:10531   */\n      swap3\n      pop\n        /* \"#utility.yul\":10585:10589   */\n      0x01\n        /* \"#utility.yul\":10577:10583   */\n      dup3\n        /* \"#utility.yul\":10573:10590   */\n      mul\n        /* \"#utility.yul\":10557:10571   */\n      calldatasize\n        /* \"#utility.yul\":10553:10591   */\n      sub\n        /* \"#utility.yul\":10547:10551   */\n      dup4\n        /* \"#utility.yul\":10543:10592   */\n      sgt\n        /* \"#utility.yul\":10540:10676   */\n      iszero\n      tag_286\n      jumpi\n        /* \"#utility.yul\":10595:10674   */\n      tag_287\n      tag_181\n      jump\t// in\n    tag_287:\n        /* \"#utility.yul\":10540:10676   */\n    tag_286:\n        /* \"#utility.yul\":10049:10683   */\n      pop\n        /* \"#utility.yul\":9959:10683   */\n      swap3\n      pop\n      swap3\n      swap1\n      pop\n      jump\t// out\n        /* \"#utility.yul\":10689:10832   */\n    tag_186:\n        /* \"#utility.yul\":10746:10751   */\n      0x00\n        /* \"#utility.yul\":10777:10783   */\n      dup2\n        /* \"#utility.yul\":10771:10784   */\n      mload\n        /* \"#utility.yul\":10762:10784   */\n      swap1\n      pop\n        /* \"#utility.yul\":10793:10826   */\n      tag_289\n        /* \"#utility.yul\":10820:10825   */\n      dup2\n        /* \"#utility.yul\":10793:10826   */\n      tag_184\n      jump\t// in\n    tag_289:\n        /* \"#utility.yul\":10689:10832   */\n      swap3\n      swap2\n      pop\n      pop\n      jump\t// out\n        /* \"#utility.yul\":10838:11189   */\n    tag_127:\n        /* \"#utility.yul\":10908:10914   */\n      0x00\n        /* \"#utility.yul\":10957:10959   */\n      0x20\n        /* \"#utility.yul\":10945:10954   */\n      dup3\n        /* \"#utility.yul\":10936:10943   */\n      dup5\n        /* \"#utility.yul\":10932:10955   */\n      sub\n        /* \"#utility.yul\":10928:10960   */\n      slt\n        /* \"#utility.yul\":10925:11044   */\n      iszero\n      tag_291\n      jumpi\n        /* \"#utility.yul\":10963:11042   */\n      tag_292\n      tag_164\n      jump\t// in\n    tag_292:\n        /* \"#utility.yul\":10925:11044   */\n    tag_291:\n        /* \"#utility.yul\":11083:11084   */\n      0x00\n        /* \"#utility.yul\":11108:11172   */\n      tag_293\n        /* \"#utility.yul\":11164:11171   */\n      dup5\n        /* \"#utility.yul\":11155:11161   */\n      dup3\n        /* \"#utility.yul\":11144:11153   */\n      dup6\n        /* \"#utility.yul\":11140:11162   */\n      add\n        /* \"#utility.yul\":11108:11172   */\n      tag_186\n      jump\t// in\n    tag_293:\n        /* \"#utility.yul\":11098:11172   */\n      swap2\n      pop\n        /* \"#utility.yul\":11054:11182   */\n      pop\n        /* \"#utility.yul\":10838:11189   */\n      swap3\n      swap2\n      pop\n      pop\n      jump\t// out\n        /* \"#utility.yul\":11195:11359   */\n    tag_187:\n        /* \"#utility.yul\":11335:11351   */\n      0x4461746120746f6f2073686f7274000000000000000000000000000000000000\n        /* \"#utility.yul\":11331:11332   */\n      0x00\n        /* \"#utility.yul\":11323:11329   */\n      dup3\n        /* \"#utility.yul\":11319:11333   */\n      add\n        /* \"#utility.yul\":11312:11352   */\n      mstore\n        /* \"#utility.yul\":11195:11359   */\n      pop\n      jump\t// out\n        /* \"#utility.yul\":11365:11731   */\n    tag_188:\n        /* \"#utility.yul\":11507:11510   */\n      0x00\n        /* \"#utility.yul\":11528:11595   */\n      tag_296\n        /* \"#utility.yul\":11592:11594   */\n      0x0e\n        /* \"#utility.yul\":11587:11590   */\n      dup4\n        /* \"#utility.yul\":11528:11595   */\n      tag_159\n      jump\t// in\n    tag_296:\n        /* \"#utility.yul\":11521:11595   */\n      swap2\n      pop\n        /* \"#utility.yul\":11604:11697   */\n      tag_297\n        /* \"#utility.yul\":11693:11696   */\n      dup3\n        /* \"#utility.yul\":11604:11697   */\n      tag_187\n      jump\t// in\n    tag_297:\n        /* \"#utility.yul\":11722:11724   */\n      0x20\n        /* \"#utility.yul\":11717:11720   */\n      dup3\n        /* \"#utility.yul\":11713:11725   */\n      add\n        /* \"#utility.yul\":11706:11725   */\n      swap1\n      pop\n        /* \"#utility.yul\":11365:11731   */\n      swap2\n      swap1\n      pop\n      jump\t// out\n        /* \"#utility.yul\":11737:12156   */\n    tag_157:\n        /* \"#utility.yul\":11903:11907   */\n      0x00\n        /* \"#utility.yul\":11941:11943   */\n      0x20\n        /* \"#utility.yul\":11930:11939   */\n      dup3\n        /* \"#utility.yul\":11926:11944   */\n      add\n        /* \"#utility.yul\":11918:11944   */\n      swap1\n      pop\n        /* \"#utility.yul\":11990:11999   */\n      dup2\n        /* \"#utility.yul\":11984:11988   */\n      dup2\n        /* \"#utility.yul\":11980:12000   */\n      sub\n        /* \"#utility.yul\":11976:11977   */\n      0x00\n        /* \"#utility.yul\":11965:11974   */\n      dup4\n        /* \"#utility.yul\":11961:11978   */\n      add\n        /* \"#utility.yul\":11954:12001   */\n      mstore\n        /* \"#utility.yul\":12018:12149   */\n      tag_299\n        /* \"#utility.yul\":12144:12148   */\n      dup2\n        /* \"#utility.yul\":12018:12149   */\n      tag_188\n      jump\t// in\n    tag_299:\n        /* \"#utility.yul\":12010:12149   */\n      swap1\n      pop\n        /* \"#utility.yul\":11737:12156   */\n      swap2\n      swap1\n      pop\n      jump\t// out\n\n    auxdata: 0xa2646970667358221220419bb2c691eb6a04020c67f4fbbd742291ef025cd4d09a945a4d19feff3e4e6264736f6c634300081a0033\n}\n",
				"bytecode": {
					"linkReferences": {},
					"object": "610100604052348015610010575f80fd5b5060405161116138038061116183398181016040528101906100329190610162565b80600160035f82608081815250508160a081815250508060c081815250505050505f73ffffffffffffffffffffffffffffffffffffffff168173ffffffffffffffffffffffffffffffffffffffff16036100b8576040517f83780ffe00000000000000000000000000000000000000000000000000000000815260040160405180910390fd5b8073ffffffffffffffffffffffffffffffffffffffff1660e08173ffffffffffffffffffffffffffffffffffffffff1681525050505061018d565b5f80fd5b5f73ffffffffffffffffffffffffffffffffffffffff82169050919050565b5f610120826100f7565b9050919050565b5f61013182610116565b9050919050565b61014181610127565b811461014b575f80fd5b50565b5f8151905061015c81610138565b92915050565b5f60208284031215610177576101766100f3565b5b5f6101848482850161014e565b91505092915050565b60805160a05160c05160e051610fa16101c05f395f61058601525f61021201525f6101e901525f6101c00152610fa15ff3fe608060405260043610610058575f3560e01c806354fd4d50146100a157806388e5b2d9146100cb57806391db0b7e146100fb578063ce46e0461461012b578063e49617e114610155578063e60c3505146101855761009d565b3661009d576100656101b5565b61009b576040517f1574f9f300000000000000000000000000000000000000000000000000000000815260040160405180910390fd5b005b5f80fd5b3480156100ac575f80fd5b506100b56101b9565b6040516100c29190610a5f565b60405180910390f35b6100e560048036038101906100e09190610b3d565b61025c565b6040516100f29190610bd5565b60405180910390f35b61011560048036038101906101109190610b3d565b610371565b6040516101229190610bd5565b60405180910390f35b348015610136575f80fd5b5061013f6101b5565b60405161014c9190610bd5565b60405180910390f35b61016f600480360381019061016a9190610c11565b610486565b60405161017c9190610bd5565b60405180910390f35b61019f600480360381019061019a9190610c11565b6104a0565b6040516101ac9190610bd5565b60405180910390f35b5f90565b60606101e47f00000000000000000000000000000000000000000000000000000000000000006104ba565b61020d7f00000000000000000000000000000000000000000000000000000000000000006104ba565b6102367f00000000000000000000000000000000000000000000000000000000000000006104ba565b60405160200161024893929190610cdc565b604051602081830303815290604052905090565b5f610265610584565b5f8585905090508383905081146102a8576040517f947d5a8400000000000000000000000000000000000000000000000000000000815260040160405180910390fd5b5f3490505f5b82811015610361575f8686838181106102ca576102c9610d22565b5b9050602002013590508281111561030d576040517f1101129400000000000000000000000000000000000000000000000000000000815260040160405180910390fd5b61033b89898481811061032357610322610d22565b5b90506020028101906103359190610d5b565b8261060b565b61034b575f945050505050610369565b80830392505061035a81610616565b90506102ae565b506001925050505b949350505050565b5f61037a610584565b5f8585905090508383905081146103bd576040517f947d5a8400000000000000000000000000000000000000000000000000000000815260040160405180910390fd5b5f3490505f5b82811015610476575f8686838181106103df576103de610d22565b5b90506020020135905082811115610422576040517f1101129400000000000000000000000000000000000000000000000000000000815260040160405180910390fd5b61045089898481811061043857610437610d22565b5b905060200281019061044a9190610d5b565b82610622565b610460575f94505050505061047e565b80830392505061046f81610616565b90506103c3565b506001925050505b949350505050565b5f61048f610584565b610499823461060b565b9050919050565b5f6104a9610584565b6104b38234610622565b9050919050565b60605f60016104c88461082e565b0190505f8167ffffffffffffffff8111156104e6576104e5610d83565b5b6040519080825280601f01601f1916602001820160405280156105185781602001600182028036833780820191505090505b5090505f82602001820190505b600115610579578080600190039150507f3031323334353637383961626364656600000000000000000000000000000000600a86061a8153600a858161056e5761056d610db0565b5b0494505f8503610525575b819350505050919050565b7f000000000000000000000000000000000000000000000000000000000000000073ffffffffffffffffffffffffffffffffffffffff163373ffffffffffffffffffffffffffffffffffffffff1614610609576040517f4ca8886700000000000000000000000000000000000000000000000000000000815260040160405180910390fd5b565b5f6001905092915050565b5f600182019050919050565b5f8073ffffffffffffffffffffffffffffffffffffffff168360c001602081019061064d9190610e37565b73ffffffffffffffffffffffffffffffffffffffff16036106715760019050610828565b5f8360c00160208101906106859190610e37565b73ffffffffffffffffffffffffffffffffffffffff163b036106a9575f9050610828565b5f610705848061012001906106be9190610e62565b8080601f0160208091040260200160405190810160405280939291908181526020018383808284375f81840152601f19601f8201169050808301925050505050505061097f565b90508073ffffffffffffffffffffffffffffffffffffffff168460c00160208101906107319190610e37565b73ffffffffffffffffffffffffffffffffffffffff1614610755575f915050610828565b5f8460c00160208101906107699190610e37565b90508073ffffffffffffffffffffffffffffffffffffffff16638da5cb5b6040518163ffffffff1660e01b8152600401602060405180830381865afa9250505080156107d357506040513d601f19601f820116820180604052508101906107d09190610ed8565b60015b6107e1575f92505050610828565b8073ffffffffffffffffffffffffffffffffffffffff168660e001602081019061080b9190610e37565b73ffffffffffffffffffffffffffffffffffffffff161493505050505b92915050565b5f805f90507a184f03e93ff9f4daa797ed6e38ed64bf6a1f010000000000000000831061088a577a184f03e93ff9f4daa797ed6e38ed64bf6a1f01000000000000000083816108805761087f610db0565b5b0492506040810190505b6d04ee2d6d415b85acef810000000083106108c7576d04ee2d6d415b85acef810000000083816108bd576108bc610db0565b5b0492506020810190505b662386f26fc1000083106108f657662386f26fc1000083816108ec576108eb610db0565b5b0492506010810190505b6305f5e100831061091f576305f5e100838161091557610914610db0565b5b0492506008810190505b612710831061094457612710838161093a57610939610db0565b5b0492506004810190505b60648310610967576064838161095d5761095c610db0565b5b0492506002810190505b600a8310610976576001810190505b80915050919050565b5f6020825110156109c5576040517f08c379a00000000000000000000000000000000000000000000000000000000081526004016109bc90610f4d565b60405180910390fd5b5f6020830151905073ffffffffffffffffffffffffffffffffffffffff8116905080915050919050565b5f81519050919050565b5f82825260208201905092915050565b8281835e5f83830152505050565b5f601f19601f8301169050919050565b5f610a31826109ef565b610a3b81856109f9565b9350610a4b818560208601610a09565b610a5481610a17565b840191505092915050565b5f6020820190508181035f830152610a778184610a27565b905092915050565b5f80fd5b5f80fd5b5f80fd5b5f80fd5b5f80fd5b5f8083601f840112610aa857610aa7610a87565b5b8235905067ffffffffffffffff811115610ac557610ac4610a8b565b5b602083019150836020820283011115610ae157610ae0610a8f565b5b9250929050565b5f8083601f840112610afd57610afc610a87565b5b8235905067ffffffffffffffff811115610b1a57610b19610a8b565b5b602083019150836020820283011115610b3657610b35610a8f565b5b9250929050565b5f805f8060408587031215610b5557610b54610a7f565b5b5f85013567ffffffffffffffff811115610b7257610b71610a83565b5b610b7e87828801610a93565b9450945050602085013567ffffffffffffffff811115610ba157610ba0610a83565b5b610bad87828801610ae8565b925092505092959194509250565b5f8115159050919050565b610bcf81610bbb565b82525050565b5f602082019050610be85f830184610bc6565b92915050565b5f80fd5b5f6101408284031215610c0857610c07610bee565b5b81905092915050565b5f60208284031215610c2657610c25610a7f565b5b5f82013567ffffffffffffffff811115610c4357610c42610a83565b5b610c4f84828501610bf2565b91505092915050565b5f81905092915050565b5f610c6c826109ef565b610c768185610c58565b9350610c86818560208601610a09565b80840191505092915050565b7f2e000000000000000000000000000000000000000000000000000000000000005f82015250565b5f610cc6600183610c58565b9150610cd182610c92565b600182019050919050565b5f610ce78286610c62565b9150610cf282610cba565b9150610cfe8285610c62565b9150610d0982610cba565b9150610d158284610c62565b9150819050949350505050565b7f4e487b71000000000000000000000000000000000000000000000000000000005f52603260045260245ffd5b5f80fd5b5f80fd5b5f80fd5b5f8235600161014003833603038112610d7757610d76610d4f565b5b80830191505092915050565b7f4e487b71000000000000000000000000000000000000000000000000000000005f52604160045260245ffd5b7f4e487b71000000000000000000000000000000000000000000000000000000005f52601260045260245ffd5b5f73ffffffffffffffffffffffffffffffffffffffff82169050919050565b5f610e0682610ddd565b9050919050565b610e1681610dfc565b8114610e20575f80fd5b50565b5f81359050610e3181610e0d565b92915050565b5f60208284031215610e4c57610e4b610a7f565b5b5f610e5984828501610e23565b91505092915050565b5f8083356001602003843603038112610e7e57610e7d610d4f565b5b80840192508235915067ffffffffffffffff821115610ea057610e9f610d53565b5b602083019250600182023603831315610ebc57610ebb610d57565b5b509250929050565b5f81519050610ed281610e0d565b92915050565b5f60208284031215610eed57610eec610a7f565b5b5f610efa84828501610ec4565b91505092915050565b7f4461746120746f6f2073686f72740000000000000000000000000000000000005f82015250565b5f610f37600e836109f9565b9150610f4282610f03565b602082019050919050565b5f6020820190508181035f830152610f6481610f2b565b905091905056fea2646970667358221220419bb2c691eb6a04020c67f4fbbd742291ef025cd4d09a945a4d19feff3e4e6264736f6c634300081a0033",
					"opcodes": "PUSH2 0x100 PUSH1 0x40 MSTORE CALLVALUE DUP1 ISZERO PUSH2 0x10 JUMPI PUSH0 DUP1 REVERT JUMPDEST POP PUSH1 0x40 MLOAD PUSH2 0x1161 CODESIZE SUB DUP1 PUSH2 0x1161 DUP4 CODECOPY DUP2 DUP2 ADD PUSH1 0x40 MSTORE DUP2 ADD SWAP1 PUSH2 0x32 SWAP2 SWAP1 PUSH2 0x162 JUMP JUMPDEST DUP1 PUSH1 0x1 PUSH1 0x3 PUSH0 DUP3 PUSH1 0x80 DUP2 DUP2 MSTORE POP POP DUP2 PUSH1 0xA0 DUP2 DUP2 MSTORE POP POP DUP1 PUSH1 0xC0 DUP2 DUP2 MSTORE POP POP POP POP POP PUSH0 PUSH20 0xFFFFFFFFFFFFFFFFFFFFFFFFFFFFFFFFFFFFFFFF AND DUP2 PUSH20 0xFFFFFFFFFFFFFFFFFFFFFFFFFFFFFFFFFFFFFFFF AND SUB PUSH2 0xB8 JUMPI PUSH1 0x40 MLOAD PUSH32 0x83780FFE00000000000000000000000000000000000000000000000000000000 DUP2 MSTORE PUSH1 0x4 ADD PUSH1 0x40 MLOAD DUP1 SWAP2 SUB SWAP1 REVERT JUMPDEST DUP1 PUSH20 0xFFFFFFFFFFFFFFFFFFFFFFFFFFFFFFFFFFFFFFFF AND PUSH1 0xE0 DUP2 PUSH20 0xFFFFFFFFFFFFFFFFFFFFFFFFFFFFFFFFFFFFFFFF AND DUP2 MSTORE POP POP POP POP PUSH2 0x18D JUMP JUMPDEST PUSH0 DUP1 REVERT JUMPDEST PUSH0 PUSH20 0xFFFFFFFFFFFFFFFFFFFFFFFFFFFFFFFFFFFFFFFF DUP3 AND SWAP1 POP SWAP2 SWAP1 POP JUMP JUMPDEST PUSH0 PUSH2 0x120 DUP3 PUSH2 0xF7 JUMP JUMPDEST SWAP1 POP SWAP2 SWAP1 POP JUMP JUMPDEST PUSH0 PUSH2 0x131 DUP3 PUSH2 0x116 JUMP JUMPDEST SWAP1 POP SWAP2 SWAP1 POP JUMP JUMPDEST PUSH2 0x141 DUP2 PUSH2 0x127 JUMP JUMPDEST DUP2 EQ PUSH2 0x14B JUMPI PUSH0 DUP1 REVERT JUMPDEST POP JUMP JUMPDEST PUSH0 DUP2 MLOAD SWAP1 POP PUSH2 0x15C DUP2 PUSH2 0x138 JUMP JUMPDEST SWAP3 SWAP2 POP POP JUMP JUMPDEST PUSH0 PUSH1 0x20 DUP3 DUP5 SUB SLT ISZERO PUSH2 0x177 JUMPI PUSH2 0x176 PUSH2 0xF3 JUMP JUMPDEST JUMPDEST PUSH0 PUSH2 0x184 DUP5 DUP3 DUP6 ADD PUSH2 0x14E JUMP JUMPDEST SWAP2 POP POP SWAP3 SWAP2 POP POP JUMP JUMPDEST PUSH1 0x80 MLOAD PUSH1 0xA0 MLOAD PUSH1 0xC0 MLOAD PUSH1 0xE0 MLOAD PUSH2 0xFA1 PUSH2 0x1C0 PUSH0 CODECOPY PUSH0 PUSH2 0x586 ADD MSTORE PUSH0 PUSH2 0x212 ADD MSTORE PUSH0 PUSH2 0x1E9 ADD MSTORE PUSH0 PUSH2 0x1C0 ADD MSTORE PUSH2 0xFA1 PUSH0 RETURN INVALID PUSH1 0x80 PUSH1 0x40 MSTORE PUSH1 0x4 CALLDATASIZE LT PUSH2 0x58 JUMPI PUSH0 CALLDATALOAD PUSH1 0xE0 SHR DUP1 PUSH4 0x54FD4D50 EQ PUSH2 0xA1 JUMPI DUP1 PUSH4 0x88E5B2D9 EQ PUSH2 0xCB JUMPI DUP1 PUSH4 0x91DB0B7E EQ PUSH2 0xFB JUMPI DUP1 PUSH4 0xCE46E046 EQ PUSH2 0x12B JUMPI DUP1 PUSH4 0xE49617E1 EQ PUSH2 0x155 JUMPI DUP1 PUSH4 0xE60C3505 EQ PUSH2 0x185 JUMPI PUSH2 0x9D JUMP JUMPDEST CALLDATASIZE PUSH2 0x9D JUMPI PUSH2 0x65 PUSH2 0x1B5 JUMP JUMPDEST PUSH2 0x9B JUMPI PUSH1 0x40 MLOAD PUSH32 0x1574F9F300000000000000000000000000000000000000000000000000000000 DUP2 MSTORE PUSH1 0x4 ADD PUSH1 0x40 MLOAD DUP1 SWAP2 SUB SWAP1 REVERT JUMPDEST STOP JUMPDEST PUSH0 DUP1 REVERT JUMPDEST CALLVALUE DUP1 ISZERO PUSH2 0xAC JUMPI PUSH0 DUP1 REVERT JUMPDEST POP PUSH2 0xB5 PUSH2 0x1B9 JUMP JUMPDEST PUSH1 0x40 MLOAD PUSH2 0xC2 SWAP2 SWAP1 PUSH2 0xA5F JUMP JUMPDEST PUSH1 0x40 MLOAD DUP1 SWAP2 SUB SWAP1 RETURN JUMPDEST PUSH2 0xE5 PUSH1 0x4 DUP1 CALLDATASIZE SUB DUP2 ADD SWAP1 PUSH2 0xE0 SWAP2 SWAP1 PUSH2 0xB3D JUMP JUMPDEST PUSH2 0x25C JUMP JUMPDEST PUSH1 0x40 MLOAD PUSH2 0xF2 SWAP2 SWAP1 PUSH2 0xBD5 JUMP JUMPDEST PUSH1 0x40 MLOAD DUP1 SWAP2 SUB SWAP1 RETURN JUMPDEST PUSH2 0x115 PUSH1 0x4 DUP1 CALLDATASIZE SUB DUP2 ADD SWAP1 PUSH2 0x110 SWAP2 SWAP1 PUSH2 0xB3D JUMP JUMPDEST PUSH2 0x371 JUMP JUMPDEST PUSH1 0x40 MLOAD PUSH2 0x122 SWAP2 SWAP1 PUSH2 0xBD5 JUMP JUMPDEST PUSH1 0x40 MLOAD DUP1 SWAP2 SUB SWAP1 RETURN JUMPDEST CALLVALUE DUP1 ISZERO PUSH2 0x136 JUMPI PUSH0 DUP1 REVERT JUMPDEST POP PUSH2 0x13F PUSH2 0x1B5 JUMP JUMPDEST PUSH1 0x40 MLOAD PUSH2 0x14C SWAP2 SWAP1 PUSH2 0xBD5 JUMP JUMPDEST PUSH1 0x40 MLOAD DUP1 SWAP2 SUB SWAP1 RETURN JUMPDEST PUSH2 0x16F PUSH1 0x4 DUP1 CALLDATASIZE SUB DUP2 ADD SWAP1 PUSH2 0x16A SWAP2 SWAP1 PUSH2 0xC11 JUMP JUMPDEST PUSH2 0x486 JUMP JUMPDEST PUSH1 0x40 MLOAD PUSH2 0x17C SWAP2 SWAP1 PUSH2 0xBD5 JUMP JUMPDEST PUSH1 0x40 MLOAD DUP1 SWAP2 SUB SWAP1 RETURN JUMPDEST PUSH2 0x19F PUSH1 0x4 DUP1 CALLDATASIZE SUB DUP2 ADD SWAP1 PUSH2 0x19A SWAP2 SWAP1 PUSH2 0xC11 JUMP JUMPDEST PUSH2 0x4A0 JUMP JUMPDEST PUSH1 0x40 MLOAD PUSH2 0x1AC SWAP2 SWAP1 PUSH2 0xBD5 JUMP JUMPDEST PUSH1 0x40 MLOAD DUP1 SWAP2 SUB SWAP1 RETURN JUMPDEST PUSH0 SWAP1 JUMP JUMPDEST PUSH1 0x60 PUSH2 0x1E4 PUSH32 0x0 PUSH2 0x4BA JUMP JUMPDEST PUSH2 0x20D PUSH32 0x0 PUSH2 0x4BA JUMP JUMPDEST PUSH2 0x236 PUSH32 0x0 PUSH2 0x4BA JUMP JUMPDEST PUSH1 0x40 MLOAD PUSH1 0x20 ADD PUSH2 0x248 SWAP4 SWAP3 SWAP2 SWAP1 PUSH2 0xCDC JUMP JUMPDEST PUSH1 0x40 MLOAD PUSH1 0x20 DUP2 DUP4 SUB SUB DUP2 MSTORE SWAP1 PUSH1 0x40 MSTORE SWAP1 POP SWAP1 JUMP JUMPDEST PUSH0 PUSH2 0x265 PUSH2 0x584 JUMP JUMPDEST PUSH0 DUP6 DUP6 SWAP1 POP SWAP1 POP DUP4 DUP4 SWAP1 POP DUP2 EQ PUSH2 0x2A8 JUMPI PUSH1 0x40 MLOAD PUSH32 0x947D5A8400000000000000000000000000000000000000000000000000000000 DUP2 MSTORE PUSH1 0x4 ADD PUSH1 0x40 MLOAD DUP1 SWAP2 SUB SWAP1 REVERT JUMPDEST PUSH0 CALLVALUE SWAP1 POP PUSH0 JUMPDEST DUP3 DUP2 LT ISZERO PUSH2 0x361 JUMPI PUSH0 DUP7 DUP7 DUP4 DUP2 DUP2 LT PUSH2 0x2CA JUMPI PUSH2 0x2C9 PUSH2 0xD22 JUMP JUMPDEST JUMPDEST SWAP1 POP PUSH1 0x20 MUL ADD CALLDATALOAD SWAP1 POP DUP3 DUP2 GT ISZERO PUSH2 0x30D JUMPI PUSH1 0x40 MLOAD PUSH32 0x1101129400000000000000000000000000000000000000000000000000000000 DUP2 MSTORE PUSH1 0x4 ADD PUSH1 0x40 MLOAD DUP1 SWAP2 SUB SWAP1 REVERT JUMPDEST PUSH2 0x33B DUP10 DUP10 DUP5 DUP2 DUP2 LT PUSH2 0x323 JUMPI PUSH2 0x322 PUSH2 0xD22 JUMP JUMPDEST JUMPDEST SWAP1 POP PUSH1 0x20 MUL DUP2 ADD SWAP1 PUSH2 0x335 SWAP2 SWAP1 PUSH2 0xD5B JUMP JUMPDEST DUP3 PUSH2 0x60B JUMP JUMPDEST PUSH2 0x34B JUMPI PUSH0 SWAP5 POP POP POP POP POP PUSH2 0x369 JUMP JUMPDEST DUP1 DUP4 SUB SWAP3 POP POP PUSH2 0x35A DUP2 PUSH2 0x616 JUMP JUMPDEST SWAP1 POP PUSH2 0x2AE JUMP JUMPDEST POP PUSH1 0x1 SWAP3 POP POP POP JUMPDEST SWAP5 SWAP4 POP POP POP POP JUMP JUMPDEST PUSH0 PUSH2 0x37A PUSH2 0x584 JUMP JUMPDEST PUSH0 DUP6 DUP6 SWAP1 POP SWAP1 POP DUP4 DUP4 SWAP1 POP DUP2 EQ PUSH2 0x3BD JUMPI PUSH1 0x40 MLOAD PUSH32 0x947D5A8400000000000000000000000000000000000000000000000000000000 DUP2 MSTORE PUSH1 0x4 ADD PUSH1 0x40 MLOAD DUP1 SWAP2 SUB SWAP1 REVERT JUMPDEST PUSH0 CALLVALUE SWAP1 POP PUSH0 JUMPDEST DUP3 DUP2 LT ISZERO PUSH2 0x476 JUMPI PUSH0 DUP7 DUP7 DUP4 DUP2 DUP2 LT PUSH2 0x3DF JUMPI PUSH2 0x3DE PUSH2 0xD22 JUMP JUMPDEST JUMPDEST SWAP1 POP PUSH1 0x20 MUL ADD CALLDATALOAD SWAP1 POP DUP3 DUP2 GT ISZERO PUSH2 0x422 JUMPI PUSH1 0x40 MLOAD PUSH32 0x1101129400000000000000000000000000000000000000000000000000000000 DUP2 MSTORE PUSH1 0x4 ADD PUSH1 0x40 MLOAD DUP1 SWAP2 SUB SWAP1 REVERT JUMPDEST PUSH2 0x450 DUP10 DUP10 DUP5 DUP2 DUP2 LT PUSH2 0x438 JUMPI PUSH2 0x437 PUSH2 0xD22 JUMP JUMPDEST JUMPDEST SWAP1 POP PUSH1 0x20 MUL DUP2 ADD SWAP1 PUSH2 0x44A SWAP2 SWAP1 PUSH2 0xD5B JUMP JUMPDEST DUP3 PUSH2 0x622 JUMP JUMPDEST PUSH2 0x460 JUMPI PUSH0 SWAP5 POP POP POP POP POP PUSH2 0x47E JUMP JUMPDEST DUP1 DUP4 SUB SWAP3 POP POP PUSH2 0x46F DUP2 PUSH2 0x616 JUMP JUMPDEST SWAP1 POP PUSH2 0x3C3 JUMP JUMPDEST POP PUSH1 0x1 SWAP3 POP POP POP JUMPDEST SWAP5 SWAP4 POP POP POP POP JUMP JUMPDEST PUSH0 PUSH2 0x48F PUSH2 0x584 JUMP JUMPDEST PUSH2 0x499 DUP3 CALLVALUE PUSH2 0x60B JUMP JUMPDEST SWAP1 POP SWAP2 SWAP1 POP JUMP JUMPDEST PUSH0 PUSH2 0x4A9 PUSH2 0x584 JUMP JUMPDEST PUSH2 0x4B3 DUP3 CALLVALUE PUSH2 0x622 JUMP JUMPDEST SWAP1 POP SWAP2 SWAP1 POP JUMP JUMPDEST PUSH1 0x60 PUSH0 PUSH1 0x1 PUSH2 0x4C8 DUP5 PUSH2 0x82E JUMP JUMPDEST ADD SWAP1 POP PUSH0 DUP2 PUSH8 0xFFFFFFFFFFFFFFFF DUP2 GT ISZERO PUSH2 0x4E6 JUMPI PUSH2 0x4E5 PUSH2 0xD83 JUMP JUMPDEST JUMPDEST PUSH1 0x40 MLOAD SWAP1 DUP1 DUP3 MSTORE DUP1 PUSH1 0x1F ADD PUSH1 0x1F NOT AND PUSH1 0x20 ADD DUP3 ADD PUSH1 0x40 MSTORE DUP1 ISZERO PUSH2 0x518 JUMPI DUP2 PUSH1 0x20 ADD PUSH1 0x1 DUP3 MUL DUP1 CALLDATASIZE DUP4 CALLDATACOPY DUP1 DUP3 ADD SWAP2 POP POP SWAP1 POP JUMPDEST POP SWAP1 POP PUSH0 DUP3 PUSH1 0x20 ADD DUP3 ADD SWAP1 POP JUMPDEST PUSH1 0x1 ISZERO PUSH2 0x579 JUMPI DUP1 DUP1 PUSH1 0x1 SWAP1 SUB SWAP2 POP POP PUSH32 0x3031323334353637383961626364656600000000000000000000000000000000 PUSH1 0xA DUP7 MOD BYTE DUP2 MSTORE8 PUSH1 0xA DUP6 DUP2 PUSH2 0x56E JUMPI PUSH2 0x56D PUSH2 0xDB0 JUMP JUMPDEST JUMPDEST DIV SWAP5 POP PUSH0 DUP6 SUB PUSH2 0x525 JUMPI JUMPDEST DUP2 SWAP4 POP POP POP POP SWAP2 SWAP1 POP JUMP JUMPDEST PUSH32 0x0 PUSH20 0xFFFFFFFFFFFFFFFFFFFFFFFFFFFFFFFFFFFFFFFF AND CALLER PUSH20 0xFFFFFFFFFFFFFFFFFFFFFFFFFFFFFFFFFFFFFFFF AND EQ PUSH2 0x609 JUMPI PUSH1 0x40 MLOAD PUSH32 0x4CA8886700000000000000000000000000000000000000000000000000000000 DUP2 MSTORE PUSH1 0x4 ADD PUSH1 0x40 MLOAD DUP1 SWAP2 SUB SWAP1 REVERT JUMPDEST JUMP JUMPDEST PUSH0 PUSH1 0x1 SWAP1 POP SWAP3 SWAP2 POP POP JUMP JUMPDEST PUSH0 PUSH1 0x1 DUP3 ADD SWAP1 POP SWAP2 SWAP1 POP JUMP JUMPDEST PUSH0 DUP1 PUSH20 0xFFFFFFFFFFFFFFFFFFFFFFFFFFFFFFFFFFFFFFFF AND DUP4 PUSH1 0xC0 ADD PUSH1 0x20 DUP2 ADD SWAP1 PUSH2 0x64D SWAP2 SWAP1 PUSH2 0xE37 JUMP JUMPDEST PUSH20 0xFFFFFFFFFFFFFFFFFFFFFFFFFFFFFFFFFFFFFFFF AND SUB PUSH2 0x671 JUMPI PUSH1 0x1 SWAP1 POP PUSH2 0x828 JUMP JUMPDEST PUSH0 DUP4 PUSH1 0xC0 ADD PUSH1 0x20 DUP2 ADD SWAP1 PUSH2 0x685 SWAP2 SWAP1 PUSH2 0xE37 JUMP JUMPDEST PUSH20 0xFFFFFFFFFFFFFFFFFFFFFFFFFFFFFFFFFFFFFFFF AND EXTCODESIZE SUB PUSH2 0x6A9 JUMPI PUSH0 SWAP1 POP PUSH2 0x828 JUMP JUMPDEST PUSH0 PUSH2 0x705 DUP5 DUP1 PUSH2 0x120 ADD SWAP1 PUSH2 0x6BE SWAP2 SWAP1 PUSH2 0xE62 JUMP JUMPDEST DUP1 DUP1 PUSH1 0x1F ADD PUSH1 0x20 DUP1 SWAP2 DIV MUL PUSH1 0x20 ADD PUSH1 0x40 MLOAD SWAP1 DUP2 ADD PUSH1 0x40 MSTORE DUP1 SWAP4 SWAP3 SWAP2 SWAP1 DUP2 DUP2 MSTORE PUSH1 0x20 ADD DUP4 DUP4 DUP1 DUP3 DUP5 CALLDATACOPY PUSH0 DUP2 DUP5 ADD MSTORE PUSH1 0x1F NOT PUSH1 0x1F DUP3 ADD AND SWAP1 POP DUP1 DUP4 ADD SWAP3 POP POP POP POP POP POP POP PUSH2 0x97F JUMP JUMPDEST SWAP1 POP DUP1 PUSH20 0xFFFFFFFFFFFFFFFFFFFFFFFFFFFFFFFFFFFFFFFF AND DUP5 PUSH1 0xC0 ADD PUSH1 0x20 DUP2 ADD SWAP1 PUSH2 0x731 SWAP2 SWAP1 PUSH2 0xE37 JUMP JUMPDEST PUSH20 0xFFFFFFFFFFFFFFFFFFFFFFFFFFFFFFFFFFFFFFFF AND EQ PUSH2 0x755 JUMPI PUSH0 SWAP2 POP POP PUSH2 0x828 JUMP JUMPDEST PUSH0 DUP5 PUSH1 0xC0 ADD PUSH1 0x20 DUP2 ADD SWAP1 PUSH2 0x769 SWAP2 SWAP1 PUSH2 0xE37 JUMP JUMPDEST SWAP1 POP DUP1 PUSH20 0xFFFFFFFFFFFFFFFFFFFFFFFFFFFFFFFFFFFFFFFF AND PUSH4 0x8DA5CB5B PUSH1 0x40 MLOAD DUP2 PUSH4 0xFFFFFFFF AND PUSH1 0xE0 SHL DUP2 MSTORE PUSH1 0x4 ADD PUSH1 0x20 PUSH1 0x40 MLOAD DUP1 DUP4 SUB DUP2 DUP7 GAS STATICCALL SWAP3 POP POP POP DUP1 ISZERO PUSH2 0x7D3 JUMPI POP PUSH1 0x40 MLOAD RETURNDATASIZE PUSH1 0x1F NOT PUSH1 0x1F DUP3 ADD AND DUP3 ADD DUP1 PUSH1 0x40 MSTORE POP DUP2 ADD SWAP1 PUSH2 0x7D0 SWAP2 SWAP1 PUSH2 0xED8 JUMP JUMPDEST PUSH1 0x1 JUMPDEST PUSH2 0x7E1 JUMPI PUSH0 SWAP3 POP POP POP PUSH2 0x828 JUMP JUMPDEST DUP1 PUSH20 0xFFFFFFFFFFFFFFFFFFFFFFFFFFFFFFFFFFFFFFFF AND DUP7 PUSH1 0xE0 ADD PUSH1 0x20 DUP2 ADD SWAP1 PUSH2 0x80B SWAP2 SWAP1 PUSH2 0xE37 JUMP JUMPDEST PUSH20 0xFFFFFFFFFFFFFFFFFFFFFFFFFFFFFFFFFFFFFFFF AND EQ SWAP4 POP POP POP POP JUMPDEST SWAP3 SWAP2 POP POP JUMP JUMPDEST PUSH0 DUP1 PUSH0 SWAP1 POP PUSH27 0x184F03E93FF9F4DAA797ED6E38ED64BF6A1F010000000000000000 DUP4 LT PUSH2 0x88A JUMPI PUSH27 0x184F03E93FF9F4DAA797ED6E38ED64BF6A1F010000000000000000 DUP4 DUP2 PUSH2 0x880 JUMPI PUSH2 0x87F PUSH2 0xDB0 JUMP JUMPDEST JUMPDEST DIV SWAP3 POP PUSH1 0x40 DUP2 ADD SWAP1 POP JUMPDEST PUSH14 0x4EE2D6D415B85ACEF8100000000 DUP4 LT PUSH2 0x8C7 JUMPI PUSH14 0x4EE2D6D415B85ACEF8100000000 DUP4 DUP2 PUSH2 0x8BD JUMPI PUSH2 0x8BC PUSH2 0xDB0 JUMP JUMPDEST JUMPDEST DIV SWAP3 POP PUSH1 0x20 DUP2 ADD SWAP1 POP JUMPDEST PUSH7 0x2386F26FC10000 DUP4 LT PUSH2 0x8F6 JUMPI PUSH7 0x2386F26FC10000 DUP4 DUP2 PUSH2 0x8EC JUMPI PUSH2 0x8EB PUSH2 0xDB0 JUMP JUMPDEST JUMPDEST DIV SWAP3 POP PUSH1 0x10 DUP2 ADD SWAP1 POP JUMPDEST PUSH4 0x5F5E100 DUP4 LT PUSH2 0x91F JUMPI PUSH4 0x5F5E100 DUP4 DUP2 PUSH2 0x915 JUMPI PUSH2 0x914 PUSH2 0xDB0 JUMP JUMPDEST JUMPDEST DIV SWAP3 POP PUSH1 0x8 DUP2 ADD SWAP1 POP JUMPDEST PUSH2 0x2710 DUP4 LT PUSH2 0x944 JUMPI PUSH2 0x2710 DUP4 DUP2 PUSH2 0x93A JUMPI PUSH2 0x939 PUSH2 0xDB0 JUMP JUMPDEST JUMPDEST DIV SWAP3 POP PUSH1 0x4 DUP2 ADD SWAP1 POP JUMPDEST PUSH1 0x64 DUP4 LT PUSH2 0x967 JUMPI PUSH1 0x64 DUP4 DUP2 PUSH2 0x95D JUMPI PUSH2 0x95C PUSH2 0xDB0 JUMP JUMPDEST JUMPDEST DIV SWAP3 POP PUSH1 0x2 DUP2 ADD SWAP1 POP JUMPDEST PUSH1 0xA DUP4 LT PUSH2 0x976 JUMPI PUSH1 0x1 DUP2 ADD SWAP1 POP JUMPDEST DUP1 SWAP2 POP POP SWAP2 SWAP1 POP JUMP JUMPDEST PUSH0 PUSH1 0x20 DUP3 MLOAD LT ISZERO PUSH2 0x9C5 JUMPI PUSH1 0x40 MLOAD PUSH32 0x8C379A000000000000000000000000000000000000000000000000000000000 DUP2 MSTORE PUSH1 0x4 ADD PUSH2 0x9BC SWAP1 PUSH2 0xF4D JUMP JUMPDEST PUSH1 0x40 MLOAD DUP1 SWAP2 SUB SWAP1 REVERT JUMPDEST PUSH0 PUSH1 0x20 DUP4 ADD MLOAD SWAP1 POP PUSH20 0xFFFFFFFFFFFFFFFFFFFFFFFFFFFFFFFFFFFFFFFF DUP2 AND SWAP1 POP DUP1 SWAP2 POP POP SWAP2 SWAP1 POP JUMP JUMPDEST PUSH0 DUP2 MLOAD SWAP1 POP SWAP2 SWAP1 POP JUMP JUMPDEST PUSH0 DUP3 DUP3 MSTORE PUSH1 0x20 DUP3 ADD SWAP1 POP SWAP3 SWAP2 POP POP JUMP JUMPDEST DUP3 DUP2 DUP4 MCOPY PUSH0 DUP4 DUP4 ADD MSTORE POP POP POP JUMP JUMPDEST PUSH0 PUSH1 0x1F NOT PUSH1 0x1F DUP4 ADD AND SWAP1 POP SWAP2 SWAP1 POP JUMP JUMPDEST PUSH0 PUSH2 0xA31 DUP3 PUSH2 0x9EF JUMP JUMPDEST PUSH2 0xA3B DUP2 DUP6 PUSH2 0x9F9 JUMP JUMPDEST SWAP4 POP PUSH2 0xA4B DUP2 DUP6 PUSH1 0x20 DUP7 ADD PUSH2 0xA09 JUMP JUMPDEST PUSH2 0xA54 DUP2 PUSH2 0xA17 JUMP JUMPDEST DUP5 ADD SWAP2 POP POP SWAP3 SWAP2 POP POP JUMP JUMPDEST PUSH0 PUSH1 0x20 DUP3 ADD SWAP1 POP DUP2 DUP2 SUB PUSH0 DUP4 ADD MSTORE PUSH2 0xA77 DUP2 DUP5 PUSH2 0xA27 JUMP JUMPDEST SWAP1 POP SWAP3 SWAP2 POP POP JUMP JUMPDEST PUSH0 DUP1 REVERT JUMPDEST PUSH0 DUP1 REVERT JUMPDEST PUSH0 DUP1 REVERT JUMPDEST PUSH0 DUP1 REVERT JUMPDEST PUSH0 DUP1 REVERT JUMPDEST PUSH0 DUP1 DUP4 PUSH1 0x1F DUP5 ADD SLT PUSH2 0xAA8 JUMPI PUSH2 0xAA7 PUSH2 0xA87 JUMP JUMPDEST JUMPDEST DUP3 CALLDATALOAD SWAP1 POP PUSH8 0xFFFFFFFFFFFFFFFF DUP2 GT ISZERO PUSH2 0xAC5 JUMPI PUSH2 0xAC4 PUSH2 0xA8B JUMP JUMPDEST JUMPDEST PUSH1 0x20 DUP4 ADD SWAP2 POP DUP4 PUSH1 0x20 DUP3 MUL DUP4 ADD GT ISZERO PUSH2 0xAE1 JUMPI PUSH2 0xAE0 PUSH2 0xA8F JUMP JUMPDEST JUMPDEST SWAP3 POP SWAP3 SWAP1 POP JUMP JUMPDEST PUSH0 DUP1 DUP4 PUSH1 0x1F DUP5 ADD SLT PUSH2 0xAFD JUMPI PUSH2 0xAFC PUSH2 0xA87 JUMP JUMPDEST JUMPDEST DUP3 CALLDATALOAD SWAP1 POP PUSH8 0xFFFFFFFFFFFFFFFF DUP2 GT ISZERO PUSH2 0xB1A JUMPI PUSH2 0xB19 PUSH2 0xA8B JUMP JUMPDEST JUMPDEST PUSH1 0x20 DUP4 ADD SWAP2 POP DUP4 PUSH1 0x20 DUP3 MUL DUP4 ADD GT ISZERO PUSH2 0xB36 JUMPI PUSH2 0xB35 PUSH2 0xA8F JUMP JUMPDEST JUMPDEST SWAP3 POP SWAP3 SWAP1 POP JUMP JUMPDEST PUSH0 DUP1 PUSH0 DUP1 PUSH1 0x40 DUP6 DUP8 SUB SLT ISZERO PUSH2 0xB55 JUMPI PUSH2 0xB54 PUSH2 0xA7F JUMP JUMPDEST JUMPDEST PUSH0 DUP6 ADD CALLDATALOAD PUSH8 0xFFFFFFFFFFFFFFFF DUP2 GT ISZERO PUSH2 0xB72 JUMPI PUSH2 0xB71 PUSH2 0xA83 JUMP JUMPDEST JUMPDEST PUSH2 0xB7E DUP8 DUP3 DUP9 ADD PUSH2 0xA93 JUMP JUMPDEST SWAP5 POP SWAP5 POP POP PUSH1 0x20 DUP6 ADD CALLDATALOAD PUSH8 0xFFFFFFFFFFFFFFFF DUP2 GT ISZERO PUSH2 0xBA1 JUMPI PUSH2 0xBA0 PUSH2 0xA83 JUMP JUMPDEST JUMPDEST PUSH2 0xBAD DUP8 DUP3 DUP9 ADD PUSH2 0xAE8 JUMP JUMPDEST SWAP3 POP SWAP3 POP POP SWAP3 SWAP6 SWAP2 SWAP5 POP SWAP3 POP JUMP JUMPDEST PUSH0 DUP2 ISZERO ISZERO SWAP1 POP SWAP2 SWAP1 POP JUMP JUMPDEST PUSH2 0xBCF DUP2 PUSH2 0xBBB JUMP JUMPDEST DUP3 MSTORE POP POP JUMP JUMPDEST PUSH0 PUSH1 0x20 DUP3 ADD SWAP1 POP PUSH2 0xBE8 PUSH0 DUP4 ADD DUP5 PUSH2 0xBC6 JUMP JUMPDEST SWAP3 SWAP2 POP POP JUMP JUMPDEST PUSH0 DUP1 REVERT JUMPDEST PUSH0 PUSH2 0x140 DUP3 DUP5 SUB SLT ISZERO PUSH2 0xC08 JUMPI PUSH2 0xC07 PUSH2 0xBEE JUMP JUMPDEST JUMPDEST DUP2 SWAP1 POP SWAP3 SWAP2 POP POP JUMP JUMPDEST PUSH0 PUSH1 0x20 DUP3 DUP5 SUB SLT ISZERO PUSH2 0xC26 JUMPI PUSH2 0xC25 PUSH2 0xA7F JUMP JUMPDEST JUMPDEST PUSH0 DUP3 ADD CALLDATALOAD PUSH8 0xFFFFFFFFFFFFFFFF DUP2 GT ISZERO PUSH2 0xC43 JUMPI PUSH2 0xC42 PUSH2 0xA83 JUMP JUMPDEST JUMPDEST PUSH2 0xC4F DUP5 DUP3 DUP6 ADD PUSH2 0xBF2 JUMP JUMPDEST SWAP2 POP POP SWAP3 SWAP2 POP POP JUMP JUMPDEST PUSH0 DUP2 SWAP1 POP SWAP3 SWAP2 POP POP JUMP JUMPDEST PUSH0 PUSH2 0xC6C DUP3 PUSH2 0x9EF JUMP JUMPDEST PUSH2 0xC76 DUP2 DUP6 PUSH2 0xC58 JUMP JUMPDEST SWAP4 POP PUSH2 0xC86 DUP2 DUP6 PUSH1 0x20 DUP7 ADD PUSH2 0xA09 JUMP JUMPDEST DUP1 DUP5 ADD SWAP2 POP POP SWAP3 SWAP2 POP POP JUMP JUMPDEST PUSH32 0x2E00000000000000000000000000000000000000000000000000000000000000 PUSH0 DUP3 ADD MSTORE POP JUMP JUMPDEST PUSH0 PUSH2 0xCC6 PUSH1 0x1 DUP4 PUSH2 0xC58 JUMP JUMPDEST SWAP2 POP PUSH2 0xCD1 DUP3 PUSH2 0xC92 JUMP JUMPDEST PUSH1 0x1 DUP3 ADD SWAP1 POP SWAP2 SWAP1 POP JUMP JUMPDEST PUSH0 PUSH2 0xCE7 DUP3 DUP7 PUSH2 0xC62 JUMP JUMPDEST SWAP2 POP PUSH2 0xCF2 DUP3 PUSH2 0xCBA JUMP JUMPDEST SWAP2 POP PUSH2 0xCFE DUP3 DUP6 PUSH2 0xC62 JUMP JUMPDEST SWAP2 POP PUSH2 0xD09 DUP3 PUSH2 0xCBA JUMP JUMPDEST SWAP2 POP PUSH2 0xD15 DUP3 DUP5 PUSH2 0xC62 JUMP JUMPDEST SWAP2 POP DUP2 SWAP1 POP SWAP5 SWAP4 POP POP POP POP JUMP JUMPDEST PUSH32 0x4E487B7100000000000000000000000000000000000000000000000000000000 PUSH0 MSTORE PUSH1 0x32 PUSH1 0x4 MSTORE PUSH1 0x24 PUSH0 REVERT JUMPDEST PUSH0 DUP1 REVERT JUMPDEST PUSH0 DUP1 REVERT JUMPDEST PUSH0 DUP1 REVERT JUMPDEST PUSH0 DUP3 CALLDATALOAD PUSH1 0x1 PUSH2 0x140 SUB DUP4 CALLDATASIZE SUB SUB DUP2 SLT PUSH2 0xD77 JUMPI PUSH2 0xD76 PUSH2 0xD4F JUMP JUMPDEST JUMPDEST DUP1 DUP4 ADD SWAP2 POP POP SWAP3 SWAP2 POP POP JUMP JUMPDEST PUSH32 0x4E487B7100000000000000000000000000000000000000000000000000000000 PUSH0 MSTORE PUSH1 0x41 PUSH1 0x4 MSTORE PUSH1 0x24 PUSH0 REVERT JUMPDEST PUSH32 0x4E487B7100000000000000000000000000000000000000000000000000000000 PUSH0 MSTORE PUSH1 0x12 PUSH1 0x4 MSTORE PUSH1 0x24 PUSH0 REVERT JUMPDEST PUSH0 PUSH20 0xFFFFFFFFFFFFFFFFFFFFFFFFFFFFFFFFFFFFFFFF DUP3 AND SWAP1 POP SWAP2 SWAP1 POP JUMP JUMPDEST PUSH0 PUSH2 0xE06 DUP3 PUSH2 0xDDD JUMP JUMPDEST SWAP1 POP SWAP2 SWAP1 POP JUMP JUMPDEST PUSH2 0xE16 DUP2 PUSH2 0xDFC JUMP JUMPDEST DUP2 EQ PUSH2 0xE20 JUMPI PUSH0 DUP1 REVERT JUMPDEST POP JUMP JUMPDEST PUSH0 DUP2 CALLDATALOAD SWAP1 POP PUSH2 0xE31 DUP2 PUSH2 0xE0D JUMP JUMPDEST SWAP3 SWAP2 POP POP JUMP JUMPDEST PUSH0 PUSH1 0x20 DUP3 DUP5 SUB SLT ISZERO PUSH2 0xE4C JUMPI PUSH2 0xE4B PUSH2 0xA7F JUMP JUMPDEST JUMPDEST PUSH0 PUSH2 0xE59 DUP5 DUP3 DUP6 ADD PUSH2 0xE23 JUMP JUMPDEST SWAP2 POP POP SWAP3 SWAP2 POP POP JUMP JUMPDEST PUSH0 DUP1 DUP4 CALLDATALOAD PUSH1 0x1 PUSH1 0x20 SUB DUP5 CALLDATASIZE SUB SUB DUP2 SLT PUSH2 0xE7E JUMPI PUSH2 0xE7D PUSH2 0xD4F JUMP JUMPDEST JUMPDEST DUP1 DUP5 ADD SWAP3 POP DUP3 CALLDATALOAD SWAP2 POP PUSH8 0xFFFFFFFFFFFFFFFF DUP3 GT ISZERO PUSH2 0xEA0 JUMPI PUSH2 0xE9F PUSH2 0xD53 JUMP JUMPDEST JUMPDEST PUSH1 0x20 DUP4 ADD SWAP3 POP PUSH1 0x1 DUP3 MUL CALLDATASIZE SUB DUP4 SGT ISZERO PUSH2 0xEBC JUMPI PUSH2 0xEBB PUSH2 0xD57 JUMP JUMPDEST JUMPDEST POP SWAP3 POP SWAP3 SWAP1 POP JUMP JUMPDEST PUSH0 DUP2 MLOAD SWAP1 POP PUSH2 0xED2 DUP2 PUSH2 0xE0D JUMP JUMPDEST SWAP3 SWAP2 POP POP JUMP JUMPDEST PUSH0 PUSH1 0x20 DUP3 DUP5 SUB SLT ISZERO PUSH2 0xEED JUMPI PUSH2 0xEEC PUSH2 0xA7F JUMP JUMPDEST JUMPDEST PUSH0 PUSH2 0xEFA DUP5 DUP3 DUP6 ADD PUSH2 0xEC4 JUMP JUMPDEST SWAP2 POP POP SWAP3 SWAP2 POP POP JUMP JUMPDEST PUSH32 0x4461746120746F6F2073686F7274000000000000000000000000000000000000 PUSH0 DUP3 ADD MSTORE POP JUMP JUMPDEST PUSH0 PUSH2 0xF37 PUSH1 0xE DUP4 PUSH2 0x9F9 JUMP JUMPDEST SWAP2 POP PUSH2 0xF42 DUP3 PUSH2 0xF03 JUMP JUMPDEST PUSH1 0x20 DUP3 ADD SWAP1 POP SWAP2 SWAP1 POP JUMP JUMPDEST PUSH0 PUSH1 0x20 DUP3 ADD SWAP1 POP DUP2 DUP2 SUB PUSH0 DUP4 ADD MSTORE PUSH2 0xF64 DUP2 PUSH2 0xF2B JUMP JUMPDEST SWAP1 POP SWAP2 SWAP1 POP JUMP INVALID LOG2 PUSH5 0x6970667358 0x22 SLT KECCAK256 COINBASE SWAP12 0xB2 0xC6 SWAP2 0xEB PUSH11 0x4020C67F4FBBD742291EF MUL TLOAD 0xD4 0xD0 SWAP11 SWAP5 GAS 0x4D NOT INVALID SELFDESTRUCT RETURNDATACOPY 0x4E PUSH3 0x64736F PUSH13 0x634300081A0033000000000000 "
				},
				"gasEstimates": {
					"creation": {
						"codeDepositCost": "800200",
						"executionCost": "infinite",
						"totalCost": "infinite"
					},
					"external": {
						"attest((bytes32,bytes32,uint64,uint64,uint64,bytes32,address,address,bool,bytes))": "infinite",
						"isPayable()": "374",
						"multiAttest((bytes32,bytes32,uint64,uint64,uint64,bytes32,address,address,bool,bytes)[],uint256[])": "infinite",
						"multiRevoke((bytes32,bytes32,uint64,uint64,uint64,bytes32,address,address,bool,bytes)[],uint256[])": "infinite",
						"revoke((bytes32,bytes32,uint64,uint64,uint64,bytes32,address,address,bool,bytes))": "infinite",
						"version()": "infinite"
					},
					"internal": {
						"extractAddressFromData(bytes memory)": "infinite",
						"onAttest(struct Attestation calldata,uint256)": "infinite",
						"onRevoke(struct Attestation calldata,uint256)": "29"
					}
				},
				"methodIdentifiers": {
					"attest((bytes32,bytes32,uint64,uint64,uint64,bytes32,address,address,bool,bytes))": "e60c3505",
					"isPayable()": "ce46e046",
					"multiAttest((bytes32,bytes32,uint64,uint64,uint64,bytes32,address,address,bool,bytes)[],uint256[])": "91db0b7e",
					"multiRevoke((bytes32,bytes32,uint64,uint64,uint64,bytes32,address,address,bool,bytes)[],uint256[])": "88e5b2d9",
					"revoke((bytes32,bytes32,uint64,uint64,uint64,bytes32,address,address,bool,bytes))": "e49617e1",
					"version()": "54fd4d50"
				}
			},
			"storageLayout": {
				"storage": [],
				"types": null
			},
			"userdoc": {
				"kind": "user",
				"methods": {
					"attest((bytes32,bytes32,uint64,uint64,uint64,bytes32,address,address,bool,bytes))": {
						"notice": "Processes an attestation and verifies whether it's valid."
					},
					"isPayable()": {
						"notice": "Checks if the resolver can be sent ETH."
					},
					"multiAttest((bytes32,bytes32,uint64,uint64,uint64,bytes32,address,address,bool,bytes)[],uint256[])": {
						"notice": "Processes multiple attestations and verifies whether they are valid."
					},
					"multiRevoke((bytes32,bytes32,uint64,uint64,uint64,bytes32,address,address,bool,bytes)[],uint256[])": {
						"notice": "Processes revocation of multiple attestation and verifies they can be revoked."
					},
					"revoke((bytes32,bytes32,uint64,uint64,uint64,bytes32,address,address,bool,bytes))": {
						"notice": "Processes an attestation revocation and verifies if it can be revoked."
					},
					"version()": {
						"notice": "Returns the full semver contract version."
					}
				},
				"version": 1
			}
		}
	}
}