{
	"EAS/Semver.sol": {
		"Semver": {
			"abi": [
				{
					"inputs": [
						{
							"internalType": "uint256",
							"name": "major",
							"type": "uint256"
						},
						{
							"internalType": "uint256",
							"name": "minor",
							"type": "uint256"
						},
						{
							"internalType": "uint256",
							"name": "patch",
							"type": "uint256"
						}
					],
					"stateMutability": "nonpayable",
					"type": "constructor"
				},
				{
					"inputs": [],
					"name": "version",
					"outputs": [
						{
							"internalType": "string",
							"name": "",
							"type": "string"
						}
					],
					"stateMutability": "view",
					"type": "function"
				}
			],
			"devdoc": {
				"kind": "dev",
				"methods": {
					"constructor": {
						"details": "Create a new Semver instance.",
						"params": {
							"major": "Major version number.",
							"minor": "Minor version number.",
							"patch": "Patch version number."
						}
					},
					"version()": {
						"returns": {
							"_0": "Semver contract version as a string."
						}
					}
				},
				"title": "Semver",
				"version": 1
			},
			"evm": {
				"assembly": "    /* \"EAS/Semver.sol\":250:1182  contract Semver is ISemver {... */\n  mstore(0x40, 0xe0)\n    /* \"EAS/Semver.sol\":692:828  constructor(uint256 major, uint256 minor, uint256 patch) {... */\n  callvalue\n  dup1\n  iszero\n  tag_1\n  jumpi\n  0x00\n  dup1\n  revert\ntag_1:\n  pop\n  mload(0x40)\n  sub(codesize, bytecodeSize)\n  dup1\n  bytecodeSize\n  dup4\n  codecopy\n  dup2\n  dup2\n  add\n  0x40\n  mstore\n  dup2\n  add\n  swap1\n  tag_2\n  swap2\n  swap1\n  tag_3\n  jump\t// in\ntag_2:\n    /* \"EAS/Semver.sol\":768:773  major */\n  dup3\n    /* \"EAS/Semver.sol\":759:773  _major = major */\n  0x80\n  dup2\n  dup2\n  mstore\n  pop\n  pop\n    /* \"EAS/Semver.sol\":792:797  minor */\n  dup2\n    /* \"EAS/Semver.sol\":783:797  _minor = minor */\n  0xa0\n  dup2\n  dup2\n  mstore\n  pop\n  pop\n    /* \"EAS/Semver.sol\":816:821  patch */\n  dup1\n    /* \"EAS/Semver.sol\":807:821  _patch = patch */\n  0xc0\n  dup2\n  dup2\n  mstore\n  pop\n  pop\n    /* \"EAS/Semver.sol\":692:828  constructor(uint256 major, uint256 minor, uint256 patch) {... */\n  pop\n  pop\n  pop\n    /* \"EAS/Semver.sol\":250:1182  contract Semver is ISemver {... */\n  jump(tag_6)\n    /* \"#utility.yul\":88:205   */\ntag_8:\n    /* \"#utility.yul\":197:198   */\n  0x00\n    /* \"#utility.yul\":194:195   */\n  dup1\n    /* \"#utility.yul\":187:199   */\n  revert\n    /* \"#utility.yul\":334:411   */\ntag_10:\n    /* \"#utility.yul\":371:378   */\n  0x00\n    /* \"#utility.yul\":400:405   */\n  dup2\n    /* \"#utility.yul\":389:405   */\n  swap1\n  pop\n    /* \"#utility.yul\":334:411   */\n  swap2\n  swap1\n  pop\n  jump\t// out\n    /* \"#utility.yul\":417:539   */\ntag_11:\n    /* \"#utility.yul\":490:514   */\n  tag_19\n    /* \"#utility.yul\":508:513   */\n  dup2\n    /* \"#utility.yul\":490:514   */\n  tag_10\n  jump\t// in\ntag_19:\n    /* \"#utility.yul\":483:488   */\n  dup2\n    /* \"#utility.yul\":480:515   */\n  eq\n    /* \"#utility.yul\":470:533   */\n  tag_20\n  jumpi\n    /* \"#utility.yul\":529:530   */\n  0x00\n    /* \"#utility.yul\":526:527   */\n  dup1\n    /* \"#utility.yul\":519:531   */\n  revert\n    /* \"#utility.yul\":470:533   */\ntag_20:\n    /* \"#utility.yul\":417:539   */\n  pop\n  jump\t// out\n    /* \"#utility.yul\":545:688   */\ntag_12:\n    /* \"#utility.yul\":602:607   */\n  0x00\n    /* \"#utility.yul\":633:639   */\n  dup2\n    /* \"#utility.yul\":627:640   */\n  mload\n    /* \"#utility.yul\":618:640   */\n  swap1\n  pop\n    /* \"#utility.yul\":649:682   */\n  tag_22\n    /* \"#utility.yul\":676:681   */\n  dup2\n    /* \"#utility.yul\":649:682   */\n  tag_11\n  jump\t// in\ntag_22:\n    /* \"#utility.yul\":545:688   */\n  swap3\n  swap2\n  pop\n  pop\n  jump\t// out\n    /* \"#utility.yul\":694:1357   */\ntag_3:\n    /* \"#utility.yul\":782:788   */\n  0x00\n    /* \"#utility.yul\":790:796   */\n  dup1\n    /* \"#utility.yul\":798:804   */\n  0x00\n    /* \"#utility.yul\":847:849   */\n  0x60\n    /* \"#utility.yul\":835:844   */\n  dup5\n    /* \"#utility.yul\":826:833   */\n  dup7\n    /* \"#utility.yul\":822:845   */\n  sub\n    /* \"#utility.yul\":818:850   */\n  slt\n    /* \"#utility.yul\":815:934   */\n  iszero\n  tag_24\n  jumpi\n    /* \"#utility.yul\":853:932   */\n  tag_25\n  tag_8\n  jump\t// in\ntag_25:\n    /* \"#utility.yul\":815:934   */\ntag_24:\n    /* \"#utility.yul\":973:974   */\n  0x00\n    /* \"#utility.yul\":998:1062   */\n  tag_26\n    /* \"#utility.yul\":1054:1061   */\n  dup7\n    /* \"#utility.yul\":1045:1051   */\n  dup3\n    /* \"#utility.yul\":1034:1043   */\n  dup8\n    /* \"#utility.yul\":1030:1052   */\n  add\n    /* \"#utility.yul\":998:1062   */\n  tag_12\n  jump\t// in\ntag_26:\n    /* \"#utility.yul\":988:1062   */\n  swap4\n  pop\n    /* \"#utility.yul\":944:1072   */\n  pop\n    /* \"#utility.yul\":1111:1113   */\n  0x20\n    /* \"#utility.yul\":1137:1201   */\n  tag_27\n    /* \"#utility.yul\":1193:1200   */\n  dup7\n    /* \"#utility.yul\":1184:1190   */\n  dup3\n    /* \"#utility.yul\":1173:1182   */\n  dup8\n    /* \"#utility.yul\":1169:1191   */\n  add\n    /* \"#utility.yul\":1137:1201   */\n  tag_12\n  jump\t// in\ntag_27:\n    /* \"#utility.yul\":1127:1201   */\n  swap3\n  pop\n    /* \"#utility.yul\":1082:1211   */\n  pop\n    /* \"#utility.yul\":1250:1252   */\n  0x40\n    /* \"#utility.yul\":1276:1340   */\n  tag_28\n    /* \"#utility.yul\":1332:1339   */\n  dup7\n    /* \"#utility.yul\":1323:1329   */\n  dup3\n    /* \"#utility.yul\":1312:1321   */\n  dup8\n    /* \"#utility.yul\":1308:1330   */\n  add\n    /* \"#utility.yul\":1276:1340   */\n  tag_12\n  jump\t// in\ntag_28:\n    /* \"#utility.yul\":1266:1340   */\n  swap2\n  pop\n    /* \"#utility.yul\":1221:1350   */\n  pop\n    /* \"#utility.yul\":694:1357   */\n  swap3\n  pop\n  swap3\n  pop\n  swap3\n  jump\t// out\n    /* \"EAS/Semver.sol\":250:1182  contract Semver is ISemver {... */\ntag_6:\n  mload(0x80)\n  mload(0xa0)\n  mload(0xc0)\n  codecopy(0x00, dataOffset(sub_0), dataSize(sub_0))\n  0x00\n  assignImmutable(\"0xb264290b39caa425e41c2393e10056c6bf6aefcb7750f619dd0d6dd4d035e225\")\n  0x00\n  assignImmutable(\"0x4898df15ec6590495dc6c0fedf951ade3e64001d47f9caf44a64e86fc11959df\")\n  0x00\n  assignImmutable(\"0x08b2c4590c6811ffb7cb8659cd18fb3368dba395a633f764dbf449be06307fe1\")\n  return(0x00, dataSize(sub_0))\nstop\n\nsub_0: assembly {\n        /* \"EAS/Semver.sol\":250:1182  contract Semver is ISemver {... */\n      mstore(0x40, 0x80)\n      callvalue\n      dup1\n      iszero\n      tag_1\n      jumpi\n      0x00\n      dup1\n      revert\n    tag_1:\n      pop\n      jumpi(tag_2, lt(calldatasize, 0x04))\n      shr(0xe0, calldataload(0x00))\n      dup1\n      0x54fd4d50\n      eq\n      tag_3\n      jumpi\n    tag_2:\n      0x00\n      dup1\n      revert\n        /* \"EAS/Semver.sol\":945:1180  function version() external view returns (string memory) {... */\n    tag_3:\n      tag_4\n      tag_5\n      jump\t// in\n    tag_4:\n      mload(0x40)\n      tag_6\n      swap2\n      swap1\n      tag_7\n      jump\t// in\n    tag_6:\n      mload(0x40)\n      dup1\n      swap2\n      sub\n      swap1\n      return\n    tag_5:\n        /* \"EAS/Semver.sol\":987:1000  string memory */\n      0x60\n        /* \"EAS/Semver.sol\":1072:1096  Strings.toString(_major) */\n      tag_9\n        /* \"EAS/Semver.sol\":1089:1095  _major */\n      immutable(\"0x08b2c4590c6811ffb7cb8659cd18fb3368dba395a633f764dbf449be06307fe1\")\n        /* \"EAS/Semver.sol\":1072:1088  Strings.toString */\n      tag_10\n        /* \"EAS/Semver.sol\":1072:1096  Strings.toString(_major) */\n      jump\t// in\n    tag_9:\n        /* \"EAS/Semver.sol\":1103:1127  Strings.toString(_minor) */\n      tag_11\n        /* \"EAS/Semver.sol\":1120:1126  _minor */\n      immutable(\"0x4898df15ec6590495dc6c0fedf951ade3e64001d47f9caf44a64e86fc11959df\")\n        /* \"EAS/Semver.sol\":1103:1119  Strings.toString */\n      tag_10\n        /* \"EAS/Semver.sol\":1103:1127  Strings.toString(_minor) */\n      jump\t// in\n    tag_11:\n        /* \"EAS/Semver.sol\":1134:1158  Strings.toString(_patch) */\n      tag_12\n        /* \"EAS/Semver.sol\":1151:1157  _patch */\n      immutable(\"0xb264290b39caa425e41c2393e10056c6bf6aefcb7750f619dd0d6dd4d035e225\")\n        /* \"EAS/Semver.sol\":1134:1150  Strings.toString */\n      tag_10\n        /* \"EAS/Semver.sol\":1134:1158  Strings.toString(_patch) */\n      jump\t// in\n    tag_12:\n        /* \"EAS/Semver.sol\":1055:1159  abi.encodePacked(Strings.toString(_major), \".\", Strings.toString(_minor), \".\", Strings.toString(_patch)) */\n      add(0x20, mload(0x40))\n      tag_13\n      swap4\n      swap3\n      swap2\n      swap1\n      tag_14\n      jump\t// in\n    tag_13:\n      mload(0x40)\n      0x20\n      dup2\n      dup4\n      sub\n      sub\n      dup2\n      mstore\n      swap1\n      0x40\n      mstore\n        /* \"EAS/Semver.sol\":1012:1173  return... */\n      swap1\n      pop\n        /* \"EAS/Semver.sol\":945:1180  function version() external view returns (string memory) {... */\n      swap1\n      jump\t// out\n        /* \"@openzeppelin/contracts/utils/Strings.sol\":637:1335  function toString(uint256 value) internal pure returns (string memory) {... */\n    tag_10:\n        /* \"@openzeppelin/contracts/utils/Strings.sol\":693:706  string memory */\n      0x60\n        /* \"@openzeppelin/contracts/utils/Strings.sol\":742:756  uint256 length */\n      0x00\n        /* \"@openzeppelin/contracts/utils/Strings.sol\":779:780  1 */\n      0x01\n        /* \"@openzeppelin/contracts/utils/Strings.sol\":759:776  Math.log10(value) */\n      tag_16\n        /* \"@openzeppelin/contracts/utils/Strings.sol\":770:775  value */\n      dup5\n        /* \"@openzeppelin/contracts/utils/Strings.sol\":759:769  Math.log10 */\n      tag_17\n        /* \"@openzeppelin/contracts/utils/Strings.sol\":759:776  Math.log10(value) */\n      jump\t// in\n    tag_16:\n        /* \"@openzeppelin/contracts/utils/Strings.sol\":759:780  Math.log10(value) + 1 */\n      add\n        /* \"@openzeppelin/contracts/utils/Strings.sol\":742:780  uint256 length = Math.log10(value) + 1 */\n      swap1\n      pop\n        /* \"@openzeppelin/contracts/utils/Strings.sol\":794:814  string memory buffer */\n      0x00\n        /* \"@openzeppelin/contracts/utils/Strings.sol\":828:834  length */\n      dup2\n        /* \"@openzeppelin/contracts/utils/Strings.sol\":817:835  new string(length) */\n      0xffffffffffffffff\n      dup2\n      gt\n      iszero\n      tag_18\n      jumpi\n      tag_19\n      tag_20\n      jump\t// in\n    tag_19:\n    tag_18:\n      mload(0x40)\n      swap1\n      dup1\n      dup3\n      mstore\n      dup1\n      0x1f\n      add\n      not(0x1f)\n      and\n      0x20\n      add\n      dup3\n      add\n      0x40\n      mstore\n      dup1\n      iszero\n      tag_21\n      jumpi\n      dup2\n      0x20\n      add\n      0x01\n      dup3\n      mul\n      dup1\n      calldatasize\n      dup4\n      calldatacopy\n      dup1\n      dup3\n      add\n      swap2\n      pop\n      pop\n      swap1\n      pop\n    tag_21:\n      pop\n        /* \"@openzeppelin/contracts/utils/Strings.sol\":794:835  string memory buffer = new string(length) */\n      swap1\n      pop\n        /* \"@openzeppelin/contracts/utils/Strings.sol\":849:860  uint256 ptr */\n      0x00\n        /* \"@openzeppelin/contracts/utils/Strings.sol\":975:981  length */\n      dup3\n        /* \"@openzeppelin/contracts/utils/Strings.sol\":971:973  32 */\n      0x20\n        /* \"@openzeppelin/contracts/utils/Strings.sol\":967:982  add(32, length) */\n      add\n        /* \"@openzeppelin/contracts/utils/Strings.sol\":959:965  buffer */\n      dup3\n        /* \"@openzeppelin/contracts/utils/Strings.sol\":955:983  add(buffer, add(32, length)) */\n      add\n        /* \"@openzeppelin/contracts/utils/Strings.sol\":948:983  ptr := add(buffer, add(32, length)) */\n      swap1\n      pop\n        /* \"@openzeppelin/contracts/utils/Strings.sol\":1010:1292  while (true) {... */\n    tag_22:\n        /* \"@openzeppelin/contracts/utils/Strings.sol\":1017:1021  true */\n      0x01\n        /* \"@openzeppelin/contracts/utils/Strings.sol\":1010:1292  while (true) {... */\n      iszero\n      tag_23\n      jumpi\n        /* \"@openzeppelin/contracts/utils/Strings.sol\":1041:1046  ptr-- */\n      dup1\n      dup1\n      0x01\n      swap1\n      sub\n      swap2\n      pop\n      pop\n        /* \"@openzeppelin/contracts/utils/Strings.sol\":1180:1190  HEX_DIGITS */\n      0x3031323334353637383961626364656600000000000000000000000000000000\n        /* \"@openzeppelin/contracts/utils/Strings.sol\":1175:1177  10 */\n      0x0a\n        /* \"@openzeppelin/contracts/utils/Strings.sol\":1168:1173  value */\n      dup7\n        /* \"@openzeppelin/contracts/utils/Strings.sol\":1164:1178  mod(value, 10) */\n      mod\n        /* \"@openzeppelin/contracts/utils/Strings.sol\":1159:1191  byte(mod(value, 10), HEX_DIGITS) */\n      byte\n        /* \"@openzeppelin/contracts/utils/Strings.sol\":1154:1157  ptr */\n      dup2\n        /* \"@openzeppelin/contracts/utils/Strings.sol\":1146:1192  mstore8(ptr, byte(mod(value, 10), HEX_DIGITS)) */\n      mstore8\n        /* \"@openzeppelin/contracts/utils/Strings.sol\":1236:1238  10 */\n      0x0a\n        /* \"@openzeppelin/contracts/utils/Strings.sol\":1227:1238  value /= 10 */\n      dup6\n      dup2\n      tag_24\n      jumpi\n      tag_25\n      tag_26\n      jump\t// in\n    tag_25:\n    tag_24:\n      div\n      swap5\n      pop\n        /* \"@openzeppelin/contracts/utils/Strings.sol\":1269:1270  0 */\n      0x00\n        /* \"@openzeppelin/contracts/utils/Strings.sol\":1260:1265  value */\n      dup6\n        /* \"@openzeppelin/contracts/utils/Strings.sol\":1260:1270  value == 0 */\n      sub\n        /* \"@openzeppelin/contracts/utils/Strings.sol\":1010:1292  while (true) {... */\n      tag_22\n        /* \"@openzeppelin/contracts/utils/Strings.sol\":1256:1277  if (value == 0) break */\n      jumpi\n        /* \"@openzeppelin/contracts/utils/Strings.sol\":1010:1292  while (true) {... */\n    tag_23:\n        /* \"@openzeppelin/contracts/utils/Strings.sol\":1312:1318  buffer */\n      dup2\n        /* \"@openzeppelin/contracts/utils/Strings.sol\":1305:1318  return buffer */\n      swap4\n      pop\n      pop\n      pop\n      pop\n        /* \"@openzeppelin/contracts/utils/Strings.sol\":637:1335  function toString(uint256 value) internal pure returns (string memory) {... */\n      swap2\n      swap1\n      pop\n      jump\t// out\n        /* \"@openzeppelin/contracts/utils/math/Math.sol\":12214:13130  function log10(uint256 value) internal pure returns (uint256) {... */\n    tag_17:\n        /* \"@openzeppelin/contracts/utils/math/Math.sol\":12267:12274  uint256 */\n      0x00\n        /* \"@openzeppelin/contracts/utils/math/Math.sol\":12286:12300  uint256 result */\n      dup1\n        /* \"@openzeppelin/contracts/utils/math/Math.sol\":12303:12304  0 */\n      0x00\n        /* \"@openzeppelin/contracts/utils/math/Math.sol\":12286:12304  uint256 result = 0 */\n      swap1\n      pop\n        /* \"@openzeppelin/contracts/utils/math/Math.sol\":12351:12359  10 ** 64 */\n      0x184f03e93ff9f4daa797ed6e38ed64bf6a1f010000000000000000\n        /* \"@openzeppelin/contracts/utils/math/Math.sol\":12342:12347  value */\n      dup4\n        /* \"@openzeppelin/contracts/utils/math/Math.sol\":12342:12359  value >= 10 ** 64 */\n      lt\n        /* \"@openzeppelin/contracts/utils/math/Math.sol\":12338:12441  if (value >= 10 ** 64) {... */\n      tag_29\n      jumpi\n        /* \"@openzeppelin/contracts/utils/math/Math.sol\":12388:12396  10 ** 64 */\n      0x184f03e93ff9f4daa797ed6e38ed64bf6a1f010000000000000000\n        /* \"@openzeppelin/contracts/utils/math/Math.sol\":12379:12396  value /= 10 ** 64 */\n      dup4\n      dup2\n      tag_30\n      jumpi\n      tag_31\n      tag_26\n      jump\t// in\n    tag_31:\n    tag_30:\n      div\n      swap3\n      pop\n        /* \"@openzeppelin/contracts/utils/math/Math.sol\":12424:12426  64 */\n      0x40\n        /* \"@openzeppelin/contracts/utils/math/Math.sol\":12414:12426  result += 64 */\n      dup2\n      add\n      swap1\n      pop\n        /* \"@openzeppelin/contracts/utils/math/Math.sol\":12338:12441  if (value >= 10 ** 64) {... */\n    tag_29:\n        /* \"@openzeppelin/contracts/utils/math/Math.sol\":12467:12475  10 ** 32 */\n      0x04ee2d6d415b85acef8100000000\n        /* \"@openzeppelin/contracts/utils/math/Math.sol\":12458:12463  value */\n      dup4\n        /* \"@openzeppelin/contracts/utils/math/Math.sol\":12458:12475  value >= 10 ** 32 */\n      lt\n        /* \"@openzeppelin/contracts/utils/math/Math.sol\":12454:12557  if (value >= 10 ** 32) {... */\n      tag_32\n      jumpi\n        /* \"@openzeppelin/contracts/utils/math/Math.sol\":12504:12512  10 ** 32 */\n      0x04ee2d6d415b85acef8100000000\n        /* \"@openzeppelin/contracts/utils/math/Math.sol\":12495:12512  value /= 10 ** 32 */\n      dup4\n      dup2\n      tag_33\n      jumpi\n      tag_34\n      tag_26\n      jump\t// in\n    tag_34:\n    tag_33:\n      div\n      swap3\n      pop\n        /* \"@openzeppelin/contracts/utils/math/Math.sol\":12540:12542  32 */\n      0x20\n        /* \"@openzeppelin/contracts/utils/math/Math.sol\":12530:12542  result += 32 */\n      dup2\n      add\n      swap1\n      pop\n        /* \"@openzeppelin/contracts/utils/math/Math.sol\":12454:12557  if (value >= 10 ** 32) {... */\n    tag_32:\n        /* \"@openzeppelin/contracts/utils/math/Math.sol\":12583:12591  10 ** 16 */\n      0x2386f26fc10000\n        /* \"@openzeppelin/contracts/utils/math/Math.sol\":12574:12579  value */\n      dup4\n        /* \"@openzeppelin/contracts/utils/math/Math.sol\":12574:12591  value >= 10 ** 16 */\n      lt\n        /* \"@openzeppelin/contracts/utils/math/Math.sol\":12570:12673  if (value >= 10 ** 16) {... */\n      tag_35\n      jumpi\n        /* \"@openzeppelin/contracts/utils/math/Math.sol\":12620:12628  10 ** 16 */\n      0x2386f26fc10000\n        /* \"@openzeppelin/contracts/utils/math/Math.sol\":12611:12628  value /= 10 ** 16 */\n      dup4\n      dup2\n      tag_36\n      jumpi\n      tag_37\n      tag_26\n      jump\t// in\n    tag_37:\n    tag_36:\n      div\n      swap3\n      pop\n        /* \"@openzeppelin/contracts/utils/math/Math.sol\":12656:12658  16 */\n      0x10\n        /* \"@openzeppelin/contracts/utils/math/Math.sol\":12646:12658  result += 16 */\n      dup2\n      add\n      swap1\n      pop\n        /* \"@openzeppelin/contracts/utils/math/Math.sol\":12570:12673  if (value >= 10 ** 16) {... */\n    tag_35:\n        /* \"@openzeppelin/contracts/utils/math/Math.sol\":12699:12706  10 ** 8 */\n      0x05f5e100\n        /* \"@openzeppelin/contracts/utils/math/Math.sol\":12690:12695  value */\n      dup4\n        /* \"@openzeppelin/contracts/utils/math/Math.sol\":12690:12706  value >= 10 ** 8 */\n      lt\n        /* \"@openzeppelin/contracts/utils/math/Math.sol\":12686:12786  if (value >= 10 ** 8) {... */\n      tag_38\n      jumpi\n        /* \"@openzeppelin/contracts/utils/math/Math.sol\":12735:12742  10 ** 8 */\n      0x05f5e100\n        /* \"@openzeppelin/contracts/utils/math/Math.sol\":12726:12742  value /= 10 ** 8 */\n      dup4\n      dup2\n      tag_39\n      jumpi\n      tag_40\n      tag_26\n      jump\t// in\n    tag_40:\n    tag_39:\n      div\n      swap3\n      pop\n        /* \"@openzeppelin/contracts/utils/math/Math.sol\":12770:12771  8 */\n      0x08\n        /* \"@openzeppelin/contracts/utils/math/Math.sol\":12760:12771  result += 8 */\n      dup2\n      add\n      swap1\n      pop\n        /* \"@openzeppelin/contracts/utils/math/Math.sol\":12686:12786  if (value >= 10 ** 8) {... */\n    tag_38:\n        /* \"@openzeppelin/contracts/utils/math/Math.sol\":12812:12819  10 ** 4 */\n      0x2710\n        /* \"@openzeppelin/contracts/utils/math/Math.sol\":12803:12808  value */\n      dup4\n        /* \"@openzeppelin/contracts/utils/math/Math.sol\":12803:12819  value >= 10 ** 4 */\n      lt\n        /* \"@openzeppelin/contracts/utils/math/Math.sol\":12799:12899  if (value >= 10 ** 4) {... */\n      tag_41\n      jumpi\n        /* \"@openzeppelin/contracts/utils/math/Math.sol\":12848:12855  10 ** 4 */\n      0x2710\n        /* \"@openzeppelin/contracts/utils/math/Math.sol\":12839:12855  value /= 10 ** 4 */\n      dup4\n      dup2\n      tag_42\n      jumpi\n      tag_43\n      tag_26\n      jump\t// in\n    tag_43:\n    tag_42:\n      div\n      swap3\n      pop\n        /* \"@openzeppelin/contracts/utils/math/Math.sol\":12883:12884  4 */\n      0x04\n        /* \"@openzeppelin/contracts/utils/math/Math.sol\":12873:12884  result += 4 */\n      dup2\n      add\n      swap1\n      pop\n        /* \"@openzeppelin/contracts/utils/math/Math.sol\":12799:12899  if (value >= 10 ** 4) {... */\n    tag_41:\n        /* \"@openzeppelin/contracts/utils/math/Math.sol\":12925:12932  10 ** 2 */\n      0x64\n        /* \"@openzeppelin/contracts/utils/math/Math.sol\":12916:12921  value */\n      dup4\n        /* \"@openzeppelin/contracts/utils/math/Math.sol\":12916:12932  value >= 10 ** 2 */\n      lt\n        /* \"@openzeppelin/contracts/utils/math/Math.sol\":12912:13012  if (value >= 10 ** 2) {... */\n      tag_44\n      jumpi\n        /* \"@openzeppelin/contracts/utils/math/Math.sol\":12961:12968  10 ** 2 */\n      0x64\n        /* \"@openzeppelin/contracts/utils/math/Math.sol\":12952:12968  value /= 10 ** 2 */\n      dup4\n      dup2\n      tag_45\n      jumpi\n      tag_46\n      tag_26\n      jump\t// in\n    tag_46:\n    tag_45:\n      div\n      swap3\n      pop\n        /* \"@openzeppelin/contracts/utils/math/Math.sol\":12996:12997  2 */\n      0x02\n        /* \"@openzeppelin/contracts/utils/math/Math.sol\":12986:12997  result += 2 */\n      dup2\n      add\n      swap1\n      pop\n        /* \"@openzeppelin/contracts/utils/math/Math.sol\":12912:13012  if (value >= 10 ** 2) {... */\n    tag_44:\n        /* \"@openzeppelin/contracts/utils/math/Math.sol\":13038:13045  10 ** 1 */\n      0x0a\n        /* \"@openzeppelin/contracts/utils/math/Math.sol\":13029:13034  value */\n      dup4\n        /* \"@openzeppelin/contracts/utils/math/Math.sol\":13029:13045  value >= 10 ** 1 */\n      lt\n        /* \"@openzeppelin/contracts/utils/math/Math.sol\":13025:13091  if (value >= 10 ** 1) {... */\n      tag_47\n      jumpi\n        /* \"@openzeppelin/contracts/utils/math/Math.sol\":13075:13076  1 */\n      0x01\n        /* \"@openzeppelin/contracts/utils/math/Math.sol\":13065:13076  result += 1 */\n      dup2\n      add\n      swap1\n      pop\n        /* \"@openzeppelin/contracts/utils/math/Math.sol\":13025:13091  if (value >= 10 ** 1) {... */\n    tag_47:\n        /* \"@openzeppelin/contracts/utils/math/Math.sol\":13117:13123  result */\n      dup1\n        /* \"@openzeppelin/contracts/utils/math/Math.sol\":13110:13123  return result */\n      swap2\n      pop\n      pop\n        /* \"@openzeppelin/contracts/utils/math/Math.sol\":12214:13130  function log10(uint256 value) internal pure returns (uint256) {... */\n      swap2\n      swap1\n      pop\n      jump\t// out\n        /* \"#utility.yul\":7:106   */\n    tag_48:\n        /* \"#utility.yul\":59:65   */\n      0x00\n        /* \"#utility.yul\":93:98   */\n      dup2\n        /* \"#utility.yul\":87:99   */\n      mload\n        /* \"#utility.yul\":77:99   */\n      swap1\n      pop\n        /* \"#utility.yul\":7:106   */\n      swap2\n      swap1\n      pop\n      jump\t// out\n        /* \"#utility.yul\":112:281   */\n    tag_49:\n        /* \"#utility.yul\":196:207   */\n      0x00\n        /* \"#utility.yul\":230:236   */\n      dup3\n        /* \"#utility.yul\":225:228   */\n      dup3\n        /* \"#utility.yul\":218:237   */\n      mstore\n        /* \"#utility.yul\":270:274   */\n      0x20\n        /* \"#utility.yul\":265:268   */\n      dup3\n        /* \"#utility.yul\":261:275   */\n      add\n        /* \"#utility.yul\":246:275   */\n      swap1\n      pop\n        /* \"#utility.yul\":112:281   */\n      swap3\n      swap2\n      pop\n      pop\n      jump\t// out\n        /* \"#utility.yul\":287:426   */\n    tag_50:\n        /* \"#utility.yul\":376:382   */\n      dup3\n        /* \"#utility.yul\":371:374   */\n      dup2\n        /* \"#utility.yul\":366:369   */\n      dup4\n        /* \"#utility.yul\":360:383   */\n      mcopy\n        /* \"#utility.yul\":417:418   */\n      0x00\n        /* \"#utility.yul\":408:414   */\n      dup4\n        /* \"#utility.yul\":403:406   */\n      dup4\n        /* \"#utility.yul\":399:415   */\n      add\n        /* \"#utility.yul\":392:419   */\n      mstore\n        /* \"#utility.yul\":287:426   */\n      pop\n      pop\n      pop\n      jump\t// out\n        /* \"#utility.yul\":432:534   */\n    tag_51:\n        /* \"#utility.yul\":473:479   */\n      0x00\n        /* \"#utility.yul\":524:526   */\n      0x1f\n        /* \"#utility.yul\":520:527   */\n      not\n        /* \"#utility.yul\":515:517   */\n      0x1f\n        /* \"#utility.yul\":508:513   */\n      dup4\n        /* \"#utility.yul\":504:518   */\n      add\n        /* \"#utility.yul\":500:528   */\n      and\n        /* \"#utility.yul\":490:528   */\n      swap1\n      pop\n        /* \"#utility.yul\":432:534   */\n      swap2\n      swap1\n      pop\n      jump\t// out\n        /* \"#utility.yul\":540:917   */\n    tag_52:\n        /* \"#utility.yul\":628:631   */\n      0x00\n        /* \"#utility.yul\":656:695   */\n      tag_63\n        /* \"#utility.yul\":689:694   */\n      dup3\n        /* \"#utility.yul\":656:695   */\n      tag_48\n      jump\t// in\n    tag_63:\n        /* \"#utility.yul\":711:782   */\n      tag_64\n        /* \"#utility.yul\":775:781   */\n      dup2\n        /* \"#utility.yul\":770:773   */\n      dup6\n        /* \"#utility.yul\":711:782   */\n      tag_49\n      jump\t// in\n    tag_64:\n        /* \"#utility.yul\":704:782   */\n      swap4\n      pop\n        /* \"#utility.yul\":791:856   */\n      tag_65\n        /* \"#utility.yul\":849:855   */\n      dup2\n        /* \"#utility.yul\":844:847   */\n      dup6\n        /* \"#utility.yul\":837:841   */\n      0x20\n        /* \"#utility.yul\":830:835   */\n      dup7\n        /* \"#utility.yul\":826:842   */\n      add\n        /* \"#utility.yul\":791:856   */\n      tag_50\n      jump\t// in\n    tag_65:\n        /* \"#utility.yul\":881:910   */\n      tag_66\n        /* \"#utility.yul\":903:909   */\n      dup2\n        /* \"#utility.yul\":881:910   */\n      tag_51\n      jump\t// in\n    tag_66:\n        /* \"#utility.yul\":876:879   */\n      dup5\n        /* \"#utility.yul\":872:911   */\n      add\n        /* \"#utility.yul\":865:911   */\n      swap2\n      pop\n        /* \"#utility.yul\":632:917   */\n      pop\n        /* \"#utility.yul\":540:917   */\n      swap3\n      swap2\n      pop\n      pop\n      jump\t// out\n        /* \"#utility.yul\":923:1236   */\n    tag_7:\n        /* \"#utility.yul\":1036:1040   */\n      0x00\n        /* \"#utility.yul\":1074:1076   */\n      0x20\n        /* \"#utility.yul\":1063:1072   */\n      dup3\n        /* \"#utility.yul\":1059:1077   */\n      add\n        /* \"#utility.yul\":1051:1077   */\n      swap1\n      pop\n        /* \"#utility.yul\":1123:1132   */\n      dup2\n        /* \"#utility.yul\":1117:1121   */\n      dup2\n        /* \"#utility.yul\":1113:1133   */\n      sub\n        /* \"#utility.yul\":1109:1110   */\n      0x00\n        /* \"#utility.yul\":1098:1107   */\n      dup4\n        /* \"#utility.yul\":1094:1111   */\n      add\n        /* \"#utility.yul\":1087:1134   */\n      mstore\n        /* \"#utility.yul\":1151:1229   */\n      tag_68\n        /* \"#utility.yul\":1224:1228   */\n      dup2\n        /* \"#utility.yul\":1215:1221   */\n      dup5\n        /* \"#utility.yul\":1151:1229   */\n      tag_52\n      jump\t// in\n    tag_68:\n        /* \"#utility.yul\":1143:1229   */\n      swap1\n      pop\n        /* \"#utility.yul\":923:1236   */\n      swap3\n      swap2\n      pop\n      pop\n      jump\t// out\n        /* \"#utility.yul\":1242:1390   */\n    tag_53:\n        /* \"#utility.yul\":1344:1355   */\n      0x00\n        /* \"#utility.yul\":1381:1384   */\n      dup2\n        /* \"#utility.yul\":1366:1384   */\n      swap1\n      pop\n        /* \"#utility.yul\":1242:1390   */\n      swap3\n      swap2\n      pop\n      pop\n      jump\t// out\n        /* \"#utility.yul\":1396:1786   */\n    tag_54:\n        /* \"#utility.yul\":1502:1505   */\n      0x00\n        /* \"#utility.yul\":1530:1569   */\n      tag_71\n        /* \"#utility.yul\":1563:1568   */\n      dup3\n        /* \"#utility.yul\":1530:1569   */\n      tag_48\n      jump\t// in\n    tag_71:\n        /* \"#utility.yul\":1585:1674   */\n      tag_72\n        /* \"#utility.yul\":1667:1673   */\n      dup2\n        /* \"#utility.yul\":1662:1665   */\n      dup6\n        /* \"#utility.yul\":1585:1674   */\n      tag_53\n      jump\t// in\n    tag_72:\n        /* \"#utility.yul\":1578:1674   */\n      swap4\n      pop\n        /* \"#utility.yul\":1683:1748   */\n      tag_73\n        /* \"#utility.yul\":1741:1747   */\n      dup2\n        /* \"#utility.yul\":1736:1739   */\n      dup6\n        /* \"#utility.yul\":1729:1733   */\n      0x20\n        /* \"#utility.yul\":1722:1727   */\n      dup7\n        /* \"#utility.yul\":1718:1734   */\n      add\n        /* \"#utility.yul\":1683:1748   */\n      tag_50\n      jump\t// in\n    tag_73:\n        /* \"#utility.yul\":1773:1779   */\n      dup1\n        /* \"#utility.yul\":1768:1771   */\n      dup5\n        /* \"#utility.yul\":1764:1780   */\n      add\n        /* \"#utility.yul\":1757:1780   */\n      swap2\n      pop\n        /* \"#utility.yul\":1506:1786   */\n      pop\n        /* \"#utility.yul\":1396:1786   */\n      swap3\n      swap2\n      pop\n      pop\n      jump\t// out\n        /* \"#utility.yul\":1792:1943   */\n    tag_55:\n        /* \"#utility.yul\":1932:1935   */\n      0x2e00000000000000000000000000000000000000000000000000000000000000\n        /* \"#utility.yul\":1928:1929   */\n      0x00\n        /* \"#utility.yul\":1920:1926   */\n      dup3\n        /* \"#utility.yul\":1916:1930   */\n      add\n        /* \"#utility.yul\":1909:1936   */\n      mstore\n        /* \"#utility.yul\":1792:1943   */\n      pop\n      jump\t// out\n        /* \"#utility.yul\":1949:2349   */\n    tag_56:\n        /* \"#utility.yul\":2109:2112   */\n      0x00\n        /* \"#utility.yul\":2130:2214   */\n      tag_76\n        /* \"#utility.yul\":2212:2213   */\n      0x01\n        /* \"#utility.yul\":2207:2210   */\n      dup4\n        /* \"#utility.yul\":2130:2214   */\n      tag_53\n      jump\t// in\n    tag_76:\n        /* \"#utility.yul\":2123:2214   */\n      swap2\n      pop\n        /* \"#utility.yul\":2223:2316   */\n      tag_77\n        /* \"#utility.yul\":2312:2315   */\n      dup3\n        /* \"#utility.yul\":2223:2316   */\n      tag_55\n      jump\t// in\n    tag_77:\n        /* \"#utility.yul\":2341:2342   */\n      0x01\n        /* \"#utility.yul\":2336:2339   */\n      dup3\n        /* \"#utility.yul\":2332:2343   */\n      add\n        /* \"#utility.yul\":2325:2343   */\n      swap1\n      pop\n        /* \"#utility.yul\":1949:2349   */\n      swap2\n      swap1\n      pop\n      jump\t// out\n        /* \"#utility.yul\":2355:3482   */\n    tag_14:\n        /* \"#utility.yul\":2785:2788   */\n      0x00\n        /* \"#utility.yul\":2807:2902   */\n      tag_79\n        /* \"#utility.yul\":2898:2901   */\n      dup3\n        /* \"#utility.yul\":2889:2895   */\n      dup7\n        /* \"#utility.yul\":2807:2902   */\n      tag_54\n      jump\t// in\n    tag_79:\n        /* \"#utility.yul\":2800:2902   */\n      swap2\n      pop\n        /* \"#utility.yul\":2919:3067   */\n      tag_80\n        /* \"#utility.yul\":3063:3066   */\n      dup3\n        /* \"#utility.yul\":2919:3067   */\n      tag_56\n      jump\t// in\n    tag_80:\n        /* \"#utility.yul\":2912:3067   */\n      swap2\n      pop\n        /* \"#utility.yul\":3084:3179   */\n      tag_81\n        /* \"#utility.yul\":3175:3178   */\n      dup3\n        /* \"#utility.yul\":3166:3172   */\n      dup6\n        /* \"#utility.yul\":3084:3179   */\n      tag_54\n      jump\t// in\n    tag_81:\n        /* \"#utility.yul\":3077:3179   */\n      swap2\n      pop\n        /* \"#utility.yul\":3196:3344   */\n      tag_82\n        /* \"#utility.yul\":3340:3343   */\n      dup3\n        /* \"#utility.yul\":3196:3344   */\n      tag_56\n      jump\t// in\n    tag_82:\n        /* \"#utility.yul\":3189:3344   */\n      swap2\n      pop\n        /* \"#utility.yul\":3361:3456   */\n      tag_83\n        /* \"#utility.yul\":3452:3455   */\n      dup3\n        /* \"#utility.yul\":3443:3449   */\n      dup5\n        /* \"#utility.yul\":3361:3456   */\n      tag_54\n      jump\t// in\n    tag_83:\n        /* \"#utility.yul\":3354:3456   */\n      swap2\n      pop\n        /* \"#utility.yul\":3473:3476   */\n      dup2\n        /* \"#utility.yul\":3466:3476   */\n      swap1\n      pop\n        /* \"#utility.yul\":2355:3482   */\n      swap5\n      swap4\n      pop\n      pop\n      pop\n      pop\n      jump\t// out\n        /* \"#utility.yul\":3488:3668   */\n    tag_20:\n        /* \"#utility.yul\":3536:3613   */\n      0x4e487b7100000000000000000000000000000000000000000000000000000000\n        /* \"#utility.yul\":3533:3534   */\n      0x00\n        /* \"#utility.yul\":3526:3614   */\n      mstore\n        /* \"#utility.yul\":3633:3637   */\n      0x41\n        /* \"#utility.yul\":3630:3631   */\n      0x04\n        /* \"#utility.yul\":3623:3638   */\n      mstore\n        /* \"#utility.yul\":3657:3661   */\n      0x24\n        /* \"#utility.yul\":3654:3655   */\n      0x00\n        /* \"#utility.yul\":3647:3662   */\n      revert\n        /* \"#utility.yul\":3674:3854   */\n    tag_26:\n        /* \"#utility.yul\":3722:3799   */\n      0x4e487b7100000000000000000000000000000000000000000000000000000000\n        /* \"#utility.yul\":3719:3720   */\n      0x00\n        /* \"#utility.yul\":3712:3800   */\n      mstore\n        /* \"#utility.yul\":3819:3823   */\n      0x12\n        /* \"#utility.yul\":3816:3817   */\n      0x04\n        /* \"#utility.yul\":3809:3824   */\n      mstore\n        /* \"#utility.yul\":3843:3847   */\n      0x24\n        /* \"#utility.yul\":3840:3841   */\n      0x00\n        /* \"#utility.yul\":3833:3848   */\n      revert\n\n    auxdata: 0xa26469706673582212203fe2372ce44fc81b98b7537375f7edcec903044adb64bb54dc60667d6a6fb73964736f6c634300081a0033\n}\n",
				"bytecode": {
					"linkReferences": {},
					"object": "60e060405234801561000f575f80fd5b506040516105f23803806105f283398181016040528101906100319190610088565b82608081815250508160a081815250508060c081815250505050506100d8565b5f80fd5b5f819050919050565b61006781610055565b8114610071575f80fd5b50565b5f815190506100828161005e565b92915050565b5f805f6060848603121561009f5761009e610051565b5b5f6100ac86828701610074565b93505060206100bd86828701610074565b92505060406100ce86828701610074565b9150509250925092565b60805160a05160c0516104f36100ff5f395f60a401525f607b01525f605201526104f35ff3fe608060405234801561000f575f80fd5b5060043610610029575f3560e01c806354fd4d501461002d575b5f80fd5b61003561004b565b6040516100429190610379565b60405180910390f35b60606100767f00000000000000000000000000000000000000000000000000000000000000006100ee565b61009f7f00000000000000000000000000000000000000000000000000000000000000006100ee565b6100c87f00000000000000000000000000000000000000000000000000000000000000006100ee565b6040516020016100da9392919061041d565b604051602081830303815290604052905090565b60605f60016100fc846101b8565b0190505f8167ffffffffffffffff81111561011a57610119610463565b5b6040519080825280601f01601f19166020018201604052801561014c5781602001600182028036833780820191505090505b5090505f82602001820190505b6001156101ad578080600190039150507f3031323334353637383961626364656600000000000000000000000000000000600a86061a8153600a85816101a2576101a1610490565b5b0494505f8503610159575b819350505050919050565b5f805f90507a184f03e93ff9f4daa797ed6e38ed64bf6a1f0100000000000000008310610214577a184f03e93ff9f4daa797ed6e38ed64bf6a1f010000000000000000838161020a57610209610490565b5b0492506040810190505b6d04ee2d6d415b85acef81000000008310610251576d04ee2d6d415b85acef8100000000838161024757610246610490565b5b0492506020810190505b662386f26fc10000831061028057662386f26fc10000838161027657610275610490565b5b0492506010810190505b6305f5e10083106102a9576305f5e100838161029f5761029e610490565b5b0492506008810190505b61271083106102ce5761271083816102c4576102c3610490565b5b0492506004810190505b606483106102f157606483816102e7576102e6610490565b5b0492506002810190505b600a8310610300576001810190505b80915050919050565b5f81519050919050565b5f82825260208201905092915050565b8281835e5f83830152505050565b5f601f19601f8301169050919050565b5f61034b82610309565b6103558185610313565b9350610365818560208601610323565b61036e81610331565b840191505092915050565b5f6020820190508181035f8301526103918184610341565b905092915050565b5f81905092915050565b5f6103ad82610309565b6103b78185610399565b93506103c7818560208601610323565b80840191505092915050565b7f2e000000000000000000000000000000000000000000000000000000000000005f82015250565b5f610407600183610399565b9150610412826103d3565b600182019050919050565b5f61042882866103a3565b9150610433826103fb565b915061043f82856103a3565b915061044a826103fb565b915061045682846103a3565b9150819050949350505050565b7f4e487b71000000000000000000000000000000000000000000000000000000005f52604160045260245ffd5b7f4e487b71000000000000000000000000000000000000000000000000000000005f52601260045260245ffdfea26469706673582212203fe2372ce44fc81b98b7537375f7edcec903044adb64bb54dc60667d6a6fb73964736f6c634300081a0033",
					"opcodes": "PUSH1 0xE0 PUSH1 0x40 MSTORE CALLVALUE DUP1 ISZERO PUSH2 0xF JUMPI PUSH0 DUP1 REVERT JUMPDEST POP PUSH1 0x40 MLOAD PUSH2 0x5F2 CODESIZE SUB DUP1 PUSH2 0x5F2 DUP4 CODECOPY DUP2 DUP2 ADD PUSH1 0x40 MSTORE DUP2 ADD SWAP1 PUSH2 0x31 SWAP2 SWAP1 PUSH2 0x88 JUMP JUMPDEST DUP3 PUSH1 0x80 DUP2 DUP2 MSTORE POP POP DUP2 PUSH1 0xA0 DUP2 DUP2 MSTORE POP POP DUP1 PUSH1 0xC0 DUP2 DUP2 MSTORE POP POP POP POP POP PUSH2 0xD8 JUMP JUMPDEST PUSH0 DUP1 REVERT JUMPDEST PUSH0 DUP2 SWAP1 POP SWAP2 SWAP1 POP JUMP JUMPDEST PUSH2 0x67 DUP2 PUSH2 0x55 JUMP JUMPDEST DUP2 EQ PUSH2 0x71 JUMPI PUSH0 DUP1 REVERT JUMPDEST POP JUMP JUMPDEST PUSH0 DUP2 MLOAD SWAP1 POP PUSH2 0x82 DUP2 PUSH2 0x5E JUMP JUMPDEST SWAP3 SWAP2 POP POP JUMP JUMPDEST PUSH0 DUP1 PUSH0 PUSH1 0x60 DUP5 DUP7 SUB SLT ISZERO PUSH2 0x9F JUMPI PUSH2 0x9E PUSH2 0x51 JUMP JUMPDEST JUMPDEST PUSH0 PUSH2 0xAC DUP7 DUP3 DUP8 ADD PUSH2 0x74 JUMP JUMPDEST SWAP4 POP POP PUSH1 0x20 PUSH2 0xBD DUP7 DUP3 DUP8 ADD PUSH2 0x74 JUMP JUMPDEST SWAP3 POP POP PUSH1 0x40 PUSH2 0xCE DUP7 DUP3 DUP8 ADD PUSH2 0x74 JUMP JUMPDEST SWAP2 POP POP SWAP3 POP SWAP3 POP SWAP3 JUMP JUMPDEST PUSH1 0x80 MLOAD PUSH1 0xA0 MLOAD PUSH1 0xC0 MLOAD PUSH2 0x4F3 PUSH2 0xFF PUSH0 CODECOPY PUSH0 PUSH1 0xA4 ADD MSTORE PUSH0 PUSH1 0x7B ADD MSTORE PUSH0 PUSH1 0x52 ADD MSTORE PUSH2 0x4F3 PUSH0 RETURN INVALID PUSH1 0x80 PUSH1 0x40 MSTORE CALLVALUE DUP1 ISZERO PUSH2 0xF JUMPI PUSH0 DUP1 REVERT JUMPDEST POP PUSH1 0x4 CALLDATASIZE LT PUSH2 0x29 JUMPI PUSH0 CALLDATALOAD PUSH1 0xE0 SHR DUP1 PUSH4 0x54FD4D50 EQ PUSH2 0x2D JUMPI JUMPDEST PUSH0 DUP1 REVERT JUMPDEST PUSH2 0x35 PUSH2 0x4B JUMP JUMPDEST PUSH1 0x40 MLOAD PUSH2 0x42 SWAP2 SWAP1 PUSH2 0x379 JUMP JUMPDEST PUSH1 0x40 MLOAD DUP1 SWAP2 SUB SWAP1 RETURN JUMPDEST PUSH1 0x60 PUSH2 0x76 PUSH32 0x0 PUSH2 0xEE JUMP JUMPDEST PUSH2 0x9F PUSH32 0x0 PUSH2 0xEE JUMP JUMPDEST PUSH2 0xC8 PUSH32 0x0 PUSH2 0xEE JUMP JUMPDEST PUSH1 0x40 MLOAD PUSH1 0x20 ADD PUSH2 0xDA SWAP4 SWAP3 SWAP2 SWAP1 PUSH2 0x41D JUMP JUMPDEST PUSH1 0x40 MLOAD PUSH1 0x20 DUP2 DUP4 SUB SUB DUP2 MSTORE SWAP1 PUSH1 0x40 MSTORE SWAP1 POP SWAP1 JUMP JUMPDEST PUSH1 0x60 PUSH0 PUSH1 0x1 PUSH2 0xFC DUP5 PUSH2 0x1B8 JUMP JUMPDEST ADD SWAP1 POP PUSH0 DUP2 PUSH8 0xFFFFFFFFFFFFFFFF DUP2 GT ISZERO PUSH2 0x11A JUMPI PUSH2 0x119 PUSH2 0x463 JUMP JUMPDEST JUMPDEST PUSH1 0x40 MLOAD SWAP1 DUP1 DUP3 MSTORE DUP1 PUSH1 0x1F ADD PUSH1 0x1F NOT AND PUSH1 0x20 ADD DUP3 ADD PUSH1 0x40 MSTORE DUP1 ISZERO PUSH2 0x14C JUMPI DUP2 PUSH1 0x20 ADD PUSH1 0x1 DUP3 MUL DUP1 CALLDATASIZE DUP4 CALLDATACOPY DUP1 DUP3 ADD SWAP2 POP POP SWAP1 POP JUMPDEST POP SWAP1 POP PUSH0 DUP3 PUSH1 0x20 ADD DUP3 ADD SWAP1 POP JUMPDEST PUSH1 0x1 ISZERO PUSH2 0x1AD JUMPI DUP1 DUP1 PUSH1 0x1 SWAP1 SUB SWAP2 POP POP PUSH32 0x3031323334353637383961626364656600000000000000000000000000000000 PUSH1 0xA DUP7 MOD BYTE DUP2 MSTORE8 PUSH1 0xA DUP6 DUP2 PUSH2 0x1A2 JUMPI PUSH2 0x1A1 PUSH2 0x490 JUMP JUMPDEST JUMPDEST DIV SWAP5 POP PUSH0 DUP6 SUB PUSH2 0x159 JUMPI JUMPDEST DUP2 SWAP4 POP POP POP POP SWAP2 SWAP1 POP JUMP JUMPDEST PUSH0 DUP1 PUSH0 SWAP1 POP PUSH27 0x184F03E93FF9F4DAA797ED6E38ED64BF6A1F010000000000000000 DUP4 LT PUSH2 0x214 JUMPI PUSH27 0x184F03E93FF9F4DAA797ED6E38ED64BF6A1F010000000000000000 DUP4 DUP2 PUSH2 0x20A JUMPI PUSH2 0x209 PUSH2 0x490 JUMP JUMPDEST JUMPDEST DIV SWAP3 POP PUSH1 0x40 DUP2 ADD SWAP1 POP JUMPDEST PUSH14 0x4EE2D6D415B85ACEF8100000000 DUP4 LT PUSH2 0x251 JUMPI PUSH14 0x4EE2D6D415B85ACEF8100000000 DUP4 DUP2 PUSH2 0x247 JUMPI PUSH2 0x246 PUSH2 0x490 JUMP JUMPDEST JUMPDEST DIV SWAP3 POP PUSH1 0x20 DUP2 ADD SWAP1 POP JUMPDEST PUSH7 0x2386F26FC10000 DUP4 LT PUSH2 0x280 JUMPI PUSH7 0x2386F26FC10000 DUP4 DUP2 PUSH2 0x276 JUMPI PUSH2 0x275 PUSH2 0x490 JUMP JUMPDEST JUMPDEST DIV SWAP3 POP PUSH1 0x10 DUP2 ADD SWAP1 POP JUMPDEST PUSH4 0x5F5E100 DUP4 LT PUSH2 0x2A9 JUMPI PUSH4 0x5F5E100 DUP4 DUP2 PUSH2 0x29F JUMPI PUSH2 0x29E PUSH2 0x490 JUMP JUMPDEST JUMPDEST DIV SWAP3 POP PUSH1 0x8 DUP2 ADD SWAP1 POP JUMPDEST PUSH2 0x2710 DUP4 LT PUSH2 0x2CE JUMPI PUSH2 0x2710 DUP4 DUP2 PUSH2 0x2C4 JUMPI PUSH2 0x2C3 PUSH2 0x490 JUMP JUMPDEST JUMPDEST DIV SWAP3 POP PUSH1 0x4 DUP2 ADD SWAP1 POP JUMPDEST PUSH1 0x64 DUP4 LT PUSH2 0x2F1 JUMPI PUSH1 0x64 DUP4 DUP2 PUSH2 0x2E7 JUMPI PUSH2 0x2E6 PUSH2 0x490 JUMP JUMPDEST JUMPDEST DIV SWAP3 POP PUSH1 0x2 DUP2 ADD SWAP1 POP JUMPDEST PUSH1 0xA DUP4 LT PUSH2 0x300 JUMPI PUSH1 0x1 DUP2 ADD SWAP1 POP JUMPDEST DUP1 SWAP2 POP POP SWAP2 SWAP1 POP JUMP JUMPDEST PUSH0 DUP2 MLOAD SWAP1 POP SWAP2 SWAP1 POP JUMP JUMPDEST PUSH0 DUP3 DUP3 MSTORE PUSH1 0x20 DUP3 ADD SWAP1 POP SWAP3 SWAP2 POP POP JUMP JUMPDEST DUP3 DUP2 DUP4 MCOPY PUSH0 DUP4 DUP4 ADD MSTORE POP POP POP JUMP JUMPDEST PUSH0 PUSH1 0x1F NOT PUSH1 0x1F DUP4 ADD AND SWAP1 POP SWAP2 SWAP1 POP JUMP JUMPDEST PUSH0 PUSH2 0x34B DUP3 PUSH2 0x309 JUMP JUMPDEST PUSH2 0x355 DUP2 DUP6 PUSH2 0x313 JUMP JUMPDEST SWAP4 POP PUSH2 0x365 DUP2 DUP6 PUSH1 0x20 DUP7 ADD PUSH2 0x323 JUMP JUMPDEST PUSH2 0x36E DUP2 PUSH2 0x331 JUMP JUMPDEST DUP5 ADD SWAP2 POP POP SWAP3 SWAP2 POP POP JUMP JUMPDEST PUSH0 PUSH1 0x20 DUP3 ADD SWAP1 POP DUP2 DUP2 SUB PUSH0 DUP4 ADD MSTORE PUSH2 0x391 DUP2 DUP5 PUSH2 0x341 JUMP JUMPDEST SWAP1 POP SWAP3 SWAP2 POP POP JUMP JUMPDEST PUSH0 DUP2 SWAP1 POP SWAP3 SWAP2 POP POP JUMP JUMPDEST PUSH0 PUSH2 0x3AD DUP3 PUSH2 0x309 JUMP JUMPDEST PUSH2 0x3B7 DUP2 DUP6 PUSH2 0x399 JUMP JUMPDEST SWAP4 POP PUSH2 0x3C7 DUP2 DUP6 PUSH1 0x20 DUP7 ADD PUSH2 0x323 JUMP JUMPDEST DUP1 DUP5 ADD SWAP2 POP POP SWAP3 SWAP2 POP POP JUMP JUMPDEST PUSH32 0x2E00000000000000000000000000000000000000000000000000000000000000 PUSH0 DUP3 ADD MSTORE POP JUMP JUMPDEST PUSH0 PUSH2 0x407 PUSH1 0x1 DUP4 PUSH2 0x399 JUMP JUMPDEST SWAP2 POP PUSH2 0x412 DUP3 PUSH2 0x3D3 JUMP JUMPDEST PUSH1 0x1 DUP3 ADD SWAP1 POP SWAP2 SWAP1 POP JUMP JUMPDEST PUSH0 PUSH2 0x428 DUP3 DUP7 PUSH2 0x3A3 JUMP JUMPDEST SWAP2 POP PUSH2 0x433 DUP3 PUSH2 0x3FB JUMP JUMPDEST SWAP2 POP PUSH2 0x43F DUP3 DUP6 PUSH2 0x3A3 JUMP JUMPDEST SWAP2 POP PUSH2 0x44A DUP3 PUSH2 0x3FB JUMP JUMPDEST SWAP2 POP PUSH2 0x456 DUP3 DUP5 PUSH2 0x3A3 JUMP JUMPDEST SWAP2 POP DUP2 SWAP1 POP SWAP5 SWAP4 POP POP POP POP JUMP JUMPDEST PUSH32 0x4E487B7100000000000000000000000000000000000000000000000000000000 PUSH0 MSTORE PUSH1 0x41 PUSH1 0x4 MSTORE PUSH1 0x24 PUSH0 REVERT JUMPDEST PUSH32 0x4E487B7100000000000000000000000000000000000000000000000000000000 PUSH0 MSTORE PUSH1 0x12 PUSH1 0x4 MSTORE PUSH1 0x24 PUSH0 REVERT INVALID LOG2 PUSH5 0x6970667358 0x22 SLT KECCAK256 EXTCODEHASH 0xE2 CALLDATACOPY 0x2C 0xE4 0x4F 0xC8 SHL SWAP9 0xB7 MSTORE8 PUSH20 0x75F7EDCEC903044ADB64BB54DC60667D6A6FB739 PUSH5 0x736F6C6343 STOP ADDMOD BYTE STOP CALLER "
				},
				"gasEstimates": {
					"creation": {
						"codeDepositCost": "253400",
						"executionCost": "infinite",
						"totalCost": "infinite"
					},
					"external": {
						"version()": "infinite"
					}
				},
				"methodIdentifiers": {
					"version()": "54fd4d50"
				}
			},
			"storageLayout": {
				"storage": [],
				"types": null
			},
			"userdoc": {
				"kind": "user",
				"methods": {
					"version()": {
						"notice": "Returns the full semver contract version."
					}
				},
				"notice": "A simple contract for managing contract versions.",
				"version": 1
			}
		}
	}
}